{
  "fileName": "DarkForestCore.sol",
  "contractName": "DarkForestCore",
  "source": "// SPDX-License-Identifier: UNLICENSED\npragma solidity ^0.6.9;\npragma experimental ABIEncoderV2;\n\n// Import base Initializable contract\nimport \"@openzeppelin/contracts-ethereum-package/contracts/Initializable.sol\";\nimport \"@openzeppelin/contracts-ethereum-package/contracts/math/SafeMath.sol\";\nimport \"@openzeppelin/contracts-ethereum-package/contracts/math/Math.sol\";\nimport \"./Verifier.sol\";\nimport \"./DarkForestStorageV1.sol\";\nimport \"./DarkForestUtils.sol\";\nimport \"./DarkForestPlanet.sol\";\nimport \"./DarkForestLazyUpdate.sol\";\nimport \"./DarkForestInitialize.sol\";\n\n// .______       _______     ___       _______  .___  ___.  _______\n// |   _  \\     |   ____|   /   \\     |       \\ |   \\/   | |   ____|\n// |  |_)  |    |  |__     /  ^  \\    |  .--.  ||  \\  /  | |  |__\n// |      /     |   __|   /  /_\\  \\   |  |  |  ||  |\\/|  | |   __|\n// |  |\\  \\----.|  |____ /  _____  \\  |  '--'  ||  |  |  | |  |____\n// | _| `._____||_______/__/     \\__\\ |_______/ |__|  |__| |_______|\n//\n// READ THIS FIRST BEFORE EDITING ANYTHING IN THIS FILE:\n// https://docs.openzeppelin.com/learn/upgrading-smart-contracts#limitations-of-contract-upgrades\n//\n// DO NOT ADD ANY STORAGE VARIABLES IN THIS FILE\n// IT SHOULD BELONG AT STORAGE CONTRACTS\n// ADDING STORAGE VARIABLES HERE WI LL BLOCK ANY STORAGE CONTRACTS FROM EVER\n// ADDING THEIR OWN VARIABLES EVER AGAIN.\n\ncontract DarkForestCore is Initializable, DarkForestStorageV1 {\n    using ABDKMath64x64 for *;\n    using SafeMath for *;\n    using Math for uint256;\n\n    event PlayerInitialized(address player, uint256 loc);\n    event ArrivalQueued(uint256 arrivalId);\n    event PlanetUpgraded(uint256 loc);\n    event PlanetDelegated(uint256 loc, address player);\n    event PlanetUndelegated(uint256 loc, address player);\n    event BoughtHat(uint256 loc);\n\n    function initialize(\n        address _adminAddress,\n        address payable _whitelistAddress,\n        bool _disableZKCheck\n    ) public initializer {\n        adminAddress = _adminAddress;\n        whitelist = Whitelist(_whitelistAddress);\n\n        paused = false;\n\n        DISABLE_ZK_CHECK = _disableZKCheck;\n\n        gameEndTimestamp = 1697464000;\n        target4RadiusConstant = 50;\n        target5RadiusConstant = 12;\n\n        planetLevelThresholds = [\n            16777216,\n            4194256,\n            1048516,\n            262081,\n            65472,\n            16320,\n            4032,\n            960\n        ];\n\n        DarkForestInitialize.initializeDefaults(planetDefaultStats);\n        DarkForestInitialize.initializeUpgrades(upgrades);\n\n        initializedPlanetCountByLevel = [0, 0, 0, 0, 0, 0, 0, 0];\n        for (uint256 i = 0; i < planetLevelThresholds.length; i += 1) {\n            cumulativeRarities.push(\n                (2**24 / planetLevelThresholds[i]) * PLANET_RARITY\n            );\n        }\n\n        _updateWorldRadius();\n    }\n\n    //////////////////////\n    /// ACCESS CONTROL ///\n    //////////////////////\n    modifier onlyAdmin() {\n        require(msg.sender == adminAddress, \"Sender is not a game master\");\n        _;\n    }\n\n    modifier onlyWhitelisted() {\n        require(\n            whitelist.isWhitelisted(msg.sender),\n            \"Player is not whitelisted\"\n        );\n        _;\n    }\n\n    modifier notPaused() {\n        require(!paused, \"Game is paused\");\n        _;\n    }\n\n    modifier notEnded() {\n        require(block.timestamp < gameEndTimestamp, \"Game have ended\");\n        _;\n    }\n\n    function changeAdmin(address _newAdmin) public onlyAdmin {\n        require(_newAdmin != address(0), \"newOwner cannot be 0x0\");\n        adminAddress = _newAdmin;\n    }\n\n    /////////////////////////////\n    /// Administrative Engine ///\n    /////////////////////////////\n    function pause() public onlyAdmin {\n        require(!paused, \"Game is already paused\");\n        paused = true;\n    }\n\n    function unpause() public onlyAdmin {\n        require(paused, \"Game is already unpaused\");\n        paused = false;\n    }\n\n    function changeGameEndTime(uint256 _newGameEnd) public onlyAdmin {\n        gameEndTimestamp = _newGameEnd;\n    }\n\n    function changeTarget4RadiusConstant(uint256 _newConstant)\n        public\n        onlyAdmin\n    {\n        target4RadiusConstant = _newConstant;\n    }\n\n    function changeTarget5RadiusConstant(uint256 _newConstant)\n        public\n        onlyAdmin\n    {\n        target5RadiusConstant = _newConstant;\n    }\n\n    function withdraw() public onlyAdmin {\n        msg.sender.transfer(address(this).balance);\n    }\n\n    //////////////\n    /// Helper ///\n    //////////////\n\n    // Public helper getters\n    function getNPlanets() public view returns (uint256) {\n        return planetIds.length;\n    }\n\n    function bulkGetPlanetIds(uint256 startIdx, uint256 endIdx)\n        public\n        view\n        returns (uint256[] memory ret)\n    {\n        // return slice of planetIds array from startIdx through endIdx - 1\n        ret = new uint256[](endIdx - startIdx);\n        for (uint256 i = startIdx; i < endIdx; i++) {\n            ret[i - startIdx] = planetIds[i];\n        }\n    }\n\n    function bulkGetPlanetsByIds(uint256[] calldata ids) \n        public\n        view\n        returns (DarkForestTypes.Planet[] memory ret) \n    {\n        ret = new DarkForestTypes.Planet[](ids.length);\n\n        for (uint256 i = 0; i < ids.length; i++) {\n            ret[i] = planets[ids[i]];\n        }\n    }\n\n    function bulkGetPlanetArrivalsByIds(uint256[] calldata ids)\n        public\n        view\n        returns (DarkForestTypes.ArrivalData[][] memory)\n    {\n        // return array of planets corresponding to planetIds[startIdx] through planetIds[endIdx - 1]\n        DarkForestTypes.ArrivalData[][] memory ret\n            = new DarkForestTypes.ArrivalData[][](ids.length);\n\n        for (uint256 i = 0; i < ids.length; i++) {\n            ret[i] = getPlanetArrivals(ids[i]);\n        }\n\n        return ret;\n    }\n\n    function bulkGetPlanetsExtendedInfoByIds(uint256[] calldata ids)\n        public\n        view\n        returns (DarkForestTypes.PlanetExtendedInfo[] memory ret)\n    {\n        ret = new DarkForestTypes.PlanetExtendedInfo[](ids.length);\n\n        for (uint256 i = 0; i < ids.length; i++) {\n            ret[i] = planetsExtendedInfo[ids[i]];\n        }\n    }\n\n    function bulkGetPlanets(uint256 startIdx, uint256 endIdx)\n        public\n        view\n        returns (DarkForestTypes.Planet[] memory ret)\n    {\n        // return array of planets corresponding to planetIds[startIdx] through planetIds[endIdx - 1]\n        ret = new DarkForestTypes.Planet[](endIdx - startIdx);\n        for (uint256 i = startIdx; i < endIdx; i++) {\n            ret[i - startIdx] = planets[planetIds[i]];\n        }\n    }\n\n    function bulkGetPlanetsExtendedInfo(uint256 startIdx, uint256 endIdx)\n        public\n        view\n        returns (DarkForestTypes.PlanetExtendedInfo[] memory ret)\n    {\n        // return array of planets corresponding to planetIds[startIdx] through planetIds[endIdx - 1]\n        ret = new DarkForestTypes.PlanetExtendedInfo[](endIdx - startIdx);\n        for (uint256 i = startIdx; i < endIdx; i++) {\n            ret[i - startIdx] = planetsExtendedInfo[planetIds[i]];\n        }\n    }\n\n    function getNPlayers() public view returns (uint256) {\n        return playerIds.length;\n    }\n\n    function bulkGetPlayers(uint256 startIdx, uint256 endIdx)\n        public\n        view\n        returns (address[] memory ret)\n    {\n        // return slice of players array from startIdx through endIdx - 1\n        ret = new address[](endIdx - startIdx);\n        for (uint256 i = startIdx; i < endIdx; i++) {\n            ret[i - startIdx] = playerIds[i];\n        }\n    }\n\n    function getPlanetLevelThresholds() public view returns (uint256[] memory) {\n        return planetLevelThresholds;\n    }\n\n    function getPlanetCumulativeRarities()\n        public\n        view\n        returns (uint256[] memory)\n    {\n        return cumulativeRarities;\n    }\n\n    function getPlanetArrivals(uint256 _location)\n        public\n        view\n        returns (DarkForestTypes.ArrivalData[] memory ret)\n    {\n        uint256 arrivalCount = 0;\n        for (uint256 i = 0; i < planetEvents[_location].length; i += 1) {\n            if (\n                planetEvents[_location][i].eventType ==\n                DarkForestTypes.PlanetEventType.ARRIVAL\n            ) {\n                arrivalCount += 1;\n            }\n        }\n        ret = new DarkForestTypes.ArrivalData[](arrivalCount);\n        uint256 count = 0;\n        for (uint256 i = 0; i < planetEvents[_location].length; i += 1) {\n            if (\n                planetEvents[_location][i].eventType ==\n                DarkForestTypes.PlanetEventType.ARRIVAL\n            ) {\n                ret[count] = planetArrivals[planetEvents[_location][i].id];\n                count++;\n            }\n        }\n    }\n\n    function bulkGetPlanetArrivals(uint256 startIdx, uint256 endIdx)\n        public\n        view\n        returns (DarkForestTypes.ArrivalData[][] memory)\n    {\n        // return array of planets corresponding to planetIds[startIdx] through planetIds[endIdx - 1]\n        DarkForestTypes.ArrivalData[][] memory ret\n            = new DarkForestTypes.ArrivalData[][](endIdx - startIdx);\n        for (uint256 i = startIdx; i < endIdx; i++) {\n            ret[i - startIdx] = getPlanetArrivals(planetIds[i]);\n        }\n        return ret;\n    }\n\n    function getDefaultStats()\n        public\n        view\n        returns (DarkForestTypes.PlanetDefaultStats[] memory)\n    {\n\n            DarkForestTypes.PlanetDefaultStats[] memory ret\n         = new DarkForestTypes.PlanetDefaultStats[](\n            planetLevelThresholds.length\n        );\n        for (uint256 i = 0; i < planetLevelThresholds.length; i += 1) {\n            ret[i] = planetDefaultStats[i];\n        }\n        return ret;\n    }\n\n    function getPlanetCounts() public view returns (uint256[] memory) {\n        return initializedPlanetCountByLevel;\n    }\n\n    function getUpgrades()\n        public\n        view\n        returns (DarkForestTypes.Upgrade[4][3] memory)\n    {\n        return upgrades;\n    }\n\n    function isDelegated(uint256 _location, address _player)\n        public\n        view\n        returns (bool)\n    {\n        return\n            DarkForestUtils.isDelegated(\n                planetsExtendedInfo,\n                _location,\n                _player\n            );\n    }\n\n    // private utilities\n\n    function _locationIdValid(uint256 _loc) public pure returns (bool) {\n        return (_loc <\n            (21888242871839275222246405745257275088548364400416034343698204186575808495617 /\n                PLANET_RARITY));\n    }\n\n    // Private helpers that modify state\n    function _updateWorldRadius() private {\n        worldRadius = DarkForestUtils._getRadius(\n            initializedPlanetCountByLevel,\n            cumulativeRarities,\n            playerIds.length,\n            target4RadiusConstant,\n            target5RadiusConstant\n        );\n    }\n\n    function _initializePlanet(\n        uint256 _location,\n        uint256 _perlin,\n        bool _isHomePlanet\n    ) private {\n        require(_locationIdValid(_location), \"Not a valid planet location\");\n\n        (\n            uint256 _level,\n            DarkForestTypes.PlanetResource _resource\n        ) = DarkForestUtils._getPlanetLevelAndResource(\n            _location,\n            _perlin,\n            PERLIN_THRESHOLD_1,\n            PERLIN_THRESHOLD_2,\n            SILVER_RARITY_1,\n            SILVER_RARITY_2,\n            SILVER_RARITY_3,\n            planetLevelThresholds,\n            planetDefaultStats\n        );\n\n        if (_isHomePlanet) {\n            require(_level == 0, \"Can only initialize on planet level 0\");\n        }\n\n        DarkForestPlanet.initializePlanet(\n            planets[_location],\n            planetsExtendedInfo[_location],\n            planetDefaultStats[_level],\n            _perlin,\n            TIME_FACTOR_HUNDREDTHS,\n            PERLIN_THRESHOLD_1,\n            PERLIN_THRESHOLD_2,\n            _resource,\n            _level,\n            _location\n        );\n        planetIds.push(_location);\n        initializedPlanetCountByLevel[_level] += 1;\n    }\n\n    //////////////////////\n    /// Game Mechanics ///\n    //////////////////////\n\n    function refreshPlanet(uint256 _location)\n        public\n        onlyWhitelisted\n        notPaused\n        notEnded\n    {\n        DarkForestPlanet.refreshPlanet(\n            _location,\n            planets,\n            planetsExtendedInfo,\n            planetEvents,\n            planetArrivals\n        );\n    }\n\n    function initializePlayer(\n        uint256[2] memory _a,\n        uint256[2][2] memory _b,\n        uint256[2] memory _c,\n        uint256[3] memory _input\n    ) public onlyWhitelisted notPaused notEnded returns (uint256) {\n        if (!DISABLE_ZK_CHECK) {\n            require(\n                Verifier.verifyInitProof(_a, _b, _c, _input),\n                \"Failed init proof check\"\n            );\n        }\n\n        uint256 _location = _input[0];\n        uint256 _perlin = _input[1];\n        uint256 _radius = _input[2];\n\n        require(\n            !isPlayerInitialized[msg.sender],\n            \"Player is already initialized\"\n        );\n        require(\n            !planetsExtendedInfo[_location].isInitialized,\n            \"Planet is already initialized\"\n        );\n        require(\n            _radius <= worldRadius,\n            \"Init radius is bigger than the current world radius\"\n        );\n        require(\n            _perlin < PERLIN_THRESHOLD_1,\n            \"Init not allowed in perlin value greater than or equal to the threshold\"\n        );\n\n        // Initialize player data\n        isPlayerInitialized[msg.sender] = true;\n        playerIds.push(msg.sender);\n\n        // Initialize planet information\n        _initializePlanet(_location, _perlin, true);\n        planets[_location].owner = msg.sender;\n        planets[_location].population = 50000;\n        _updateWorldRadius();\n        emit PlayerInitialized(msg.sender, _location);\n        return _location;\n    }\n\n    function move(\n        uint256[2] memory _a,\n        uint256[2][2] memory _b,\n        uint256[2] memory _c,\n        uint256[7] memory _input\n    ) public notPaused notEnded returns (uint256) {\n        uint256 _oldLoc = _input[0];\n        uint256 _newLoc = _input[1];\n        uint256 _newPerlin = _input[2];\n        uint256 _newRadius = _input[3];\n        uint256 _maxDist = _input[4];\n        uint256 _popMoved = _input[5];\n        uint256 _silverMoved = _input[6];\n\n        if (!DISABLE_ZK_CHECK) {\n            uint256[5] memory _proofInput = [\n                _oldLoc,\n                _newLoc,\n                _newPerlin,\n                _newRadius,\n                _maxDist\n            ];\n            require(\n                Verifier.verifyMoveProof(_a, _b, _c, _proofInput),\n                \"Failed move proof check\"\n            );\n        }\n\n        // check radius\n        require(_newRadius <= worldRadius, \"Attempting to move out of bounds\");\n\n        // Only perform if the toPlanet have never initialized previously\n        if (!planetsExtendedInfo[_newLoc].isInitialized) {\n            _initializePlanet(_newLoc, _newPerlin, false);\n        } else {\n            // need to do this so people can't deny service to their own planets with gas limit\n            refreshPlanet(_newLoc);\n            require(planetEvents[_newLoc].length < 7, \"Planet is rate-limited\");\n        }\n\n        // Refresh fromPlanet first before doing any action on it\n        refreshPlanet(_oldLoc);\n        DarkForestPlanet.move(\n            _oldLoc,\n            _newLoc,\n            _maxDist,\n            _popMoved,\n            _silverMoved,\n            planetEventsCount,\n            planets,\n            planetsExtendedInfo,\n            planetEvents,\n            planetArrivals\n        );\n\n        planetEventsCount++;\n\n        _updateWorldRadius();\n        emit ArrivalQueued(planetEventsCount - 1);\n        return (planetEventsCount - 1);\n    }\n\n    function upgradePlanet(uint256 _location, uint256 _branch)\n        public\n        notPaused\n        notEnded\n        returns (uint256, uint256)\n    {\n        // _branch specifies which of the three upgrade branches player is leveling up\n        // 0 improves silver production and capacity\n        // 1 improves population\n        // 2 improves range\n        refreshPlanet(_location);\n        DarkForestPlanet.upgradePlanet(\n            _location,\n            _branch,\n            planets,\n            planetsExtendedInfo,\n            planetDefaultStats,\n            upgrades\n        );\n        emit PlanetUpgraded(_location);\n        return (_location, _branch);\n    }\n\n    function delegatePlanet(uint256 _location, address _player)\n        public\n        notPaused\n        notEnded\n    {\n        require(\n            planetsExtendedInfo[_location].isInitialized == true,\n            \"Planet is not initialized\"\n        );\n        refreshPlanet(_location);\n        require(\n            planets[_location].owner == msg.sender,\n            \"Only owner can delegate planet\"\n        );\n        require(!isDelegated(_location, _player), \"Planet already delegated\");\n        planetsExtendedInfo[_location].delegatedPlayers.push(_player);\n\n        emit PlanetDelegated(_location, _player);\n    }\n\n    function undelegatePlanet(uint256 _location, address _player)\n        public\n        notPaused\n        notEnded\n    {\n        require(\n            planetsExtendedInfo[_location].isInitialized == true,\n            \"Planet is not initialized\"\n        );\n        refreshPlanet(_location);\n        require(\n            planets[_location].owner == msg.sender,\n            \"Only owner can delegate planet\"\n        );\n\n        require(isDelegated(_location, _player), \"Planet is not delegated\");\n\n        for (\n            uint256 i = 0;\n            i < planetsExtendedInfo[_location].delegatedPlayers.length;\n            i++\n        ) {\n            if (_player == planetsExtendedInfo[_location].delegatedPlayers[i]) {\n                planetsExtendedInfo[_location]\n                    .delegatedPlayers[i] = planetsExtendedInfo[_location]\n                    .delegatedPlayers[planetsExtendedInfo[_location]\n                    .delegatedPlayers\n                    .length - 1];\n\n                planetsExtendedInfo[_location].delegatedPlayers.pop();\n                emit PlanetUndelegated(_location, _player);\n            }\n        }\n    }\n\n    function buyHat(uint256 _location) public payable {\n        require(\n            planetsExtendedInfo[_location].isInitialized == true,\n            \"Planet is not initialized\"\n        );\n\n        refreshPlanet(_location);\n\n        require(\n            planets[_location].owner == msg.sender,\n            \"Only owner can buy hat for planet\"\n        );\n\n        uint256 cost = (1 << planetsExtendedInfo[_location].hatLevel) * 1 ether;\n\n        require(msg.value >= cost, \"Insufficient value sent\");\n\n        planetsExtendedInfo[_location].hatLevel += 1;\n        emit BoughtHat(_location);\n    }\n}\n",
  "sourcePath": "contracts/DarkForestCore.sol",
  "abi": [
    {
      "anonymous": false,
      "inputs": [
        {
          "indexed": false,
          "internalType": "uint256",
          "name": "arrivalId",
          "type": "uint256"
        }
      ],
      "name": "ArrivalQueued",
      "type": "event"
    },
    {
      "anonymous": false,
      "inputs": [
        {
          "indexed": false,
          "internalType": "uint256",
          "name": "loc",
          "type": "uint256"
        }
      ],
      "name": "BoughtHat",
      "type": "event"
    },
    {
      "anonymous": false,
      "inputs": [
        {
          "indexed": false,
          "internalType": "uint256",
          "name": "loc",
          "type": "uint256"
        },
        {
          "indexed": false,
          "internalType": "address",
          "name": "player",
          "type": "address"
        }
      ],
      "name": "PlanetDelegated",
      "type": "event"
    },
    {
      "anonymous": false,
      "inputs": [
        {
          "indexed": false,
          "internalType": "uint256",
          "name": "loc",
          "type": "uint256"
        },
        {
          "indexed": false,
          "internalType": "address",
          "name": "player",
          "type": "address"
        }
      ],
      "name": "PlanetUndelegated",
      "type": "event"
    },
    {
      "anonymous": false,
      "inputs": [
        {
          "indexed": false,
          "internalType": "uint256",
          "name": "loc",
          "type": "uint256"
        }
      ],
      "name": "PlanetUpgraded",
      "type": "event"
    },
    {
      "anonymous": false,
      "inputs": [
        {
          "indexed": false,
          "internalType": "address",
          "name": "player",
          "type": "address"
        },
        {
          "indexed": false,
          "internalType": "uint256",
          "name": "loc",
          "type": "uint256"
        }
      ],
      "name": "PlayerInitialized",
      "type": "event"
    },
    {
      "inputs": [],
      "name": "DISABLE_ZK_CHECK",
      "outputs": [
        {
          "internalType": "bool",
          "name": "",
          "type": "bool"
        }
      ],
      "stateMutability": "view",
      "type": "function"
    },
    {
      "inputs": [],
      "name": "PERLIN_THRESHOLD_1",
      "outputs": [
        {
          "internalType": "uint256",
          "name": "",
          "type": "uint256"
        }
      ],
      "stateMutability": "view",
      "type": "function"
    },
    {
      "inputs": [],
      "name": "PERLIN_THRESHOLD_2",
      "outputs": [
        {
          "internalType": "uint256",
          "name": "",
          "type": "uint256"
        }
      ],
      "stateMutability": "view",
      "type": "function"
    },
    {
      "inputs": [],
      "name": "PLANET_RARITY",
      "outputs": [
        {
          "internalType": "uint256",
          "name": "",
          "type": "uint256"
        }
      ],
      "stateMutability": "view",
      "type": "function"
    },
    {
      "inputs": [],
      "name": "SILVER_RARITY_1",
      "outputs": [
        {
          "internalType": "uint256",
          "name": "",
          "type": "uint256"
        }
      ],
      "stateMutability": "view",
      "type": "function"
    },
    {
      "inputs": [],
      "name": "SILVER_RARITY_2",
      "outputs": [
        {
          "internalType": "uint256",
          "name": "",
          "type": "uint256"
        }
      ],
      "stateMutability": "view",
      "type": "function"
    },
    {
      "inputs": [],
      "name": "SILVER_RARITY_3",
      "outputs": [
        {
          "internalType": "uint256",
          "name": "",
          "type": "uint256"
        }
      ],
      "stateMutability": "view",
      "type": "function"
    },
    {
      "inputs": [],
      "name": "TIME_FACTOR_HUNDREDTHS",
      "outputs": [
        {
          "internalType": "uint256",
          "name": "",
          "type": "uint256"
        }
      ],
      "stateMutability": "view",
      "type": "function"
    },
    {
      "inputs": [
        {
          "internalType": "uint256",
          "name": "_loc",
          "type": "uint256"
        }
      ],
      "name": "_locationIdValid",
      "outputs": [
        {
          "internalType": "bool",
          "name": "",
          "type": "bool"
        }
      ],
      "stateMutability": "pure",
      "type": "function"
    },
    {
      "inputs": [],
      "name": "adminAddress",
      "outputs": [
        {
          "internalType": "address",
          "name": "",
          "type": "address"
        }
      ],
      "stateMutability": "view",
      "type": "function"
    },
    {
      "inputs": [
        {
          "internalType": "uint256",
          "name": "startIdx",
          "type": "uint256"
        },
        {
          "internalType": "uint256",
          "name": "endIdx",
          "type": "uint256"
        }
      ],
      "name": "bulkGetPlanetArrivals",
      "outputs": [
        {
          "components": [
            {
              "internalType": "uint256",
              "name": "id",
              "type": "uint256"
            },
            {
              "internalType": "address",
              "name": "player",
              "type": "address"
            },
            {
              "internalType": "uint256",
              "name": "fromPlanet",
              "type": "uint256"
            },
            {
              "internalType": "uint256",
              "name": "toPlanet",
              "type": "uint256"
            },
            {
              "internalType": "uint256",
              "name": "popArriving",
              "type": "uint256"
            },
            {
              "internalType": "uint256",
              "name": "silverMoved",
              "type": "uint256"
            },
            {
              "internalType": "uint256",
              "name": "departureTime",
              "type": "uint256"
            },
            {
              "internalType": "uint256",
              "name": "arrivalTime",
              "type": "uint256"
            }
          ],
          "internalType": "struct DarkForestTypes.ArrivalData[][]",
          "name": "",
          "type": "tuple[][]"
        }
      ],
      "stateMutability": "view",
      "type": "function"
    },
    {
      "inputs": [
        {
          "internalType": "uint256[]",
          "name": "ids",
          "type": "uint256[]"
        }
      ],
      "name": "bulkGetPlanetArrivalsByIds",
      "outputs": [
        {
          "components": [
            {
              "internalType": "uint256",
              "name": "id",
              "type": "uint256"
            },
            {
              "internalType": "address",
              "name": "player",
              "type": "address"
            },
            {
              "internalType": "uint256",
              "name": "fromPlanet",
              "type": "uint256"
            },
            {
              "internalType": "uint256",
              "name": "toPlanet",
              "type": "uint256"
            },
            {
              "internalType": "uint256",
              "name": "popArriving",
              "type": "uint256"
            },
            {
              "internalType": "uint256",
              "name": "silverMoved",
              "type": "uint256"
            },
            {
              "internalType": "uint256",
              "name": "departureTime",
              "type": "uint256"
            },
            {
              "internalType": "uint256",
              "name": "arrivalTime",
              "type": "uint256"
            }
          ],
          "internalType": "struct DarkForestTypes.ArrivalData[][]",
          "name": "",
          "type": "tuple[][]"
        }
      ],
      "stateMutability": "view",
      "type": "function"
    },
    {
      "inputs": [
        {
          "internalType": "uint256",
          "name": "startIdx",
          "type": "uint256"
        },
        {
          "internalType": "uint256",
          "name": "endIdx",
          "type": "uint256"
        }
      ],
      "name": "bulkGetPlanetIds",
      "outputs": [
        {
          "internalType": "uint256[]",
          "name": "ret",
          "type": "uint256[]"
        }
      ],
      "stateMutability": "view",
      "type": "function"
    },
    {
      "inputs": [
        {
          "internalType": "uint256",
          "name": "startIdx",
          "type": "uint256"
        },
        {
          "internalType": "uint256",
          "name": "endIdx",
          "type": "uint256"
        }
      ],
      "name": "bulkGetPlanets",
      "outputs": [
        {
          "components": [
            {
              "internalType": "address",
              "name": "owner",
              "type": "address"
            },
            {
              "internalType": "uint256",
              "name": "range",
              "type": "uint256"
            },
            {
              "internalType": "uint256",
              "name": "speed",
              "type": "uint256"
            },
            {
              "internalType": "uint256",
              "name": "defense",
              "type": "uint256"
            },
            {
              "internalType": "uint256",
              "name": "population",
              "type": "uint256"
            },
            {
              "internalType": "uint256",
              "name": "populationCap",
              "type": "uint256"
            },
            {
              "internalType": "uint256",
              "name": "populationGrowth",
              "type": "uint256"
            },
            {
              "internalType": "enum DarkForestTypes.PlanetResource",
              "name": "planetResource",
              "type": "uint8"
            },
            {
              "internalType": "uint256",
              "name": "silverCap",
              "type": "uint256"
            },
            {
              "internalType": "uint256",
              "name": "silverGrowth",
              "type": "uint256"
            },
            {
              "internalType": "uint256",
              "name": "silver",
              "type": "uint256"
            },
            {
              "internalType": "uint256",
              "name": "planetLevel",
              "type": "uint256"
            }
          ],
          "internalType": "struct DarkForestTypes.Planet[]",
          "name": "ret",
          "type": "tuple[]"
        }
      ],
      "stateMutability": "view",
      "type": "function"
    },
    {
      "inputs": [
        {
          "internalType": "uint256[]",
          "name": "ids",
          "type": "uint256[]"
        }
      ],
      "name": "bulkGetPlanetsByIds",
      "outputs": [
        {
          "components": [
            {
              "internalType": "address",
              "name": "owner",
              "type": "address"
            },
            {
              "internalType": "uint256",
              "name": "range",
              "type": "uint256"
            },
            {
              "internalType": "uint256",
              "name": "speed",
              "type": "uint256"
            },
            {
              "internalType": "uint256",
              "name": "defense",
              "type": "uint256"
            },
            {
              "internalType": "uint256",
              "name": "population",
              "type": "uint256"
            },
            {
              "internalType": "uint256",
              "name": "populationCap",
              "type": "uint256"
            },
            {
              "internalType": "uint256",
              "name": "populationGrowth",
              "type": "uint256"
            },
            {
              "internalType": "enum DarkForestTypes.PlanetResource",
              "name": "planetResource",
              "type": "uint8"
            },
            {
              "internalType": "uint256",
              "name": "silverCap",
              "type": "uint256"
            },
            {
              "internalType": "uint256",
              "name": "silverGrowth",
              "type": "uint256"
            },
            {
              "internalType": "uint256",
              "name": "silver",
              "type": "uint256"
            },
            {
              "internalType": "uint256",
              "name": "planetLevel",
              "type": "uint256"
            }
          ],
          "internalType": "struct DarkForestTypes.Planet[]",
          "name": "ret",
          "type": "tuple[]"
        }
      ],
      "stateMutability": "view",
      "type": "function"
    },
    {
      "inputs": [
        {
          "internalType": "uint256",
          "name": "startIdx",
          "type": "uint256"
        },
        {
          "internalType": "uint256",
          "name": "endIdx",
          "type": "uint256"
        }
      ],
      "name": "bulkGetPlanetsExtendedInfo",
      "outputs": [
        {
          "components": [
            {
              "internalType": "bool",
              "name": "isInitialized",
              "type": "bool"
            },
            {
              "internalType": "uint256",
              "name": "createdAt",
              "type": "uint256"
            },
            {
              "internalType": "uint256",
              "name": "lastUpdated",
              "type": "uint256"
            },
            {
              "internalType": "uint256",
              "name": "perlin",
              "type": "uint256"
            },
            {
              "internalType": "enum DarkForestTypes.SpaceType",
              "name": "spaceType",
              "type": "uint8"
            },
            {
              "internalType": "uint256",
              "name": "upgradeState0",
              "type": "uint256"
            },
            {
              "internalType": "uint256",
              "name": "upgradeState1",
              "type": "uint256"
            },
            {
              "internalType": "uint256",
              "name": "upgradeState2",
              "type": "uint256"
            },
            {
              "internalType": "uint256",
              "name": "hatLevel",
              "type": "uint256"
            },
            {
              "internalType": "address[]",
              "name": "delegatedPlayers",
              "type": "address[]"
            }
          ],
          "internalType": "struct DarkForestTypes.PlanetExtendedInfo[]",
          "name": "ret",
          "type": "tuple[]"
        }
      ],
      "stateMutability": "view",
      "type": "function"
    },
    {
      "inputs": [
        {
          "internalType": "uint256[]",
          "name": "ids",
          "type": "uint256[]"
        }
      ],
      "name": "bulkGetPlanetsExtendedInfoByIds",
      "outputs": [
        {
          "components": [
            {
              "internalType": "bool",
              "name": "isInitialized",
              "type": "bool"
            },
            {
              "internalType": "uint256",
              "name": "createdAt",
              "type": "uint256"
            },
            {
              "internalType": "uint256",
              "name": "lastUpdated",
              "type": "uint256"
            },
            {
              "internalType": "uint256",
              "name": "perlin",
              "type": "uint256"
            },
            {
              "internalType": "enum DarkForestTypes.SpaceType",
              "name": "spaceType",
              "type": "uint8"
            },
            {
              "internalType": "uint256",
              "name": "upgradeState0",
              "type": "uint256"
            },
            {
              "internalType": "uint256",
              "name": "upgradeState1",
              "type": "uint256"
            },
            {
              "internalType": "uint256",
              "name": "upgradeState2",
              "type": "uint256"
            },
            {
              "internalType": "uint256",
              "name": "hatLevel",
              "type": "uint256"
            },
            {
              "internalType": "address[]",
              "name": "delegatedPlayers",
              "type": "address[]"
            }
          ],
          "internalType": "struct DarkForestTypes.PlanetExtendedInfo[]",
          "name": "ret",
          "type": "tuple[]"
        }
      ],
      "stateMutability": "view",
      "type": "function"
    },
    {
      "inputs": [
        {
          "internalType": "uint256",
          "name": "startIdx",
          "type": "uint256"
        },
        {
          "internalType": "uint256",
          "name": "endIdx",
          "type": "uint256"
        }
      ],
      "name": "bulkGetPlayers",
      "outputs": [
        {
          "internalType": "address[]",
          "name": "ret",
          "type": "address[]"
        }
      ],
      "stateMutability": "view",
      "type": "function"
    },
    {
      "inputs": [
        {
          "internalType": "uint256",
          "name": "_location",
          "type": "uint256"
        }
      ],
      "name": "buyHat",
      "outputs": [],
      "stateMutability": "payable",
      "type": "function"
    },
    {
      "inputs": [
        {
          "internalType": "address",
          "name": "_newAdmin",
          "type": "address"
        }
      ],
      "name": "changeAdmin",
      "outputs": [],
      "stateMutability": "nonpayable",
      "type": "function"
    },
    {
      "inputs": [
        {
          "internalType": "uint256",
          "name": "_newGameEnd",
          "type": "uint256"
        }
      ],
      "name": "changeGameEndTime",
      "outputs": [],
      "stateMutability": "nonpayable",
      "type": "function"
    },
    {
      "inputs": [
        {
          "internalType": "uint256",
          "name": "_newConstant",
          "type": "uint256"
        }
      ],
      "name": "changeTarget4RadiusConstant",
      "outputs": [],
      "stateMutability": "nonpayable",
      "type": "function"
    },
    {
      "inputs": [
        {
          "internalType": "uint256",
          "name": "_newConstant",
          "type": "uint256"
        }
      ],
      "name": "changeTarget5RadiusConstant",
      "outputs": [],
      "stateMutability": "nonpayable",
      "type": "function"
    },
    {
      "inputs": [
        {
          "internalType": "uint256",
          "name": "",
          "type": "uint256"
        }
      ],
      "name": "cumulativeRarities",
      "outputs": [
        {
          "internalType": "uint256",
          "name": "",
          "type": "uint256"
        }
      ],
      "stateMutability": "view",
      "type": "function"
    },
    {
      "inputs": [
        {
          "internalType": "uint256",
          "name": "_location",
          "type": "uint256"
        },
        {
          "internalType": "address",
          "name": "_player",
          "type": "address"
        }
      ],
      "name": "delegatePlanet",
      "outputs": [],
      "stateMutability": "nonpayable",
      "type": "function"
    },
    {
      "inputs": [],
      "name": "getDefaultStats",
      "outputs": [
        {
          "components": [
            {
              "internalType": "string",
              "name": "label",
              "type": "string"
            },
            {
              "internalType": "uint256",
              "name": "populationCap",
              "type": "uint256"
            },
            {
              "internalType": "uint256",
              "name": "populationGrowth",
              "type": "uint256"
            },
            {
              "internalType": "uint256",
              "name": "range",
              "type": "uint256"
            },
            {
              "internalType": "uint256",
              "name": "speed",
              "type": "uint256"
            },
            {
              "internalType": "uint256",
              "name": "defense",
              "type": "uint256"
            },
            {
              "internalType": "uint256",
              "name": "silverGrowth",
              "type": "uint256"
            },
            {
              "internalType": "uint256",
              "name": "silverCap",
              "type": "uint256"
            },
            {
              "internalType": "uint256",
              "name": "barbarianPercentage",
              "type": "uint256"
            }
          ],
          "internalType": "struct DarkForestTypes.PlanetDefaultStats[]",
          "name": "",
          "type": "tuple[]"
        }
      ],
      "stateMutability": "view",
      "type": "function"
    },
    {
      "inputs": [],
      "name": "getNPlanets",
      "outputs": [
        {
          "internalType": "uint256",
          "name": "",
          "type": "uint256"
        }
      ],
      "stateMutability": "view",
      "type": "function"
    },
    {
      "inputs": [],
      "name": "getNPlayers",
      "outputs": [
        {
          "internalType": "uint256",
          "name": "",
          "type": "uint256"
        }
      ],
      "stateMutability": "view",
      "type": "function"
    },
    {
      "inputs": [
        {
          "internalType": "uint256",
          "name": "_location",
          "type": "uint256"
        }
      ],
      "name": "getPlanetArrivals",
      "outputs": [
        {
          "components": [
            {
              "internalType": "uint256",
              "name": "id",
              "type": "uint256"
            },
            {
              "internalType": "address",
              "name": "player",
              "type": "address"
            },
            {
              "internalType": "uint256",
              "name": "fromPlanet",
              "type": "uint256"
            },
            {
              "internalType": "uint256",
              "name": "toPlanet",
              "type": "uint256"
            },
            {
              "internalType": "uint256",
              "name": "popArriving",
              "type": "uint256"
            },
            {
              "internalType": "uint256",
              "name": "silverMoved",
              "type": "uint256"
            },
            {
              "internalType": "uint256",
              "name": "departureTime",
              "type": "uint256"
            },
            {
              "internalType": "uint256",
              "name": "arrivalTime",
              "type": "uint256"
            }
          ],
          "internalType": "struct DarkForestTypes.ArrivalData[]",
          "name": "ret",
          "type": "tuple[]"
        }
      ],
      "stateMutability": "view",
      "type": "function"
    },
    {
      "inputs": [],
      "name": "getPlanetCounts",
      "outputs": [
        {
          "internalType": "uint256[]",
          "name": "",
          "type": "uint256[]"
        }
      ],
      "stateMutability": "view",
      "type": "function"
    },
    {
      "inputs": [],
      "name": "getPlanetCumulativeRarities",
      "outputs": [
        {
          "internalType": "uint256[]",
          "name": "",
          "type": "uint256[]"
        }
      ],
      "stateMutability": "view",
      "type": "function"
    },
    {
      "inputs": [],
      "name": "getPlanetLevelThresholds",
      "outputs": [
        {
          "internalType": "uint256[]",
          "name": "",
          "type": "uint256[]"
        }
      ],
      "stateMutability": "view",
      "type": "function"
    },
    {
      "inputs": [],
      "name": "getUpgrades",
      "outputs": [
        {
          "components": [
            {
              "internalType": "uint256",
              "name": "popCapMultiplier",
              "type": "uint256"
            },
            {
              "internalType": "uint256",
              "name": "popGroMultiplier",
              "type": "uint256"
            },
            {
              "internalType": "uint256",
              "name": "rangeMultiplier",
              "type": "uint256"
            },
            {
              "internalType": "uint256",
              "name": "speedMultiplier",
              "type": "uint256"
            },
            {
              "internalType": "uint256",
              "name": "defMultiplier",
              "type": "uint256"
            }
          ],
          "internalType": "struct DarkForestTypes.Upgrade[4][3]",
          "name": "",
          "type": "tuple[4][3]"
        }
      ],
      "stateMutability": "view",
      "type": "function"
    },
    {
      "inputs": [
        {
          "internalType": "address",
          "name": "_adminAddress",
          "type": "address"
        },
        {
          "internalType": "address payable",
          "name": "_whitelistAddress",
          "type": "address"
        },
        {
          "internalType": "bool",
          "name": "_disableZKCheck",
          "type": "bool"
        }
      ],
      "name": "initialize",
      "outputs": [],
      "stateMutability": "nonpayable",
      "type": "function"
    },
    {
      "inputs": [
        {
          "internalType": "uint256[2]",
          "name": "_a",
          "type": "uint256[2]"
        },
        {
          "internalType": "uint256[2][2]",
          "name": "_b",
          "type": "uint256[2][2]"
        },
        {
          "internalType": "uint256[2]",
          "name": "_c",
          "type": "uint256[2]"
        },
        {
          "internalType": "uint256[3]",
          "name": "_input",
          "type": "uint256[3]"
        }
      ],
      "name": "initializePlayer",
      "outputs": [
        {
          "internalType": "uint256",
          "name": "",
          "type": "uint256"
        }
      ],
      "stateMutability": "nonpayable",
      "type": "function"
    },
    {
      "inputs": [
        {
          "internalType": "uint256",
          "name": "",
          "type": "uint256"
        }
      ],
      "name": "initializedPlanetCountByLevel",
      "outputs": [
        {
          "internalType": "uint256",
          "name": "",
          "type": "uint256"
        }
      ],
      "stateMutability": "view",
      "type": "function"
    },
    {
      "inputs": [
        {
          "internalType": "uint256",
          "name": "_location",
          "type": "uint256"
        },
        {
          "internalType": "address",
          "name": "_player",
          "type": "address"
        }
      ],
      "name": "isDelegated",
      "outputs": [
        {
          "internalType": "bool",
          "name": "",
          "type": "bool"
        }
      ],
      "stateMutability": "view",
      "type": "function"
    },
    {
      "inputs": [
        {
          "internalType": "address",
          "name": "",
          "type": "address"
        }
      ],
      "name": "isPlayerInitialized",
      "outputs": [
        {
          "internalType": "bool",
          "name": "",
          "type": "bool"
        }
      ],
      "stateMutability": "view",
      "type": "function"
    },
    {
      "inputs": [
        {
          "internalType": "uint256[2]",
          "name": "_a",
          "type": "uint256[2]"
        },
        {
          "internalType": "uint256[2][2]",
          "name": "_b",
          "type": "uint256[2][2]"
        },
        {
          "internalType": "uint256[2]",
          "name": "_c",
          "type": "uint256[2]"
        },
        {
          "internalType": "uint256[7]",
          "name": "_input",
          "type": "uint256[7]"
        }
      ],
      "name": "move",
      "outputs": [
        {
          "internalType": "uint256",
          "name": "",
          "type": "uint256"
        }
      ],
      "stateMutability": "nonpayable",
      "type": "function"
    },
    {
      "inputs": [],
      "name": "pause",
      "outputs": [],
      "stateMutability": "nonpayable",
      "type": "function"
    },
    {
      "inputs": [],
      "name": "paused",
      "outputs": [
        {
          "internalType": "bool",
          "name": "",
          "type": "bool"
        }
      ],
      "stateMutability": "view",
      "type": "function"
    },
    {
      "inputs": [
        {
          "internalType": "uint256",
          "name": "",
          "type": "uint256"
        }
      ],
      "name": "planetArrivals",
      "outputs": [
        {
          "internalType": "uint256",
          "name": "id",
          "type": "uint256"
        },
        {
          "internalType": "address",
          "name": "player",
          "type": "address"
        },
        {
          "internalType": "uint256",
          "name": "fromPlanet",
          "type": "uint256"
        },
        {
          "internalType": "uint256",
          "name": "toPlanet",
          "type": "uint256"
        },
        {
          "internalType": "uint256",
          "name": "popArriving",
          "type": "uint256"
        },
        {
          "internalType": "uint256",
          "name": "silverMoved",
          "type": "uint256"
        },
        {
          "internalType": "uint256",
          "name": "departureTime",
          "type": "uint256"
        },
        {
          "internalType": "uint256",
          "name": "arrivalTime",
          "type": "uint256"
        }
      ],
      "stateMutability": "view",
      "type": "function"
    },
    {
      "inputs": [
        {
          "internalType": "uint256",
          "name": "",
          "type": "uint256"
        }
      ],
      "name": "planetDefaultStats",
      "outputs": [
        {
          "internalType": "string",
          "name": "label",
          "type": "string"
        },
        {
          "internalType": "uint256",
          "name": "populationCap",
          "type": "uint256"
        },
        {
          "internalType": "uint256",
          "name": "populationGrowth",
          "type": "uint256"
        },
        {
          "internalType": "uint256",
          "name": "range",
          "type": "uint256"
        },
        {
          "internalType": "uint256",
          "name": "speed",
          "type": "uint256"
        },
        {
          "internalType": "uint256",
          "name": "defense",
          "type": "uint256"
        },
        {
          "internalType": "uint256",
          "name": "silverGrowth",
          "type": "uint256"
        },
        {
          "internalType": "uint256",
          "name": "silverCap",
          "type": "uint256"
        },
        {
          "internalType": "uint256",
          "name": "barbarianPercentage",
          "type": "uint256"
        }
      ],
      "stateMutability": "view",
      "type": "function"
    },
    {
      "inputs": [
        {
          "internalType": "uint256",
          "name": "",
          "type": "uint256"
        },
        {
          "internalType": "uint256",
          "name": "",
          "type": "uint256"
        }
      ],
      "name": "planetEvents",
      "outputs": [
        {
          "internalType": "uint256",
          "name": "id",
          "type": "uint256"
        },
        {
          "internalType": "enum DarkForestTypes.PlanetEventType",
          "name": "eventType",
          "type": "uint8"
        },
        {
          "internalType": "uint256",
          "name": "timeTrigger",
          "type": "uint256"
        },
        {
          "internalType": "uint256",
          "name": "timeAdded",
          "type": "uint256"
        }
      ],
      "stateMutability": "view",
      "type": "function"
    },
    {
      "inputs": [],
      "name": "planetEventsCount",
      "outputs": [
        {
          "internalType": "uint256",
          "name": "",
          "type": "uint256"
        }
      ],
      "stateMutability": "view",
      "type": "function"
    },
    {
      "inputs": [
        {
          "internalType": "uint256",
          "name": "",
          "type": "uint256"
        }
      ],
      "name": "planetIds",
      "outputs": [
        {
          "internalType": "uint256",
          "name": "",
          "type": "uint256"
        }
      ],
      "stateMutability": "view",
      "type": "function"
    },
    {
      "inputs": [
        {
          "internalType": "uint256",
          "name": "",
          "type": "uint256"
        }
      ],
      "name": "planetLevelThresholds",
      "outputs": [
        {
          "internalType": "uint256",
          "name": "",
          "type": "uint256"
        }
      ],
      "stateMutability": "view",
      "type": "function"
    },
    {
      "inputs": [
        {
          "internalType": "uint256",
          "name": "",
          "type": "uint256"
        }
      ],
      "name": "planets",
      "outputs": [
        {
          "internalType": "address",
          "name": "owner",
          "type": "address"
        },
        {
          "internalType": "uint256",
          "name": "range",
          "type": "uint256"
        },
        {
          "internalType": "uint256",
          "name": "speed",
          "type": "uint256"
        },
        {
          "internalType": "uint256",
          "name": "defense",
          "type": "uint256"
        },
        {
          "internalType": "uint256",
          "name": "population",
          "type": "uint256"
        },
        {
          "internalType": "uint256",
          "name": "populationCap",
          "type": "uint256"
        },
        {
          "internalType": "uint256",
          "name": "populationGrowth",
          "type": "uint256"
        },
        {
          "internalType": "enum DarkForestTypes.PlanetResource",
          "name": "planetResource",
          "type": "uint8"
        },
        {
          "internalType": "uint256",
          "name": "silverCap",
          "type": "uint256"
        },
        {
          "internalType": "uint256",
          "name": "silverGrowth",
          "type": "uint256"
        },
        {
          "internalType": "uint256",
          "name": "silver",
          "type": "uint256"
        },
        {
          "internalType": "uint256",
          "name": "planetLevel",
          "type": "uint256"
        }
      ],
      "stateMutability": "view",
      "type": "function"
    },
    {
      "inputs": [
        {
          "internalType": "uint256",
          "name": "",
          "type": "uint256"
        }
      ],
      "name": "planetsExtendedInfo",
      "outputs": [
        {
          "internalType": "bool",
          "name": "isInitialized",
          "type": "bool"
        },
        {
          "internalType": "uint256",
          "name": "createdAt",
          "type": "uint256"
        },
        {
          "internalType": "uint256",
          "name": "lastUpdated",
          "type": "uint256"
        },
        {
          "internalType": "uint256",
          "name": "perlin",
          "type": "uint256"
        },
        {
          "internalType": "enum DarkForestTypes.SpaceType",
          "name": "spaceType",
          "type": "uint8"
        },
        {
          "internalType": "uint256",
          "name": "upgradeState0",
          "type": "uint256"
        },
        {
          "internalType": "uint256",
          "name": "upgradeState1",
          "type": "uint256"
        },
        {
          "internalType": "uint256",
          "name": "upgradeState2",
          "type": "uint256"
        },
        {
          "internalType": "uint256",
          "name": "hatLevel",
          "type": "uint256"
        }
      ],
      "stateMutability": "view",
      "type": "function"
    },
    {
      "inputs": [
        {
          "internalType": "uint256",
          "name": "",
          "type": "uint256"
        }
      ],
      "name": "playerIds",
      "outputs": [
        {
          "internalType": "address",
          "name": "",
          "type": "address"
        }
      ],
      "stateMutability": "view",
      "type": "function"
    },
    {
      "inputs": [
        {
          "internalType": "uint256",
          "name": "_location",
          "type": "uint256"
        }
      ],
      "name": "refreshPlanet",
      "outputs": [],
      "stateMutability": "nonpayable",
      "type": "function"
    },
    {
      "inputs": [
        {
          "internalType": "uint256",
          "name": "_location",
          "type": "uint256"
        },
        {
          "internalType": "address",
          "name": "_player",
          "type": "address"
        }
      ],
      "name": "undelegatePlanet",
      "outputs": [],
      "stateMutability": "nonpayable",
      "type": "function"
    },
    {
      "inputs": [],
      "name": "unpause",
      "outputs": [],
      "stateMutability": "nonpayable",
      "type": "function"
    },
    {
      "inputs": [
        {
          "internalType": "uint256",
          "name": "_location",
          "type": "uint256"
        },
        {
          "internalType": "uint256",
          "name": "_branch",
          "type": "uint256"
        }
      ],
      "name": "upgradePlanet",
      "outputs": [
        {
          "internalType": "uint256",
          "name": "",
          "type": "uint256"
        },
        {
          "internalType": "uint256",
          "name": "",
          "type": "uint256"
        }
      ],
      "stateMutability": "nonpayable",
      "type": "function"
    },
    {
      "inputs": [
        {
          "internalType": "uint256",
          "name": "",
          "type": "uint256"
        },
        {
          "internalType": "uint256",
          "name": "",
          "type": "uint256"
        }
      ],
      "name": "upgrades",
      "outputs": [
        {
          "internalType": "uint256",
          "name": "popCapMultiplier",
          "type": "uint256"
        },
        {
          "internalType": "uint256",
          "name": "popGroMultiplier",
          "type": "uint256"
        },
        {
          "internalType": "uint256",
          "name": "rangeMultiplier",
          "type": "uint256"
        },
        {
          "internalType": "uint256",
          "name": "speedMultiplier",
          "type": "uint256"
        },
        {
          "internalType": "uint256",
          "name": "defMultiplier",
          "type": "uint256"
        }
      ],
      "stateMutability": "view",
      "type": "function"
    },
    {
      "inputs": [],
      "name": "withdraw",
      "outputs": [],
      "stateMutability": "nonpayable",
      "type": "function"
    },
    {
      "inputs": [],
      "name": "worldRadius",
      "outputs": [
        {
          "internalType": "uint256",
          "name": "",
          "type": "uint256"
        }
      ],
      "stateMutability": "view",
      "type": "function"
    }
  ],
  "bytecode": "0x608060405234801561001057600080fd5b5061465e806100206000396000f3fe6080604052600436106103765760003560e01c806378d1742b116101d1578063ae3f861911610102578063ccf738e9116100a0578063e4bbb5a81161006f578063e4bbb5a814610a47578063f6e46b6014610a67578063fc6f946814610a7c578063fe80bb1214610a9157610376565b8063ccf738e9146109b0578063d6127ab4146109e5578063dacb613514610a05578063de2edb9114610a3257610376565b8063c012b112116100dc578063c012b1121461091d578063c68b81261461094a578063c8d503ea1461095f578063c93594911461097f57610376565b8063ae3f8619146108be578063b5549e64146108d3578063bb4908f21461090857610376565b80639184f0b61161016f5780639fd4d4d4116101495780639fd4d4d41461083b578063aaca42e91461084e578063ab2303211461086e578063ad4890911461089e57610376565b80639184f0b6146107ce578063975de613146107ee57806398f94a8e1461081b57610376565b80638456cb59116101ab5780638456cb591461076f5780638a05b329146107845780638af9d562146107995780638f283970146107ae57610376565b806378d1742b1461071a57806378d4ce951461072f5780638151e1d21461074f57610376565b80633f324cf3116102ab578063695bd00c1161024957806373a853811161022357806373a853811461068357806374b99106146106b157806376af38b4146106c657806378622ae6146106fa57610376565b8063695bd00c1461061f5780636c7ffeec146106415780636df0a9061461066e57610376565b806340a727881161028557806340a72788146105a85780634eb0e959146105c857806352f666a7146105dd5780635c975abb1461060a57610376565b80633f324cf3146105465780633f4ba83a146105665780633f9d7c491461057b57610376565b80630af80778116103185780631f2836b7116102f25780631f2836b7146104b9578063221f7764146104d957806326c1e750146104f95780633ccfd60b1461053157610376565b80630af807781461047957806310d4abf2146104995780631e4abc3a1461045757610376565b80630767751a116103545780630767751a146103f557806308ae86141461041557806308d2e95a146104355780630ad98d411461045757610376565b8063039e4e741461037b57806304d74a391461039d57806305b86be5146103d3575b600080fd5b34801561038757600080fd5b5061039b6103963660046136b6565b610aa6565b005b3480156103a957600080fd5b506103bd6103b836600461373c565b610ade565b6040516103ca9190613b54565b60405180910390f35b3480156103df57600080fd5b506103e8610c8e565b6040516103ca9190613d95565b34801561040157600080fd5b5061039b6104103660046136b6565b610ce6565b34801561042157600080fd5b5061039b6104303660046136e6565b610d15565b34801561044157600080fd5b5061044a610f56565b6040516103ca9190613a98565b34801561046357600080fd5b5061046c6110ee565b6040516103ca9190613a7c565b34801561048557600080fd5b5061046c610494366004613599565b6110f3565b3480156104a557600080fd5b5061046c6104b43660046136b6565b6113ba565b3480156104c557600080fd5b5061046c6104d43660046136b6565b6113d8565b3480156104e557600080fd5b5061046c6104f43660046136b6565b6113e5565b34801561050557600080fd5b506105196105143660046136b6565b6113f2565b6040516103ca9c9b9a99989796959493929190613915565b34801561053d57600080fd5b5061039b61145f565b34801561055257600080fd5b5061039b6105613660046136b6565b6114b9565b34801561057257600080fd5b5061039b611616565b34801561058757600080fd5b5061059b61059636600461362b565b611678565b6040516103ca919061399d565b3480156105b457600080fd5b5061059b6105c336600461373c565b611716565b3480156105d457600080fd5b5061046c6117b4565b3480156105e957600080fd5b506105fd6105f83660046136e6565b6117ba565b6040516103ca9190613dfc565b34801561061657600080fd5b506105fd611850565b34801561062b57600080fd5b50610634611860565b6040516103ca91906139fd565b34801561064d57600080fd5b5061066161065c36600461373c565b611910565b6040516103ca919061398a565b34801561067a57600080fd5b5061046c6119bb565b34801561068f57600080fd5b506106a361069e36600461373c565b6119c0565b6040516103ca929190614524565b3480156106bd57600080fd5b5061046c611acd565b3480156106d257600080fd5b506106e66106e13660046136b6565b611ad2565b6040516103ca9897969594939291906144b9565b34801561070657600080fd5b506103bd61071536600461362b565b611b1f565b34801561072657600080fd5b506103e8611cc0565b34801561073b57600080fd5b5061046c61074a3660046134f9565b611d16565b34801561075b57600080fd5b5061039b61076a3660046136b6565b612047565b34801561077b57600080fd5b5061039b612076565b34801561079057600080fd5b5061046c6120df565b3480156107a557600080fd5b506105fd6120e5565b3480156107ba57600080fd5b5061039b6107c9366004613493565b6120f5565b3480156107da57600080fd5b506105fd6107e9366004613493565b612167565b3480156107fa57600080fd5b5061080e61080936600461373c565b61217c565b6040516103ca9190613c1d565b34801561082757600080fd5b5061080e61083636600461362b565b6122f5565b61039b6108493660046136b6565b612466565b34801561085a57600080fd5b506103e861086936600461373c565b612569565b34801561087a57600080fd5b5061088e61088936600461373c565b6125f4565b6040516103ca94939291906144f8565b3480156108aa57600080fd5b5061046c6108b93660046136b6565b61263a565b3480156108ca57600080fd5b506103e8612647565b3480156108df57600080fd5b506108f36108ee3660046136b6565b61269d565b6040516103ca99989796959493929190613e7c565b34801561091457600080fd5b5061046c61277d565b34801561092957600080fd5b5061093d6109383660046136b6565b612783565b6040516103ca91906138e8565b34801561095657600080fd5b5061046c6127aa565b34801561096b57600080fd5b506105fd61097a3660046136b6565b6127b0565b34801561098b57600080fd5b5061099f61099a36600461373c565b6127d3565b6040516103ca959493929190613dd9565b3480156109bc57600080fd5b506109d06109cb3660046136b6565b612815565b6040516103ca99989796959493929190613e07565b3480156109f157600080fd5b5061039b610a003660046136e6565b612866565b348015610a1157600080fd5b50610a25610a203660046136b6565b6129b7565b6040516103ca9190613a85565b348015610a3e57600080fd5b5061046c612b9d565b348015610a5357600080fd5b5061039b610a623660046134af565b612ba3565b348015610a7357600080fd5b5061046c612e5e565b348015610a8857600080fd5b5061093d612e63565b348015610a9d57600080fd5b5061046c612e72565b6033546001600160a01b03163314610ad95760405162461bcd60e51b8152600401610ad090613f90565b60405180910390fd5b607755565b606082820367ffffffffffffffff81118015610af957600080fd5b50604051908082528060200260200182016040528015610b3357816020015b610b20613119565b815260200190600190039081610b185790505b509050825b82811015610c8757607d600060788381548110610b5157fe5b90600052602060002001548152602001908152602001600020604051806101400160405290816000820160009054906101000a900460ff161515151581526020016001820154815260200160028201548152602001600382015481526020016004820160009054906101000a900460ff166002811115610bcd57fe5b6002811115610bd857fe5b81526020016005820154815260200160068201548152602001600782015481526020016008820154815260200160098201805480602002602001604051908101604052809291908181526020018280548015610c5d57602002820191906000526020600020905b81546001600160a01b03168152600190910190602001808311610c3f575b5050505050815250508285830381518110610c7457fe5b6020908102919091010152600101610b38565b5092915050565b60606035805480602002602001604051908101604052809291908181526020018280548015610cdc57602002820191906000526020600020905b815481526020019060010190808311610cc8575b5050505050905090565b6033546001600160a01b03163314610d105760405162461bcd60e51b8152600401610ad090613f90565b607655565b603454600160a01b900460ff1615610d3f5760405162461bcd60e51b8152600401610ad0906142dc565b6075544210610d605760405162461bcd60e51b8152600401610ad090613ed0565b6000828152607d602052604090205460ff161515600114610d935760405162461bcd60e51b8152600401610ad090613f59565b610d9c826114b9565b6000828152607c60205260409020546001600160a01b03163314610dd25760405162461bcd60e51b8152600401610ad090614076565b610ddc82826117ba565b610df85760405162461bcd60e51b8152600401610ad09061433b565b60005b6000838152607d6020526040902060090154811015610f51576000838152607d60205260409020600901805482908110610e3157fe5b6000918252602090912001546001600160a01b0383811691161415610f49576000838152607d6020526040902060090180546000198101908110610e7157fe5b6000918252602080832090910154858352607d909152604090912060090180546001600160a01b039092169183908110610ea757fe5b600091825260208083209190910180546001600160a01b0319166001600160a01b039490941693909317909255848152607d90915260409020600901805480610eec57fe5b600082815260209020810160001990810180546001600160a01b03191690550190556040517f28c5d715b75d0b08d684e1ae26b95d8ff180d05ae50321619ee116e9b88164ed90610f4090859085906144a2565b60405180910390a15b600101610dfb565b505050565b603554606090819067ffffffffffffffff81118015610f7457600080fd5b50604051908082528060200260200182016040528015610fae57816020015b610f9b613179565b815260200190600190039081610f935790505b50905060005b6035548110156110e85760388181548110610fcb57fe5b600091825260209182902060408051600993909302909101805460026001821615610100026000190190911604601f810185900490940283016101409081019092526101208301848152929390928492909184918401828280156110705780601f1061104557610100808354040283529160200191611070565b820191906000526020600020905b81548152906001019060200180831161105357829003601f168201915b50505050508152602001600182015481526020016002820154815260200160038201548152602001600482015481526020016005820154815260200160068201548152602001600782015481526020016008820154815250508282815181106110d557fe5b6020908102919091010152600101610fb4565b50905090565b600881565b603454600090600160a01b900460ff16156111205760405162461bcd60e51b8152600401610ad0906142dc565b60755442106111415760405162461bcd60e51b8152600401610ad090613ed0565b8151602083015160408401516060850151608086015160a087015160c0880151603454600160a81b900460ff1661124e5761117a6131c5565b6040518060a0016040528089815260200188815260200187815260200186815260200185815250905073__Verifier______________________________63275abc628e8e8e856040518563ffffffff1660e01b81526004016111e09493929190613d44565b60206040518083038186803b1580156111f857600080fd5b505af415801561120c573d6000803e3d6000fd5b505050506040513d601f19601f82011682018060405250810190611230919061369a565b61124c5760405162461bcd60e51b8152600401610ad090614220565b505b607a548411156112705760405162461bcd60e51b8152600401610ad0906143e0565b6000868152607d602052604090205460ff166112975761129286866000612e77565b6112ce565b6112a0866114b9565b6000868152607f60205260409020546007116112ce5760405162461bcd60e51b8152600401610ad090613f29565b6112d7876114b9565b607b546040516306e5297d60e31b815273__DarkForestPlanet______________________916337294be891611325918b918b91899189918991607c90607d90607f9060809060040161455a565b60006040518083038186803b15801561133d57600080fd5b505af4158015611351573d6000803e3d6000fd5b5050607b80546001019055506113679050613077565b7f73589d8f04c4286010ba8cbf687f804de4f668cb96b2d8c73f310ceb90a48fc06001607b540360405161139b9190613a7c565b60405180910390a15050607b54600019019a9950505050505050505050565b603681815481106113c757fe5b600091825260209091200154905081565b603781815481106113c757fe5b603581815481106113c757fe5b607c60205260009081526040902080546001820154600283015460038401546004850154600586015460068701546007880154600889015460098a0154600a8b0154600b909b01546001600160a01b03909a169a98999798969795969495939460ff90931693919290918c565b6033546001600160a01b031633146114895760405162461bcd60e51b8152600401610ad090613f90565b6040513390303180156108fc02916000818181858888f193505050501580156114b6573d6000803e3d6000fd5b50565b603454604051633af32abf60e01b81526001600160a01b0390911690633af32abf906114e99033906004016138e8565b60206040518083038186803b15801561150157600080fd5b505afa158015611515573d6000803e3d6000fd5b505050506040513d601f19601f82011682018060405250810190611539919061369a565b6115555760405162461bcd60e51b8152600401610ad0906140ad565b603454600160a01b900460ff161561157f5760405162461bcd60e51b8152600401610ad0906142dc565b60755442106115a05760405162461bcd60e51b8152600401610ad090613ed0565b60405163180287b760e01b815273__DarkForestPlanet______________________9063180287b7906115e3908490607c90607d90607f90608090600401613dd9565b60006040518083038186803b1580156115fb57600080fd5b505af415801561160f573d6000803e3d6000fd5b5050505050565b6033546001600160a01b031633146116405760405162461bcd60e51b8152600401610ad090613f90565b603454600160a01b900460ff166116695760405162461bcd60e51b8152600401610ad0906143a9565b6034805460ff60a01b19169055565b6060808267ffffffffffffffff8111801561169257600080fd5b506040519080825280602002602001820160405280156116c657816020015b60608152602001906001900390816116b15790505b50905060005b8381101561170e576116ef8585838181106116e357fe5b905060200201356129b7565b8282815181106116fb57fe5b60209081029190910101526001016116cc565b509392505050565b60608083830367ffffffffffffffff8111801561173257600080fd5b5060405190808252806020026020018201604052801561176657816020015b60608152602001906001900390816117515790505b509050835b8381101561170e576117936078828154811061178357fe5b90600052602060002001546129b7565b82868303815181106117a157fe5b602090810291909101015260010161176b565b607a5481565b604051631f57103160e21b815260009073__DarkForestUtils_______________________90637d5c40c4906117f990607d9087908790600401613e5d565b60206040518083038186803b15801561181157600080fd5b505af4158015611825573d6000803e3d6000fd5b505050506040513d601f19601f82011682018060405250810190611849919061369a565b9392505050565b603454600160a01b900460ff1681565b6118686131e3565b6040805160608101909152603960036000835b8282101561190757604080516080810190915260148302850160046000835b828210156118f4578382600502016040518060a0016040529081600082015481526020016001820154815260200160028201548152602001600382015481526020016004820154815250508152602001906001019061189a565b505050508152602001906001019061187b565b50505050905090565b606082820367ffffffffffffffff8111801561192b57600080fd5b50604051908082528060200260200182016040528015611955578160200160208202803683370190505b509050825b82811015610c87576079818154811061196f57fe5b9060005260206000200160009054906101000a90046001600160a01b0316828583038151811061199b57fe5b6001600160a01b039092166020928302919091019091015260010161195a565b601181565b6034546000908190600160a01b900460ff16156119ef5760405162461bcd60e51b8152600401610ad0906142dc565b6075544210611a105760405162461bcd60e51b8152600401610ad090613ed0565b611a19846114b9565b604051633097022560e21b815273__DarkForestPlanet______________________9063c25c089490611a5e9087908790607c90607d90603890603990600401614532565b60006040518083038186803b158015611a7657600080fd5b505af4158015611a8a573d6000803e3d6000fd5b505050507f1c3559377dd1e586346f593aa9785e8eea8298f2d2ce1c2ef50428563d8ba84c84604051611abd9190613a7c565b60405180910390a1509192909150565b600481565b6080602052600090815260409020805460018201546002830154600384015460048501546005860154600687015460079097015495966001600160a01b0390951695939492939192909188565b60608167ffffffffffffffff81118015611b3857600080fd5b50604051908082528060200260200182016040528015611b7257816020015b611b5f613119565b815260200190600190039081611b575790505b50905060005b82811015610c8757607d6000858584818110611b9057fe5b905060200201358152602001908152602001600020604051806101400160405290816000820160009054906101000a900460ff161515151581526020016001820154815260200160028201548152602001600382015481526020016004820160009054906101000a900460ff166002811115611c0857fe5b6002811115611c1357fe5b81526020016005820154815260200160068201548152602001600782015481526020016008820154815260200160098201805480602002602001604051908101604052809291908181526020018280548015611c9857602002820191906000526020600020905b81546001600160a01b03168152600190910190602001808311611c7a575b505050505081525050828281518110611cad57fe5b6020908102919091010152600101611b78565b60606036805480602002602001604051908101604052809291908181526020018280548015610cdc5760200282019190600052602060002090815481526020019060010190808311610cc8575050505050905090565b603454604051633af32abf60e01b81526000916001600160a01b031690633af32abf90611d479033906004016138e8565b60206040518083038186803b158015611d5f57600080fd5b505afa158015611d73573d6000803e3d6000fd5b505050506040513d601f19601f82011682018060405250810190611d97919061369a565b611db35760405162461bcd60e51b8152600401610ad0906140ad565b603454600160a01b900460ff1615611ddd5760405162461bcd60e51b8152600401610ad0906142dc565b6075544210611dfe5760405162461bcd60e51b8152600401610ad090613ed0565b603454600160a81b900460ff16611eb8576040516323bfe25560e21b815273__Verifier______________________________90638eff895490611e4c908890889088908890600401613ce7565b60206040518083038186803b158015611e6457600080fd5b505af4158015611e78573d6000803e3d6000fd5b505050506040513d601f19601f82011682018060405250810190611e9c919061369a565b611eb85760405162461bcd60e51b8152600401610ad09061403f565b8151602080840151604080860151336000908152607e90945292205490919060ff1615611ef75760405162461bcd60e51b8152600401610ad090613fc7565b6000838152607d602052604090205460ff1615611f265760405162461bcd60e51b8152600401610ad0906141a4565b607a54811115611f485760405162461bcd60e51b8152600401610ad090614151565b600f8210611f685760405162461bcd60e51b8152600401610ad0906140e4565b336000818152607e60205260408120805460ff1916600190811790915560798054808301825592527f957bbdc7fad0dec56e7c96af4a3ab63aa9daf934a52ffce891945b7fb622d79190910180546001600160a01b031916909217909155611fd39084908490612e77565b6000838152607c6020526040902080546001600160a01b0319163317815561c350600490910155612002613077565b7f5765df5ce7cf4175ef997923b4936159dcf3cea059434dab4643214d690a2b9533846040516120339291906138fc565b60405180910390a150909695505050505050565b6033546001600160a01b031633146120715760405162461bcd60e51b8152600401610ad090613f90565b607555565b6033546001600160a01b031633146120a05760405162461bcd60e51b8152600401610ad090613f90565b603454600160a01b900460ff16156120ca5760405162461bcd60e51b8152600401610ad090614415565b6034805460ff60a01b1916600160a01b179055565b60795490565b603454600160a81b900460ff1681565b6033546001600160a01b0316331461211f5760405162461bcd60e51b8152600401610ad090613f90565b6001600160a01b0381166121455760405162461bcd60e51b8152600401610ad090613ef9565b603380546001600160a01b0319166001600160a01b0392909216919091179055565b607e6020526000908152604090205460ff1681565b606082820367ffffffffffffffff8111801561219757600080fd5b506040519080825280602002602001820160405280156121d157816020015b6121be613210565b8152602001906001900390816121b65790505b509050825b82811015610c8757607c6000607883815481106121ef57fe5b90600052602060002001548152602001908152602001600020604051806101800160405290816000820160009054906101000a90046001600160a01b03166001600160a01b03166001600160a01b031681526020016001820154815260200160028201548152602001600382015481526020016004820154815260200160058201548152602001600682015481526020016007820160009054906101000a900460ff16600181111561229d57fe5b60018111156122a857fe5b81526020016008820154815260200160098201548152602001600a8201548152602001600b8201548152505082858303815181106122e257fe5b60209081029190910101526001016121d6565b60608167ffffffffffffffff8111801561230e57600080fd5b5060405190808252806020026020018201604052801561234857816020015b612335613210565b81526020019060019003908161232d5790505b50905060005b82811015610c8757607c600085858481811061236657fe5b905060200201358152602001908152602001600020604051806101800160405290816000820160009054906101000a90046001600160a01b03166001600160a01b03166001600160a01b031681526020016001820154815260200160028201548152602001600382015481526020016004820154815260200160058201548152602001600682015481526020016007820160009054906101000a900460ff16600181111561241057fe5b600181111561241b57fe5b81526020016008820154815260200160098201548152602001600a8201548152602001600b8201548152505082828151811061245357fe5b602090810291909101015260010161234e565b6000818152607d602052604090205460ff1615156001146124995760405162461bcd60e51b8152600401610ad090613f59565b6124a2816114b9565b6000818152607c60205260409020546001600160a01b031633146124d85760405162461bcd60e51b8152600401610ad090613ffe565b6000818152607d6020526040902060080154670de0b6b3a7640000901b348111156125155760405162461bcd60e51b8152600401610ad090614372565b6000828152607d60205260409081902060080180546001019055517f444d0a208ac492e147b2e0e5ffeeb6e6be2c122d95f3da8f45e26868785c84eb9061255d908490613a7c565b60405180910390a15050565b606082820367ffffffffffffffff8111801561258457600080fd5b506040519080825280602002602001820160405280156125ae578160200160208202803683370190505b509050825b82811015610c8757607881815481106125c857fe5b906000526020600020015482858303815181106125e157fe5b60209081029190910101526001016125b3565b607f602052816000526040600020818154811061260d57fe5b6000918252602090912060049091020180546001820154600283015460039093015491945060ff16925084565b607881815481106113c757fe5b60606037805480602002602001604051908101604052809291908181526020018280548015610cdc5760200282019190600052602060002090815481526020019060010190808311610cc8575050505050905090565b603881815481106126aa57fe5b60009182526020918290206009919091020180546040805160026001841615610100026000190190931692909204601f8101859004850283018501909152808252919350918391908301828280156127435780601f1061271857610100808354040283529160200191612743565b820191906000526020600020905b81548152906001019060200180831161272657829003601f168201915b5050505050908060010154908060020154908060030154908060040154908060050154908060060154908060070154908060080154905089565b607b5481565b6079818154811061279057fe5b6000918252602090912001546001600160a01b0316905081565b60785490565b7dc19139cb84c680a6e14116da06056174a0cfa121e6e5c2450f87d64fc0001190565b603982600381106127e057fe5b6014020181600481106127ef57fe5b600502018054600182015460028301546003840154600490940154929550909350919085565b607d6020526000908152604090208054600182015460028301546003840154600485015460058601546006870154600788015460089098015460ff9788169896979596949590931693919290919089565b603454600160a01b900460ff16156128905760405162461bcd60e51b8152600401610ad0906142dc565b60755442106128b15760405162461bcd60e51b8152600401610ad090613ed0565b6000828152607d602052604090205460ff1615156001146128e45760405162461bcd60e51b8152600401610ad090613f59565b6128ed826114b9565b6000828152607c60205260409020546001600160a01b031633146129235760405162461bcd60e51b8152600401610ad090614076565b61292d82826117ba565b1561294a5760405162461bcd60e51b8152600401610ad090614304565b6000828152607d602090815260408083206009018054600181018255908452919092200180546001600160a01b0319166001600160a01b038416179055517f843a291790c6bf4cb530efd7a7338dbef8bb1c23d50f1fbf31e0e784a45315d39061255d90849084906144a2565b60606000805b6000848152607f6020526040902054811015612a21576000848152607f602052604081208054839081106129ed57fe5b600091825260209091206001600490920201015460ff168015612a0c57fe5b1415612a19576001820191505b6001016129bd565b508067ffffffffffffffff81118015612a3957600080fd5b50604051908082528060200260200182016040528015612a7357816020015b612a60613285565b815260200190600190039081612a585790505b5091506000805b6000858152607f6020526040902054811015612b95576000858152607f60205260408120805483908110612aaa57fe5b600091825260209091206001600490920201015460ff168015612ac957fe5b1415612b8d576000858152607f602052604081208054608092919084908110612aee57fe5b600091825260208083206004928302015484528381019490945260409283019091208251610100810184528154815260018201546001600160a01b031694810194909452600281015492840192909252600382015460608401528101546080830152600581015460a0830152600681015460c08301526007015460e08201528451859084908110612b7b57fe5b60209081029190910101526001909101905b600101612a7a565b505050919050565b61400081565b600054610100900460ff1680612bbc5750612bbc613113565b80612bca575060005460ff16155b612be65760405162461bcd60e51b8152600401610ad090614257565b600054610100900460ff16158015612c11576000805460ff1961ff0019909116610100171660011790555b603380546001600160a01b038087166001600160a01b03199283161790925560348054851515600160a81b0261ffff60a01b1994881691909316179290921617905563652d3ec06075556032607655600c607755604080516101008101825263010000008152623fffd06020820152620fffc4918101919091526203ffc1606082015261ffc06080820152613fc060a0820152610fc060c08201526103c060e0820152612cc29060359060086132d3565b50604051635dfd086d60e01b815273__DarkForestInitialize__________________90635dfd086d90612cfb90603890600401613a7c565b60006040518083038186803b158015612d1357600080fd5b505af4158015612d27573d6000803e3d6000fd5b505060405163e771ed6b60e01b815273__DarkForestInitialize__________________925063e771ed6b9150612d6390603990600401613a7c565b60006040518083038186803b158015612d7b57600080fd5b505af4158015612d8f573d6000803e3d6000fd5b50506040805161010081018252600080825260208201819052918101829052606081018290526080810182905260a0810182905260c0810182905260e0810191909152612de29250603791506008613326565b5060005b603554811015612e3d57603661400060358381548110612e0257fe5b9060005260206000200154630100000081612e1957fe5b83546001818101865560009586526020909520929091049290920291015501612de6565b50612e46613077565b8015612e58576000805461ff00191690555b50505050565b606481565b6033546001600160a01b031681565b600f81565b612e80836127b0565b612e9c5760405162461bcd60e51b8152600401610ad0906142a5565b60008073__DarkForestUtils_______________________6339818ecc8686600f60116008806004603560386040518a63ffffffff1660e01b8152600401612eec9998979695949392919061459f565b604080518083038186803b158015612f0357600080fd5b505af4158015612f17573d6000803e3d6000fd5b505050506040513d601f19601f82011682018060405250810190612f3b9190613715565b915091508215612f63578115612f635760405162461bcd60e51b8152600401610ad0906141db565b6000858152607c60209081526040808320607d9092529091206038805473__DarkForestPlanet______________________93639414ee04939092909187908110612faa57fe5b9060005260206000209060090201886064600f6011898b8f6040518b63ffffffff1660e01b8152600401612fe79a99989796959493929190614445565b60006040518083038186803b158015612fff57600080fd5b505af4158015613013573d6000803e3d6000fd5b505060788054600181810183556000929092527f8dc6fb69531d98d70dc0420e638d2dfd04e09e1ec783ede9aac77da9c5a0dac4018890556037805491935091508490811061305e57fe5b6000918252602090912001805490910190555050505050565b60795460765460775460405163c30403df60e01b815273__DarkForestUtils_______________________9363c30403df936130be93603793603693929190600401613dd9565b60206040518083038186803b1580156130d657600080fd5b505af41580156130ea573d6000803e3d6000fd5b505050506040513d601f19601f8201168201806040525081019061310e91906136ce565b607a55565b303b1590565b6040518061014001604052806000151581526020016000815260200160008152602001600081526020016000600281111561315057fe5b815260200160008152602001600081526020016000815260200160008152602001606081525090565b6040518061012001604052806060815260200160008152602001600081526020016000815260200160008152602001600081526020016000815260200160008152602001600081525090565b6040518060a001604052806005906020820280368337509192915050565b60405180606001604052806003905b6131fa613366565b8152602001906001900390816131f25790505090565b60405180610180016040528060006001600160a01b031681526020016000815260200160008152602001600081526020016000815260200160008152602001600081526020016000600181111561326357fe5b8152602001600081526020016000815260200160008152602001600081525090565b6040518061010001604052806000815260200160006001600160a01b031681526020016000815260200160008152602001600081526020016000815260200160008152602001600081525090565b828054828255906000526020600020908101928215613316579160200282015b82811115613316578251829063ffffffff169055916020019190600101906132f3565b50613322929150613393565b5090565b828054828255906000526020600020908101928215613316579160200282015b82811115613316578251829060ff16905591602001919060010190613346565b60405180608001604052806004905b61337d6133a8565b8152602001906001900390816133755790505090565b5b808211156133225760008155600101613394565b6040518060a0016040528060008152602001600081526020016000815260200160008152602001600081525090565b600082601f8301126133e7578081fd5b60406133f2816145de565b915081838560808601111561340657600080fd5b60005b60028110156134305761341c878361343a565b835260209092019190830190600101613409565b5050505092915050565b600082601f83011261344a578081fd5b61345460406145de565b905080828460408501111561346857600080fd5b60005b600281101561348a57813583526020928301929091019060010161346b565b50505092915050565b6000602082840312156134a4578081fd5b813561184981614605565b6000806000606084860312156134c3578182fd5b83356134ce81614605565b925060208401356134de81614605565b915060408401356134ee8161461a565b809150509250925092565b600080600080610160808688031215613510578182fd5b61351a878761343a565b945061352987604088016133d7565b93506135388760c0880161343a565b92508661011f870112613549578182fd5b61355360606145de565b80610100880189848a011115613567578485fd5b8493505b600384101561358b5780358352600193909301926020928301920161356b565b509598949750929550505050565b6000806000806101e08086880312156135b0578485fd5b6135ba878761343a565b94506135c987604088016133d7565b93506135d88760c0880161343a565b92508661011f8701126135e9578182fd5b6135f360e06145de565b80610100880189848a011115613607578485fd5b8493505b600784101561358b5780358352600193909301926020928301920161360b565b6000806020838503121561363d578182fd5b823567ffffffffffffffff80821115613654578384fd5b818501915085601f830112613667578384fd5b813581811115613675578485fd5b8660208083028501011115613688578485fd5b60209290920196919550909350505050565b6000602082840312156136ab578081fd5b81516118498161461a565b6000602082840312156136c7578081fd5b5035919050565b6000602082840312156136df578081fd5b5051919050565b600080604083850312156136f8578182fd5b82359150602083013561370a81614605565b809150509250929050565b60008060408385031215613727578081fd5b8251915060208301516002811061370a578182fd5b6000806040838503121561374e578182fd5b50508035926020909101359150565b6001600160a01b03169052565b6000815180845260208085019450808401835b838110156137a25781516001600160a01b03168752958201959082019060010161377d565b509495945050505050565b8060005b6002811015612e58576137c584835161385c565b60409390930192602091909101906001016137b1565b6000815180845260208085019450808401835b838110156137a257815180518852838101516001600160a01b03168489015260408082015190890152606080820151908901526080808201519089015260a0808201519089015260c0808201519089015260e0908101519088015261010090960195908201906001016137ee565b8060005b6002811015612e58578151845260209384019390910190600101613860565b15159052565b6002811061388f57fe5b9052565b6003811061388f57fe5b60008151808452815b818110156138c2576020818501810151868301820152016138a6565b818111156138d35782602083870101525b50601f01601f19169290920160200192915050565b6001600160a01b0391909116815260200190565b6001600160a01b03929092168252602082015260400190565b6001600160a01b038d168152602081018c9052604081018b9052606081018a90526080810189905260a0810188905260c08101879052610180810161395d60e0830188613885565b856101008301528461012083015283610140830152826101608301529d9c50505050505050505050505050565b600060208252611849602083018461376a565b6000602080830181845280855180835260408601915060408482028701019250838701855b828110156139f057603f198886030184526139de8583516137db565b945092850192908501906001016139c2565b5092979650505050505050565b610780810181836000805b600381101561343057825184835b6004811015613a6257825180518352602080820151818501526040808301519085015260608083015190850152608091820151918401919091529092019160a090910190600101613a16565b505050610280939093019260209290920191600101613a08565b90815260200190565b60006020825261184960208301846137db565b60208082528251828201819052600091906040908185019080840286018301878501865b83811015613b4657603f1989840301855281516101208151818652613ae38287018261389d565b838b0151878c0152898401518a880152606080850151908801526080808501519088015260a0808501519088015260c0808501519088015260e0808501519088015261010093840151939096019290925250509386019390860190600101613abc565b509098975050505050505050565b60208082528251828201819052600091906040908185019080840286018301878501865b83811015613b4657603f198984030185528151610140613b9985835161387f565b81890151858a0152878201518886015260608083015190860152608080830151613bc582880182613893565b505060a0828101519086015260c0808301519086015260e08083015190860152610100808301519086015261012091820151918501819052613c098186018361376a565b968901969450505090860190600101613b78565b602080825282518282018190526000919060409081850190868401855b82811015613cda578151613c4f85825161375d565b80870151858801528581015186860152606080820151908601526080808201519086015260a0808201519086015260c0808201519086015260e080820151613c9982880182613885565b505061010081810151908601526101208082015190860152610140808201519086015261016090810151908501526101809093019290850190600101613c3a565b5091979650505050505050565b6101608101613cf6828761385c565b613d0360408301866137ad565b613d1060c083018561385c565b61010082018360005b6003811015613d38578151835260209283019290910190600101613d19565b50505095945050505050565b6101a08101613d53828761385c565b613d6060408301866137ad565b613d6d60c083018561385c565b61010082018360005b6005811015613d38578151835260209283019290910190600101613d76565b6020808252825182820181905260009190848201906040850190845b81811015613dcd57835183529284019291840191600101613db1565b50909695505050505050565b948552602085019390935260408401919091526060830152608082015260a00190565b901515815260200190565b6000610120820190508a1515825289602083015288604083015287606083015260038710613e3157fe5b608082019690965260a081019490945260c084019290925260e083015261010090910152949350505050565b92835260208301919091526001600160a01b0316604082015260600190565b6000610120808352613e908184018d61389d565b602084019b909b52505060408101979097526060870195909552608086019390935260a085019190915260c084015260e083015261010090910152919050565b6020808252600f908201526e11d85b59481a185d9948195b991959608a1b604082015260600190565b60208082526016908201527506e65774f776e65722063616e6e6f74206265203078360541b604082015260600190565b602080825260169082015275141b185b995d081a5cc81c985d194b5b1a5b5a5d195960521b604082015260600190565b60208082526019908201527f506c616e6574206973206e6f7420696e697469616c697a656400000000000000604082015260600190565b6020808252601b908201527f53656e646572206973206e6f7420612067616d65206d61737465720000000000604082015260600190565b6020808252601d908201527f506c6179657220697320616c726561647920696e697469616c697a6564000000604082015260600190565b60208082526021908201527f4f6e6c79206f776e65722063616e206275792068617420666f7220706c616e656040820152601d60fa1b606082015260800190565b60208082526017908201527f4661696c656420696e69742070726f6f6620636865636b000000000000000000604082015260600190565b6020808252601e908201527f4f6e6c79206f776e65722063616e2064656c656761746520706c616e65740000604082015260600190565b60208082526019908201527f506c61796572206973206e6f742077686974656c697374656400000000000000604082015260600190565b60208082526047908201527f496e6974206e6f7420616c6c6f77656420696e207065726c696e2076616c756560408201527f2067726561746572207468616e206f7220657175616c20746f207468652074686060820152661c995cda1bdb1960ca1b608082015260a00190565b60208082526033908201527f496e69742072616469757320697320626967676572207468616e207468652063604082015272757272656e7420776f726c642072616469757360681b606082015260800190565b6020808252601d908201527f506c616e657420697320616c726561647920696e697469616c697a6564000000604082015260600190565b60208082526025908201527f43616e206f6e6c7920696e697469616c697a65206f6e20706c616e6574206c65604082015264076656c20360dc1b606082015260800190565b60208082526017908201527f4661696c6564206d6f76652070726f6f6620636865636b000000000000000000604082015260600190565b6020808252602e908201527f436f6e747261637420696e7374616e63652068617320616c726561647920626560408201526d195b881a5b9a5d1a585b1a5e995960921b606082015260800190565b6020808252601b908201527f4e6f7420612076616c696420706c616e6574206c6f636174696f6e0000000000604082015260600190565b6020808252600e908201526d11d85b59481a5cc81c185d5cd95960921b604082015260600190565b60208082526018908201527f506c616e657420616c72656164792064656c6567617465640000000000000000604082015260600190565b60208082526017908201527f506c616e6574206973206e6f742064656c656761746564000000000000000000604082015260600190565b60208082526017908201527f496e73756666696369656e742076616c75652073656e74000000000000000000604082015260600190565b60208082526018908201527f47616d6520697320616c726561647920756e7061757365640000000000000000604082015260600190565b6020808252818101527f417474656d7074696e6720746f206d6f7665206f7574206f6620626f756e6473604082015260600190565b60208082526016908201527511d85b59481a5cc8185b1c9958591e481c185d5cd95960521b604082015260600190565b6000610140820190508b82528a60208301528960408301528860608301528760808301528660a08301528560c08301526002851061447f57fe5b8460e083015283610100830152826101208301529b9a5050505050505050505050565b9182526001600160a01b0316602082015260400190565b9788526001600160a01b0396909616602088015260408701949094526060860192909252608085015260a084015260c083015260e08201526101000190565b848152608081016001851061450957fe5b84602083015283604083015282606083015295945050505050565b918252602082015260400190565b958652602086019490945260408501929092526060840152608083015260a082015260c00190565b998a5260208a019890985260408901969096526060880194909452608087019290925260a086015260c085015260e08401526101008301526101208201526101400190565b988952602089019790975260408801959095526060870193909352608086019190915260a085015260c084015260e08301526101008201526101200190565b60405181810167ffffffffffffffff811182821017156145fd57600080fd5b604052919050565b6001600160a01b03811681146114b657600080fd5b80151581146114b657600080fdfea2646970667358221220dcf4d929f119be3deb587e776ed8d032b34742f0d814bb2baf1187b955bb2cbf64736f6c634300060c0033",
  "compiler": {
    "name": "solc",
    "version": "0.6.12+commit.27d51765.Emscripten.clang",
    "optimizer": {
      "enabled": true,
      "runs": 200
    },
    "evmVersion": "petersburg"
  }
}