{
  "fileName": "DarkForestCore.sol",
  "contractName": "DarkForestCore",
  "source": "// SPDX-License-Identifier: UNLICENSED\npragma solidity ^0.6.9;\npragma experimental ABIEncoderV2;\n\n// Import base Initializable contract\nimport \"@openzeppelin/contracts-ethereum-package/contracts/Initializable.sol\";\nimport \"@openzeppelin/contracts-ethereum-package/contracts/math/SafeMath.sol\";\nimport \"@openzeppelin/contracts-ethereum-package/contracts/math/Math.sol\";\nimport \"./Verifier.sol\";\nimport \"./DarkForestStorageV1.sol\";\nimport \"./DarkForestUtils.sol\";\nimport \"./DarkForestPlanet.sol\";\nimport \"./DarkForestLazyUpdate.sol\";\nimport \"./DarkForestInitialize.sol\";\n\n// .______       _______     ___       _______  .___  ___.  _______\n// |   _  \\     |   ____|   /   \\     |       \\ |   \\/   | |   ____|\n// |  |_)  |    |  |__     /  ^  \\    |  .--.  ||  \\  /  | |  |__\n// |      /     |   __|   /  /_\\  \\   |  |  |  ||  |\\/|  | |   __|\n// |  |\\  \\----.|  |____ /  _____  \\  |  '--'  ||  |  |  | |  |____\n// | _| `._____||_______/__/     \\__\\ |_______/ |__|  |__| |_______|\n//\n// READ THIS FIRST BEFORE EDITING ANYTHING IN THIS FILE:\n// https://docs.openzeppelin.com/learn/upgrading-smart-contracts#limitations-of-contract-upgrades\n//\n// DO NOT ADD ANY STORAGE VARIABLES IN THIS FILE\n// IT SHOULD BELONG AT STORAGE CONTRACTS\n// ADDING STORAGE VARIABLES HERE WI LL BLOCK ANY STORAGE CONTRACTS FROM EVER\n// ADDING THEIR OWN VARIABLES EVER AGAIN.\n\ncontract DarkForestCore is Initializable, DarkForestStorageV1 {\n    using ABDKMath64x64 for *;\n    using SafeMath for *;\n    using Math for uint256;\n\n    event PlayerInitialized(address player, uint256 loc);\n    event ArrivalQueued(uint256 arrivalId);\n    event PlanetUpgraded(uint256 loc);\n    event PlanetDelegated(uint256 loc, address player);\n    event PlanetUndelegated(uint256 loc, address player);\n    event BoughtHat(uint256 loc);\n\n    function initialize(\n        address _adminAddress,\n        address payable _whitelistAddress,\n        bool _disableZKCheck\n    ) public initializer {\n        adminAddress = _adminAddress;\n        whitelist = Whitelist(_whitelistAddress);\n\n        paused = false;\n\n        DISABLE_ZK_CHECK = _disableZKCheck;\n\n        gameEndTimestamp = 1697464000;\n        target4RadiusConstant = 50;\n        target5RadiusConstant = 12;\n\n        planetLevelThresholds = [\n            16777216,\n            4194256,\n            1048516,\n            262081,\n            65472,\n            16320,\n            4032,\n            960\n        ];\n\n        DarkForestInitialize.initializeDefaults(planetDefaultStats);\n        DarkForestInitialize.initializeUpgrades(upgrades);\n\n        initializedPlanetCountByLevel = [0, 0, 0, 0, 0, 0, 0, 0];\n        for (uint256 i = 0; i < planetLevelThresholds.length; i += 1) {\n            cumulativeRarities.push(\n                (2**24 / planetLevelThresholds[i]) * PLANET_RARITY\n            );\n        }\n\n        _updateWorldRadius();\n    }\n\n    //////////////////////\n    /// ACCESS CONTROL ///\n    //////////////////////\n    modifier onlyAdmin() {\n        require(msg.sender == adminAddress, \"Sender is not a game master\");\n        _;\n    }\n\n    modifier onlyWhitelisted() {\n        require(\n            whitelist.isWhitelisted(msg.sender),\n            \"Player is not whitelisted\"\n        );\n        _;\n    }\n\n    modifier notPaused() {\n        require(!paused, \"Game is paused\");\n        _;\n    }\n\n    modifier notEnded() {\n        require(block.timestamp < gameEndTimestamp, \"Game have ended\");\n        _;\n    }\n\n    function changeAdmin(address _newAdmin) public onlyAdmin {\n        require(_newAdmin != address(0), \"newOwner cannot be 0x0\");\n        adminAddress = _newAdmin;\n    }\n\n    /////////////////////////////\n    /// Administrative Engine ///\n    /////////////////////////////\n    function pause() public onlyAdmin {\n        require(!paused, \"Game is already paused\");\n        paused = true;\n    }\n\n    function unpause() public onlyAdmin {\n        require(paused, \"Game is already unpaused\");\n        paused = false;\n    }\n\n    function changeGameEndTime(uint256 _newGameEnd) public onlyAdmin {\n        gameEndTimestamp = _newGameEnd;\n    }\n\n    function changeTarget4RadiusConstant(uint256 _newConstant)\n        public\n        onlyAdmin\n    {\n        target4RadiusConstant = _newConstant;\n    }\n\n    function changeTarget5RadiusConstant(uint256 _newConstant)\n        public\n        onlyAdmin\n    {\n        target5RadiusConstant = _newConstant;\n    }\n\n    function withdraw() public onlyAdmin {\n        msg.sender.transfer(address(this).balance);\n    }\n\n    //////////////\n    /// Helper ///\n    //////////////\n\n    // Public helper getters\n    function getNPlanets() public view returns (uint256) {\n        return planetIds.length;\n    }\n\n    function bulkGetPlanetIds(uint256 startIdx, uint256 endIdx)\n        public\n        view\n        returns (uint256[] memory ret)\n    {\n        // return slice of planetIds array from startIdx through endIdx - 1\n        ret = new uint256[](endIdx - startIdx);\n        for (uint256 i = startIdx; i < endIdx; i++) {\n            ret[i - startIdx] = planetIds[i];\n        }\n    }\n\n    function bulkGetPlanets(uint256 startIdx, uint256 endIdx)\n        public\n        view\n        returns (DarkForestTypes.Planet[] memory ret)\n    {\n        // return array of planets corresponding to planetIds[startIdx] through planetIds[endIdx - 1]\n        ret = new DarkForestTypes.Planet[](endIdx - startIdx);\n        for (uint256 i = startIdx; i < endIdx; i++) {\n            ret[i - startIdx] = planets[planetIds[i]];\n        }\n    }\n\n    function bulkGetPlanetsExtendedInfo(uint256 startIdx, uint256 endIdx)\n        public\n        view\n        returns (DarkForestTypes.PlanetExtendedInfo[] memory ret)\n    {\n        // return array of planets corresponding to planetIds[startIdx] through planetIds[endIdx - 1]\n        ret = new DarkForestTypes.PlanetExtendedInfo[](endIdx - startIdx);\n        for (uint256 i = startIdx; i < endIdx; i++) {\n            ret[i - startIdx] = planetsExtendedInfo[planetIds[i]];\n        }\n    }\n\n    function getNPlayers() public view returns (uint256) {\n        return playerIds.length;\n    }\n\n    function bulkGetPlayers(uint256 startIdx, uint256 endIdx)\n        public\n        view\n        returns (address[] memory ret)\n    {\n        // return slice of players array from startIdx through endIdx - 1\n        ret = new address[](endIdx - startIdx);\n        for (uint256 i = startIdx; i < endIdx; i++) {\n            ret[i - startIdx] = playerIds[i];\n        }\n    }\n\n    function getPlanetLevelThresholds() public view returns (uint256[] memory) {\n        return planetLevelThresholds;\n    }\n\n    function getPlanetCumulativeRarities()\n        public\n        view\n        returns (uint256[] memory)\n    {\n        return cumulativeRarities;\n    }\n\n    function getPlanetArrivals(uint256 _location)\n        public\n        view\n        returns (DarkForestTypes.ArrivalData[] memory ret)\n    {\n        uint256 arrivalCount = 0;\n        for (uint256 i = 0; i < planetEvents[_location].length; i += 1) {\n            if (\n                planetEvents[_location][i].eventType ==\n                DarkForestTypes.PlanetEventType.ARRIVAL\n            ) {\n                arrivalCount += 1;\n            }\n        }\n        ret = new DarkForestTypes.ArrivalData[](arrivalCount);\n        uint256 count = 0;\n        for (uint256 i = 0; i < planetEvents[_location].length; i += 1) {\n            if (\n                planetEvents[_location][i].eventType ==\n                DarkForestTypes.PlanetEventType.ARRIVAL\n            ) {\n                ret[count] = planetArrivals[planetEvents[_location][i].id];\n                count++;\n            }\n        }\n    }\n\n    function bulkGetPlanetArrivals(uint256 startIdx, uint256 endIdx)\n        public\n        view\n        returns (DarkForestTypes.ArrivalData[][] memory)\n    {\n        // return array of planets corresponding to planetIds[startIdx] through planetIds[endIdx - 1]\n\n\n            DarkForestTypes.ArrivalData[][] memory ret\n         = new DarkForestTypes.ArrivalData[][](endIdx - startIdx);\n        for (uint256 i = startIdx; i < endIdx; i++) {\n            ret[i - startIdx] = getPlanetArrivals(planetIds[i]);\n        }\n        return ret;\n    }\n\n    function getDefaultStats()\n        public\n        view\n        returns (DarkForestTypes.PlanetDefaultStats[] memory)\n    {\n\n            DarkForestTypes.PlanetDefaultStats[] memory ret\n         = new DarkForestTypes.PlanetDefaultStats[](\n            planetLevelThresholds.length\n        );\n        for (uint256 i = 0; i < planetLevelThresholds.length; i += 1) {\n            ret[i] = planetDefaultStats[i];\n        }\n        return ret;\n    }\n\n    function getPlanetCounts() public view returns (uint256[] memory) {\n        return initializedPlanetCountByLevel;\n    }\n\n    function getUpgrades()\n        public\n        view\n        returns (DarkForestTypes.Upgrade[4][3] memory)\n    {\n        return upgrades;\n    }\n\n    function isDelegated(uint256 _location, address _player)\n        public\n        view\n        returns (bool)\n    {\n        return\n            DarkForestUtils.isDelegated(\n                planetsExtendedInfo,\n                _location,\n                _player\n            );\n    }\n\n    // private utilities\n\n    function _locationIdValid(uint256 _loc) public pure returns (bool) {\n        return (_loc <\n            (21888242871839275222246405745257275088548364400416034343698204186575808495617 /\n                PLANET_RARITY));\n    }\n\n    // Private helpers that modify state\n    function _updateWorldRadius() private {\n        worldRadius = DarkForestUtils._getRadius(\n            initializedPlanetCountByLevel,\n            cumulativeRarities,\n            playerIds.length,\n            target4RadiusConstant,\n            target5RadiusConstant\n        );\n    }\n\n    function _initializePlanet(\n        uint256 _location,\n        uint256 _perlin,\n        bool _isHomePlanet\n    ) private {\n        require(_locationIdValid(_location), \"Not a valid planet location\");\n\n        (\n            uint256 _level,\n            DarkForestTypes.PlanetResource _resource\n        ) = DarkForestUtils._getPlanetLevelAndResource(\n            _location,\n            _perlin,\n            PERLIN_THRESHOLD_1,\n            PERLIN_THRESHOLD_2,\n            SILVER_RARITY_1,\n            SILVER_RARITY_2,\n            SILVER_RARITY_3,\n            planetLevelThresholds,\n            planetDefaultStats\n        );\n\n        if (_isHomePlanet) {\n            require(_level == 0, \"Can only initialize on planet level 0\");\n        }\n\n        DarkForestPlanet.initializePlanet(\n            planets[_location],\n            planetsExtendedInfo[_location],\n            planetDefaultStats[_level],\n            _perlin,\n            TIME_FACTOR_HUNDREDTHS,\n            PERLIN_THRESHOLD_1,\n            PERLIN_THRESHOLD_2,\n            _resource,\n            _level,\n            _location\n        );\n        planetIds.push(_location);\n        initializedPlanetCountByLevel[_level] += 1;\n    }\n\n    //////////////////////\n    /// Game Mechanics ///\n    //////////////////////\n\n    function refreshPlanet(uint256 _location)\n        public\n        onlyWhitelisted\n        notPaused\n        notEnded\n    {\n        DarkForestPlanet.refreshPlanet(\n            _location,\n            planets,\n            planetsExtendedInfo,\n            planetEvents,\n            planetArrivals\n        );\n    }\n\n    function initializePlayer(\n        uint256[2] memory _a,\n        uint256[2][2] memory _b,\n        uint256[2] memory _c,\n        uint256[3] memory _input\n    ) public onlyWhitelisted notPaused notEnded returns (uint256) {\n        if (!DISABLE_ZK_CHECK) {\n            require(\n                Verifier.verifyInitProof(_a, _b, _c, _input),\n                \"Failed init proof check\"\n            );\n        }\n\n        uint256 _location = _input[0];\n        uint256 _perlin = _input[1];\n        uint256 _radius = _input[2];\n\n        require(\n            !isPlayerInitialized[msg.sender],\n            \"Player is already initialized\"\n        );\n        require(\n            !planetsExtendedInfo[_location].isInitialized,\n            \"Planet is already initialized\"\n        );\n        require(\n            _radius <= worldRadius,\n            \"Init radius is bigger than the current world radius\"\n        );\n        require(\n            _perlin < PERLIN_THRESHOLD_1,\n            \"Init not allowed in perlin value greater than or equal to the threshold\"\n        );\n\n        // Initialize player data\n        isPlayerInitialized[msg.sender] = true;\n        playerIds.push(msg.sender);\n\n        // Initialize planet information\n        _initializePlanet(_location, _perlin, true);\n        planets[_location].owner = msg.sender;\n        planets[_location].population = 50000;\n        _updateWorldRadius();\n        emit PlayerInitialized(msg.sender, _location);\n        return _location;\n    }\n\n    function move(\n        uint256[2] memory _a,\n        uint256[2][2] memory _b,\n        uint256[2] memory _c,\n        uint256[7] memory _input\n    ) public notPaused notEnded returns (uint256) {\n        uint256 _oldLoc = _input[0];\n        uint256 _newLoc = _input[1];\n        uint256 _newPerlin = _input[2];\n        uint256 _newRadius = _input[3];\n        uint256 _maxDist = _input[4];\n        uint256 _popMoved = _input[5];\n        uint256 _silverMoved = _input[6];\n\n        if (!DISABLE_ZK_CHECK) {\n            uint256[5] memory _proofInput = [\n                _oldLoc,\n                _newLoc,\n                _newPerlin,\n                _newRadius,\n                _maxDist\n            ];\n            require(\n                Verifier.verifyMoveProof(_a, _b, _c, _proofInput),\n                \"Failed move proof check\"\n            );\n        }\n\n        // check radius\n        require(_newRadius <= worldRadius, \"Attempting to move out of bounds\");\n\n        // Only perform if the toPlanet have never initialized previously\n        if (!planetsExtendedInfo[_newLoc].isInitialized) {\n            _initializePlanet(_newLoc, _newPerlin, false);\n        } else {\n            // need to do this so people can't deny service to their own planets with gas limit\n            refreshPlanet(_newLoc);\n            require(planetEvents[_newLoc].length < 7, \"Planet is rate-limited\");\n        }\n\n        // Refresh fromPlanet first before doing any action on it\n        refreshPlanet(_oldLoc);\n        DarkForestPlanet.move(\n            _oldLoc,\n            _newLoc,\n            _maxDist,\n            _popMoved,\n            _silverMoved,\n            planetEventsCount,\n            planets,\n            planetsExtendedInfo,\n            planetEvents,\n            planetArrivals\n        );\n\n        planetEventsCount++;\n\n        _updateWorldRadius();\n        emit ArrivalQueued(planetEventsCount - 1);\n        return (planetEventsCount - 1);\n    }\n\n    function upgradePlanet(uint256 _location, uint256 _branch)\n        public\n        notPaused\n        notEnded\n        returns (uint256, uint256)\n    {\n        // _branch specifies which of the three upgrade branches player is leveling up\n        // 0 improves silver production and capacity\n        // 1 improves population\n        // 2 improves range\n        refreshPlanet(_location);\n        DarkForestPlanet.upgradePlanet(\n            _location,\n            _branch,\n            planets,\n            planetsExtendedInfo,\n            planetDefaultStats,\n            upgrades\n        );\n        emit PlanetUpgraded(_location);\n        return (_location, _branch);\n    }\n\n    function delegatePlanet(uint256 _location, address _player)\n        public\n        notPaused\n        notEnded\n    {\n        require(\n            planetsExtendedInfo[_location].isInitialized == true,\n            \"Planet is not initialized\"\n        );\n        refreshPlanet(_location);\n        require(\n            planets[_location].owner == msg.sender,\n            \"Only owner can delegate planet\"\n        );\n        require(!isDelegated(_location, _player), \"Planet already delegated\");\n        planetsExtendedInfo[_location].delegatedPlayers.push(_player);\n\n        emit PlanetDelegated(_location, _player);\n    }\n\n    function undelegatePlanet(uint256 _location, address _player)\n        public\n        notPaused\n        notEnded\n    {\n        require(\n            planetsExtendedInfo[_location].isInitialized == true,\n            \"Planet is not initialized\"\n        );\n        refreshPlanet(_location);\n        require(\n            planets[_location].owner == msg.sender,\n            \"Only owner can delegate planet\"\n        );\n\n        require(isDelegated(_location, _player), \"Planet is not delegated\");\n\n        for (\n            uint256 i = 0;\n            i < planetsExtendedInfo[_location].delegatedPlayers.length;\n            i++\n        ) {\n            if (_player == planetsExtendedInfo[_location].delegatedPlayers[i]) {\n                planetsExtendedInfo[_location]\n                    .delegatedPlayers[i] = planetsExtendedInfo[_location]\n                    .delegatedPlayers[planetsExtendedInfo[_location]\n                    .delegatedPlayers\n                    .length - 1];\n\n                planetsExtendedInfo[_location].delegatedPlayers.pop();\n                emit PlanetUndelegated(_location, _player);\n            }\n        }\n    }\n\n    function buyHat(uint256 _location)\n        public\n        payable\n    {\n        require(\n            planetsExtendedInfo[_location].isInitialized == true,\n            \"Planet is not initialized\"\n        );\n\n        refreshPlanet(_location);\n\n        require(\n            planets[_location].owner == msg.sender,\n            \"Only owner can buy hat for planet\"\n        );\n\n        uint256 cost = (1 << planetsExtendedInfo[_location].hatLevel) * 1 ether;\n\n        require(msg.value >= cost, \"Insufficient value sent\");\n\n        planetsExtendedInfo[_location].hatLevel += 1;\n        emit BoughtHat(_location);\n    }\n}\n",
  "sourcePath": "contracts/DarkForestCore.sol",
  "abi": [
    {
      "anonymous": false,
      "inputs": [
        {
          "indexed": false,
          "internalType": "uint256",
          "name": "arrivalId",
          "type": "uint256"
        }
      ],
      "name": "ArrivalQueued",
      "type": "event"
    },
    {
      "anonymous": false,
      "inputs": [
        {
          "indexed": false,
          "internalType": "uint256",
          "name": "loc",
          "type": "uint256"
        }
      ],
      "name": "BoughtHat",
      "type": "event"
    },
    {
      "anonymous": false,
      "inputs": [
        {
          "indexed": false,
          "internalType": "uint256",
          "name": "loc",
          "type": "uint256"
        },
        {
          "indexed": false,
          "internalType": "address",
          "name": "player",
          "type": "address"
        }
      ],
      "name": "PlanetDelegated",
      "type": "event"
    },
    {
      "anonymous": false,
      "inputs": [
        {
          "indexed": false,
          "internalType": "uint256",
          "name": "loc",
          "type": "uint256"
        },
        {
          "indexed": false,
          "internalType": "address",
          "name": "player",
          "type": "address"
        }
      ],
      "name": "PlanetUndelegated",
      "type": "event"
    },
    {
      "anonymous": false,
      "inputs": [
        {
          "indexed": false,
          "internalType": "uint256",
          "name": "loc",
          "type": "uint256"
        }
      ],
      "name": "PlanetUpgraded",
      "type": "event"
    },
    {
      "anonymous": false,
      "inputs": [
        {
          "indexed": false,
          "internalType": "address",
          "name": "player",
          "type": "address"
        },
        {
          "indexed": false,
          "internalType": "uint256",
          "name": "loc",
          "type": "uint256"
        }
      ],
      "name": "PlayerInitialized",
      "type": "event"
    },
    {
      "inputs": [],
      "name": "DISABLE_ZK_CHECK",
      "outputs": [
        {
          "internalType": "bool",
          "name": "",
          "type": "bool"
        }
      ],
      "stateMutability": "view",
      "type": "function"
    },
    {
      "inputs": [],
      "name": "PERLIN_THRESHOLD_1",
      "outputs": [
        {
          "internalType": "uint256",
          "name": "",
          "type": "uint256"
        }
      ],
      "stateMutability": "view",
      "type": "function"
    },
    {
      "inputs": [],
      "name": "PERLIN_THRESHOLD_2",
      "outputs": [
        {
          "internalType": "uint256",
          "name": "",
          "type": "uint256"
        }
      ],
      "stateMutability": "view",
      "type": "function"
    },
    {
      "inputs": [],
      "name": "PLANET_RARITY",
      "outputs": [
        {
          "internalType": "uint256",
          "name": "",
          "type": "uint256"
        }
      ],
      "stateMutability": "view",
      "type": "function"
    },
    {
      "inputs": [],
      "name": "SILVER_RARITY_1",
      "outputs": [
        {
          "internalType": "uint256",
          "name": "",
          "type": "uint256"
        }
      ],
      "stateMutability": "view",
      "type": "function"
    },
    {
      "inputs": [],
      "name": "SILVER_RARITY_2",
      "outputs": [
        {
          "internalType": "uint256",
          "name": "",
          "type": "uint256"
        }
      ],
      "stateMutability": "view",
      "type": "function"
    },
    {
      "inputs": [],
      "name": "SILVER_RARITY_3",
      "outputs": [
        {
          "internalType": "uint256",
          "name": "",
          "type": "uint256"
        }
      ],
      "stateMutability": "view",
      "type": "function"
    },
    {
      "inputs": [],
      "name": "TIME_FACTOR_HUNDREDTHS",
      "outputs": [
        {
          "internalType": "uint256",
          "name": "",
          "type": "uint256"
        }
      ],
      "stateMutability": "view",
      "type": "function"
    },
    {
      "inputs": [
        {
          "internalType": "uint256",
          "name": "_loc",
          "type": "uint256"
        }
      ],
      "name": "_locationIdValid",
      "outputs": [
        {
          "internalType": "bool",
          "name": "",
          "type": "bool"
        }
      ],
      "stateMutability": "pure",
      "type": "function"
    },
    {
      "inputs": [],
      "name": "adminAddress",
      "outputs": [
        {
          "internalType": "address",
          "name": "",
          "type": "address"
        }
      ],
      "stateMutability": "view",
      "type": "function"
    },
    {
      "inputs": [
        {
          "internalType": "uint256",
          "name": "startIdx",
          "type": "uint256"
        },
        {
          "internalType": "uint256",
          "name": "endIdx",
          "type": "uint256"
        }
      ],
      "name": "bulkGetPlanetArrivals",
      "outputs": [
        {
          "components": [
            {
              "internalType": "uint256",
              "name": "id",
              "type": "uint256"
            },
            {
              "internalType": "address",
              "name": "player",
              "type": "address"
            },
            {
              "internalType": "uint256",
              "name": "fromPlanet",
              "type": "uint256"
            },
            {
              "internalType": "uint256",
              "name": "toPlanet",
              "type": "uint256"
            },
            {
              "internalType": "uint256",
              "name": "popArriving",
              "type": "uint256"
            },
            {
              "internalType": "uint256",
              "name": "silverMoved",
              "type": "uint256"
            },
            {
              "internalType": "uint256",
              "name": "departureTime",
              "type": "uint256"
            },
            {
              "internalType": "uint256",
              "name": "arrivalTime",
              "type": "uint256"
            }
          ],
          "internalType": "struct DarkForestTypes.ArrivalData[][]",
          "name": "",
          "type": "tuple[][]"
        }
      ],
      "stateMutability": "view",
      "type": "function"
    },
    {
      "inputs": [
        {
          "internalType": "uint256",
          "name": "startIdx",
          "type": "uint256"
        },
        {
          "internalType": "uint256",
          "name": "endIdx",
          "type": "uint256"
        }
      ],
      "name": "bulkGetPlanetIds",
      "outputs": [
        {
          "internalType": "uint256[]",
          "name": "ret",
          "type": "uint256[]"
        }
      ],
      "stateMutability": "view",
      "type": "function"
    },
    {
      "inputs": [
        {
          "internalType": "uint256",
          "name": "startIdx",
          "type": "uint256"
        },
        {
          "internalType": "uint256",
          "name": "endIdx",
          "type": "uint256"
        }
      ],
      "name": "bulkGetPlanets",
      "outputs": [
        {
          "components": [
            {
              "internalType": "address",
              "name": "owner",
              "type": "address"
            },
            {
              "internalType": "uint256",
              "name": "range",
              "type": "uint256"
            },
            {
              "internalType": "uint256",
              "name": "speed",
              "type": "uint256"
            },
            {
              "internalType": "uint256",
              "name": "defense",
              "type": "uint256"
            },
            {
              "internalType": "uint256",
              "name": "population",
              "type": "uint256"
            },
            {
              "internalType": "uint256",
              "name": "populationCap",
              "type": "uint256"
            },
            {
              "internalType": "uint256",
              "name": "populationGrowth",
              "type": "uint256"
            },
            {
              "internalType": "enum DarkForestTypes.PlanetResource",
              "name": "planetResource",
              "type": "uint8"
            },
            {
              "internalType": "uint256",
              "name": "silverCap",
              "type": "uint256"
            },
            {
              "internalType": "uint256",
              "name": "silverGrowth",
              "type": "uint256"
            },
            {
              "internalType": "uint256",
              "name": "silver",
              "type": "uint256"
            },
            {
              "internalType": "uint256",
              "name": "planetLevel",
              "type": "uint256"
            }
          ],
          "internalType": "struct DarkForestTypes.Planet[]",
          "name": "ret",
          "type": "tuple[]"
        }
      ],
      "stateMutability": "view",
      "type": "function"
    },
    {
      "inputs": [
        {
          "internalType": "uint256",
          "name": "startIdx",
          "type": "uint256"
        },
        {
          "internalType": "uint256",
          "name": "endIdx",
          "type": "uint256"
        }
      ],
      "name": "bulkGetPlanetsExtendedInfo",
      "outputs": [
        {
          "components": [
            {
              "internalType": "bool",
              "name": "isInitialized",
              "type": "bool"
            },
            {
              "internalType": "uint256",
              "name": "createdAt",
              "type": "uint256"
            },
            {
              "internalType": "uint256",
              "name": "lastUpdated",
              "type": "uint256"
            },
            {
              "internalType": "uint256",
              "name": "perlin",
              "type": "uint256"
            },
            {
              "internalType": "enum DarkForestTypes.SpaceType",
              "name": "spaceType",
              "type": "uint8"
            },
            {
              "internalType": "uint256",
              "name": "upgradeState0",
              "type": "uint256"
            },
            {
              "internalType": "uint256",
              "name": "upgradeState1",
              "type": "uint256"
            },
            {
              "internalType": "uint256",
              "name": "upgradeState2",
              "type": "uint256"
            },
            {
              "internalType": "uint256",
              "name": "hatLevel",
              "type": "uint256"
            },
            {
              "internalType": "address[]",
              "name": "delegatedPlayers",
              "type": "address[]"
            }
          ],
          "internalType": "struct DarkForestTypes.PlanetExtendedInfo[]",
          "name": "ret",
          "type": "tuple[]"
        }
      ],
      "stateMutability": "view",
      "type": "function"
    },
    {
      "inputs": [
        {
          "internalType": "uint256",
          "name": "startIdx",
          "type": "uint256"
        },
        {
          "internalType": "uint256",
          "name": "endIdx",
          "type": "uint256"
        }
      ],
      "name": "bulkGetPlayers",
      "outputs": [
        {
          "internalType": "address[]",
          "name": "ret",
          "type": "address[]"
        }
      ],
      "stateMutability": "view",
      "type": "function"
    },
    {
      "inputs": [
        {
          "internalType": "uint256",
          "name": "_location",
          "type": "uint256"
        }
      ],
      "name": "buyHat",
      "outputs": [],
      "stateMutability": "payable",
      "type": "function"
    },
    {
      "inputs": [
        {
          "internalType": "address",
          "name": "_newAdmin",
          "type": "address"
        }
      ],
      "name": "changeAdmin",
      "outputs": [],
      "stateMutability": "nonpayable",
      "type": "function"
    },
    {
      "inputs": [
        {
          "internalType": "uint256",
          "name": "_newGameEnd",
          "type": "uint256"
        }
      ],
      "name": "changeGameEndTime",
      "outputs": [],
      "stateMutability": "nonpayable",
      "type": "function"
    },
    {
      "inputs": [
        {
          "internalType": "uint256",
          "name": "_newConstant",
          "type": "uint256"
        }
      ],
      "name": "changeTarget4RadiusConstant",
      "outputs": [],
      "stateMutability": "nonpayable",
      "type": "function"
    },
    {
      "inputs": [
        {
          "internalType": "uint256",
          "name": "_newConstant",
          "type": "uint256"
        }
      ],
      "name": "changeTarget5RadiusConstant",
      "outputs": [],
      "stateMutability": "nonpayable",
      "type": "function"
    },
    {
      "inputs": [
        {
          "internalType": "uint256",
          "name": "",
          "type": "uint256"
        }
      ],
      "name": "cumulativeRarities",
      "outputs": [
        {
          "internalType": "uint256",
          "name": "",
          "type": "uint256"
        }
      ],
      "stateMutability": "view",
      "type": "function"
    },
    {
      "inputs": [
        {
          "internalType": "uint256",
          "name": "_location",
          "type": "uint256"
        },
        {
          "internalType": "address",
          "name": "_player",
          "type": "address"
        }
      ],
      "name": "delegatePlanet",
      "outputs": [],
      "stateMutability": "nonpayable",
      "type": "function"
    },
    {
      "inputs": [],
      "name": "getDefaultStats",
      "outputs": [
        {
          "components": [
            {
              "internalType": "string",
              "name": "label",
              "type": "string"
            },
            {
              "internalType": "uint256",
              "name": "populationCap",
              "type": "uint256"
            },
            {
              "internalType": "uint256",
              "name": "populationGrowth",
              "type": "uint256"
            },
            {
              "internalType": "uint256",
              "name": "range",
              "type": "uint256"
            },
            {
              "internalType": "uint256",
              "name": "speed",
              "type": "uint256"
            },
            {
              "internalType": "uint256",
              "name": "defense",
              "type": "uint256"
            },
            {
              "internalType": "uint256",
              "name": "silverGrowth",
              "type": "uint256"
            },
            {
              "internalType": "uint256",
              "name": "silverCap",
              "type": "uint256"
            },
            {
              "internalType": "uint256",
              "name": "barbarianPercentage",
              "type": "uint256"
            }
          ],
          "internalType": "struct DarkForestTypes.PlanetDefaultStats[]",
          "name": "",
          "type": "tuple[]"
        }
      ],
      "stateMutability": "view",
      "type": "function"
    },
    {
      "inputs": [],
      "name": "getNPlanets",
      "outputs": [
        {
          "internalType": "uint256",
          "name": "",
          "type": "uint256"
        }
      ],
      "stateMutability": "view",
      "type": "function"
    },
    {
      "inputs": [],
      "name": "getNPlayers",
      "outputs": [
        {
          "internalType": "uint256",
          "name": "",
          "type": "uint256"
        }
      ],
      "stateMutability": "view",
      "type": "function"
    },
    {
      "inputs": [
        {
          "internalType": "uint256",
          "name": "_location",
          "type": "uint256"
        }
      ],
      "name": "getPlanetArrivals",
      "outputs": [
        {
          "components": [
            {
              "internalType": "uint256",
              "name": "id",
              "type": "uint256"
            },
            {
              "internalType": "address",
              "name": "player",
              "type": "address"
            },
            {
              "internalType": "uint256",
              "name": "fromPlanet",
              "type": "uint256"
            },
            {
              "internalType": "uint256",
              "name": "toPlanet",
              "type": "uint256"
            },
            {
              "internalType": "uint256",
              "name": "popArriving",
              "type": "uint256"
            },
            {
              "internalType": "uint256",
              "name": "silverMoved",
              "type": "uint256"
            },
            {
              "internalType": "uint256",
              "name": "departureTime",
              "type": "uint256"
            },
            {
              "internalType": "uint256",
              "name": "arrivalTime",
              "type": "uint256"
            }
          ],
          "internalType": "struct DarkForestTypes.ArrivalData[]",
          "name": "ret",
          "type": "tuple[]"
        }
      ],
      "stateMutability": "view",
      "type": "function"
    },
    {
      "inputs": [],
      "name": "getPlanetCounts",
      "outputs": [
        {
          "internalType": "uint256[]",
          "name": "",
          "type": "uint256[]"
        }
      ],
      "stateMutability": "view",
      "type": "function"
    },
    {
      "inputs": [],
      "name": "getPlanetCumulativeRarities",
      "outputs": [
        {
          "internalType": "uint256[]",
          "name": "",
          "type": "uint256[]"
        }
      ],
      "stateMutability": "view",
      "type": "function"
    },
    {
      "inputs": [],
      "name": "getPlanetLevelThresholds",
      "outputs": [
        {
          "internalType": "uint256[]",
          "name": "",
          "type": "uint256[]"
        }
      ],
      "stateMutability": "view",
      "type": "function"
    },
    {
      "inputs": [],
      "name": "getUpgrades",
      "outputs": [
        {
          "components": [
            {
              "internalType": "uint256",
              "name": "popCapMultiplier",
              "type": "uint256"
            },
            {
              "internalType": "uint256",
              "name": "popGroMultiplier",
              "type": "uint256"
            },
            {
              "internalType": "uint256",
              "name": "rangeMultiplier",
              "type": "uint256"
            },
            {
              "internalType": "uint256",
              "name": "speedMultiplier",
              "type": "uint256"
            },
            {
              "internalType": "uint256",
              "name": "defMultiplier",
              "type": "uint256"
            }
          ],
          "internalType": "struct DarkForestTypes.Upgrade[4][3]",
          "name": "",
          "type": "tuple[4][3]"
        }
      ],
      "stateMutability": "view",
      "type": "function"
    },
    {
      "inputs": [
        {
          "internalType": "address",
          "name": "_adminAddress",
          "type": "address"
        },
        {
          "internalType": "address payable",
          "name": "_whitelistAddress",
          "type": "address"
        },
        {
          "internalType": "bool",
          "name": "_disableZKCheck",
          "type": "bool"
        }
      ],
      "name": "initialize",
      "outputs": [],
      "stateMutability": "nonpayable",
      "type": "function"
    },
    {
      "inputs": [
        {
          "internalType": "uint256[2]",
          "name": "_a",
          "type": "uint256[2]"
        },
        {
          "internalType": "uint256[2][2]",
          "name": "_b",
          "type": "uint256[2][2]"
        },
        {
          "internalType": "uint256[2]",
          "name": "_c",
          "type": "uint256[2]"
        },
        {
          "internalType": "uint256[3]",
          "name": "_input",
          "type": "uint256[3]"
        }
      ],
      "name": "initializePlayer",
      "outputs": [
        {
          "internalType": "uint256",
          "name": "",
          "type": "uint256"
        }
      ],
      "stateMutability": "nonpayable",
      "type": "function"
    },
    {
      "inputs": [
        {
          "internalType": "uint256",
          "name": "",
          "type": "uint256"
        }
      ],
      "name": "initializedPlanetCountByLevel",
      "outputs": [
        {
          "internalType": "uint256",
          "name": "",
          "type": "uint256"
        }
      ],
      "stateMutability": "view",
      "type": "function"
    },
    {
      "inputs": [
        {
          "internalType": "uint256",
          "name": "_location",
          "type": "uint256"
        },
        {
          "internalType": "address",
          "name": "_player",
          "type": "address"
        }
      ],
      "name": "isDelegated",
      "outputs": [
        {
          "internalType": "bool",
          "name": "",
          "type": "bool"
        }
      ],
      "stateMutability": "view",
      "type": "function"
    },
    {
      "inputs": [
        {
          "internalType": "address",
          "name": "",
          "type": "address"
        }
      ],
      "name": "isPlayerInitialized",
      "outputs": [
        {
          "internalType": "bool",
          "name": "",
          "type": "bool"
        }
      ],
      "stateMutability": "view",
      "type": "function"
    },
    {
      "inputs": [
        {
          "internalType": "uint256[2]",
          "name": "_a",
          "type": "uint256[2]"
        },
        {
          "internalType": "uint256[2][2]",
          "name": "_b",
          "type": "uint256[2][2]"
        },
        {
          "internalType": "uint256[2]",
          "name": "_c",
          "type": "uint256[2]"
        },
        {
          "internalType": "uint256[7]",
          "name": "_input",
          "type": "uint256[7]"
        }
      ],
      "name": "move",
      "outputs": [
        {
          "internalType": "uint256",
          "name": "",
          "type": "uint256"
        }
      ],
      "stateMutability": "nonpayable",
      "type": "function"
    },
    {
      "inputs": [],
      "name": "pause",
      "outputs": [],
      "stateMutability": "nonpayable",
      "type": "function"
    },
    {
      "inputs": [],
      "name": "paused",
      "outputs": [
        {
          "internalType": "bool",
          "name": "",
          "type": "bool"
        }
      ],
      "stateMutability": "view",
      "type": "function"
    },
    {
      "inputs": [
        {
          "internalType": "uint256",
          "name": "",
          "type": "uint256"
        }
      ],
      "name": "planetArrivals",
      "outputs": [
        {
          "internalType": "uint256",
          "name": "id",
          "type": "uint256"
        },
        {
          "internalType": "address",
          "name": "player",
          "type": "address"
        },
        {
          "internalType": "uint256",
          "name": "fromPlanet",
          "type": "uint256"
        },
        {
          "internalType": "uint256",
          "name": "toPlanet",
          "type": "uint256"
        },
        {
          "internalType": "uint256",
          "name": "popArriving",
          "type": "uint256"
        },
        {
          "internalType": "uint256",
          "name": "silverMoved",
          "type": "uint256"
        },
        {
          "internalType": "uint256",
          "name": "departureTime",
          "type": "uint256"
        },
        {
          "internalType": "uint256",
          "name": "arrivalTime",
          "type": "uint256"
        }
      ],
      "stateMutability": "view",
      "type": "function"
    },
    {
      "inputs": [
        {
          "internalType": "uint256",
          "name": "",
          "type": "uint256"
        }
      ],
      "name": "planetDefaultStats",
      "outputs": [
        {
          "internalType": "string",
          "name": "label",
          "type": "string"
        },
        {
          "internalType": "uint256",
          "name": "populationCap",
          "type": "uint256"
        },
        {
          "internalType": "uint256",
          "name": "populationGrowth",
          "type": "uint256"
        },
        {
          "internalType": "uint256",
          "name": "range",
          "type": "uint256"
        },
        {
          "internalType": "uint256",
          "name": "speed",
          "type": "uint256"
        },
        {
          "internalType": "uint256",
          "name": "defense",
          "type": "uint256"
        },
        {
          "internalType": "uint256",
          "name": "silverGrowth",
          "type": "uint256"
        },
        {
          "internalType": "uint256",
          "name": "silverCap",
          "type": "uint256"
        },
        {
          "internalType": "uint256",
          "name": "barbarianPercentage",
          "type": "uint256"
        }
      ],
      "stateMutability": "view",
      "type": "function"
    },
    {
      "inputs": [
        {
          "internalType": "uint256",
          "name": "",
          "type": "uint256"
        },
        {
          "internalType": "uint256",
          "name": "",
          "type": "uint256"
        }
      ],
      "name": "planetEvents",
      "outputs": [
        {
          "internalType": "uint256",
          "name": "id",
          "type": "uint256"
        },
        {
          "internalType": "enum DarkForestTypes.PlanetEventType",
          "name": "eventType",
          "type": "uint8"
        },
        {
          "internalType": "uint256",
          "name": "timeTrigger",
          "type": "uint256"
        },
        {
          "internalType": "uint256",
          "name": "timeAdded",
          "type": "uint256"
        }
      ],
      "stateMutability": "view",
      "type": "function"
    },
    {
      "inputs": [],
      "name": "planetEventsCount",
      "outputs": [
        {
          "internalType": "uint256",
          "name": "",
          "type": "uint256"
        }
      ],
      "stateMutability": "view",
      "type": "function"
    },
    {
      "inputs": [
        {
          "internalType": "uint256",
          "name": "",
          "type": "uint256"
        }
      ],
      "name": "planetIds",
      "outputs": [
        {
          "internalType": "uint256",
          "name": "",
          "type": "uint256"
        }
      ],
      "stateMutability": "view",
      "type": "function"
    },
    {
      "inputs": [
        {
          "internalType": "uint256",
          "name": "",
          "type": "uint256"
        }
      ],
      "name": "planetLevelThresholds",
      "outputs": [
        {
          "internalType": "uint256",
          "name": "",
          "type": "uint256"
        }
      ],
      "stateMutability": "view",
      "type": "function"
    },
    {
      "inputs": [
        {
          "internalType": "uint256",
          "name": "",
          "type": "uint256"
        }
      ],
      "name": "planets",
      "outputs": [
        {
          "internalType": "address",
          "name": "owner",
          "type": "address"
        },
        {
          "internalType": "uint256",
          "name": "range",
          "type": "uint256"
        },
        {
          "internalType": "uint256",
          "name": "speed",
          "type": "uint256"
        },
        {
          "internalType": "uint256",
          "name": "defense",
          "type": "uint256"
        },
        {
          "internalType": "uint256",
          "name": "population",
          "type": "uint256"
        },
        {
          "internalType": "uint256",
          "name": "populationCap",
          "type": "uint256"
        },
        {
          "internalType": "uint256",
          "name": "populationGrowth",
          "type": "uint256"
        },
        {
          "internalType": "enum DarkForestTypes.PlanetResource",
          "name": "planetResource",
          "type": "uint8"
        },
        {
          "internalType": "uint256",
          "name": "silverCap",
          "type": "uint256"
        },
        {
          "internalType": "uint256",
          "name": "silverGrowth",
          "type": "uint256"
        },
        {
          "internalType": "uint256",
          "name": "silver",
          "type": "uint256"
        },
        {
          "internalType": "uint256",
          "name": "planetLevel",
          "type": "uint256"
        }
      ],
      "stateMutability": "view",
      "type": "function"
    },
    {
      "inputs": [
        {
          "internalType": "uint256",
          "name": "",
          "type": "uint256"
        }
      ],
      "name": "planetsExtendedInfo",
      "outputs": [
        {
          "internalType": "bool",
          "name": "isInitialized",
          "type": "bool"
        },
        {
          "internalType": "uint256",
          "name": "createdAt",
          "type": "uint256"
        },
        {
          "internalType": "uint256",
          "name": "lastUpdated",
          "type": "uint256"
        },
        {
          "internalType": "uint256",
          "name": "perlin",
          "type": "uint256"
        },
        {
          "internalType": "enum DarkForestTypes.SpaceType",
          "name": "spaceType",
          "type": "uint8"
        },
        {
          "internalType": "uint256",
          "name": "upgradeState0",
          "type": "uint256"
        },
        {
          "internalType": "uint256",
          "name": "upgradeState1",
          "type": "uint256"
        },
        {
          "internalType": "uint256",
          "name": "upgradeState2",
          "type": "uint256"
        },
        {
          "internalType": "uint256",
          "name": "hatLevel",
          "type": "uint256"
        }
      ],
      "stateMutability": "view",
      "type": "function"
    },
    {
      "inputs": [
        {
          "internalType": "uint256",
          "name": "",
          "type": "uint256"
        }
      ],
      "name": "playerIds",
      "outputs": [
        {
          "internalType": "address",
          "name": "",
          "type": "address"
        }
      ],
      "stateMutability": "view",
      "type": "function"
    },
    {
      "inputs": [
        {
          "internalType": "uint256",
          "name": "_location",
          "type": "uint256"
        }
      ],
      "name": "refreshPlanet",
      "outputs": [],
      "stateMutability": "nonpayable",
      "type": "function"
    },
    {
      "inputs": [
        {
          "internalType": "uint256",
          "name": "_location",
          "type": "uint256"
        },
        {
          "internalType": "address",
          "name": "_player",
          "type": "address"
        }
      ],
      "name": "undelegatePlanet",
      "outputs": [],
      "stateMutability": "nonpayable",
      "type": "function"
    },
    {
      "inputs": [],
      "name": "unpause",
      "outputs": [],
      "stateMutability": "nonpayable",
      "type": "function"
    },
    {
      "inputs": [
        {
          "internalType": "uint256",
          "name": "_location",
          "type": "uint256"
        },
        {
          "internalType": "uint256",
          "name": "_branch",
          "type": "uint256"
        }
      ],
      "name": "upgradePlanet",
      "outputs": [
        {
          "internalType": "uint256",
          "name": "",
          "type": "uint256"
        },
        {
          "internalType": "uint256",
          "name": "",
          "type": "uint256"
        }
      ],
      "stateMutability": "nonpayable",
      "type": "function"
    },
    {
      "inputs": [
        {
          "internalType": "uint256",
          "name": "",
          "type": "uint256"
        },
        {
          "internalType": "uint256",
          "name": "",
          "type": "uint256"
        }
      ],
      "name": "upgrades",
      "outputs": [
        {
          "internalType": "uint256",
          "name": "popCapMultiplier",
          "type": "uint256"
        },
        {
          "internalType": "uint256",
          "name": "popGroMultiplier",
          "type": "uint256"
        },
        {
          "internalType": "uint256",
          "name": "rangeMultiplier",
          "type": "uint256"
        },
        {
          "internalType": "uint256",
          "name": "speedMultiplier",
          "type": "uint256"
        },
        {
          "internalType": "uint256",
          "name": "defMultiplier",
          "type": "uint256"
        }
      ],
      "stateMutability": "view",
      "type": "function"
    },
    {
      "inputs": [],
      "name": "withdraw",
      "outputs": [],
      "stateMutability": "nonpayable",
      "type": "function"
    },
    {
      "inputs": [],
      "name": "worldRadius",
      "outputs": [
        {
          "internalType": "uint256",
          "name": "",
          "type": "uint256"
        }
      ],
      "stateMutability": "view",
      "type": "function"
    }
  ],
  "bytecode": "0x608060405234801561001057600080fd5b506140a9806100206000396000f3fe6080604052600436106102655760003560e01c8063039e4e741461026a57806304d74a391461028c57806305b86be5146102c25780630767751a146102e457806308ae86141461030457806308d2e95a146103245780630ad98d41146103465780630af807781461036857806310d4abf2146103885780631e4abc3a146103465780631f2836b7146103a8578063221f7764146103c857806326c1e750146103e85780633ccfd60b146104205780633f324cf3146104355780633f4ba83a1461045557806340a727881461046a5780634eb0e9591461049757806352f666a7146104ac5780635c975abb146104d9578063695bd00c146104ee5780636c7ffeec146105105780636df0a9061461053d57806373a853811461055257806374b991061461058057806376af38b41461059557806378d1742b146105c957806378d4ce95146105de5780638151e1d2146105fe5780638456cb591461061e5780638a05b329146106335780638af9d562146106485780638f2839701461065d5780639184f0b61461067d578063975de6131461069d5780639fd4d4d4146106ca578063aaca42e9146106dd578063ab230321146106fd578063ad4890911461072d578063ae3f86191461074d578063b5549e6414610762578063bb4908f214610797578063c012b112146107ac578063c68b8126146107d9578063c8d503ea146107ee578063c93594911461080e578063ccf738e91461083f578063d6127ab414610874578063dacb613514610894578063de2edb91146108c1578063e4bbb5a8146108d6578063f6e46b60146108f6578063fc6f94681461090b578063fe80bb1214610920575b600080fd5b34801561027657600080fd5b5061028a61028536600461312b565b610935565b005b34801561029857600080fd5b506102ac6102a73660046131b1565b61096d565b6040516102b991906135ca565b60405180910390f35b3480156102ce57600080fd5b506102d7610b1c565b6040516102b9919061380b565b3480156102f057600080fd5b5061028a6102ff36600461312b565b610b74565b34801561031057600080fd5b5061028a61031f36600461315b565b610ba3565b34801561033057600080fd5b50610339610de4565b6040516102b9919061350e565b34801561035257600080fd5b5061035b610f7b565b6040516102b991906134f2565b34801561037457600080fd5b5061035b61038336600461307d565b610f80565b34801561039457600080fd5b5061035b6103a336600461312b565b611247565b3480156103b457600080fd5b5061035b6103c336600461312b565b611265565b3480156103d457600080fd5b5061035b6103e336600461312b565b611272565b3480156103f457600080fd5b5061040861040336600461312b565b61127f565b6040516102b99c9b9a9998979695949392919061338a565b34801561042c57600080fd5b5061028a6112ec565b34801561044157600080fd5b5061028a61045036600461312b565b611346565b34801561046157600080fd5b5061028a6114a3565b34801561047657600080fd5b5061048a6104853660046131b1565b611505565b6040516102b99190613413565b3480156104a357600080fd5b5061035b6115aa565b3480156104b857600080fd5b506104cc6104c736600461315b565b6115b0565b6040516102b99190613872565b3480156104e557600080fd5b506104cc611646565b3480156104fa57600080fd5b50610503611656565b6040516102b99190613473565b34801561051c57600080fd5b5061053061052b3660046131b1565b611706565b6040516102b99190613400565b34801561054957600080fd5b5061035b6117b0565b34801561055e57600080fd5b5061057261056d3660046131b1565b6117b5565b6040516102b9929190613f65565b34801561058c57600080fd5b5061035b6118c2565b3480156105a157600080fd5b506105b56105b036600461312b565b6118c7565b6040516102b9989796959493929190613efa565b3480156105d557600080fd5b506102d7611914565b3480156105ea57600080fd5b5061035b6105f9366004612fdd565b61196a565b34801561060a57600080fd5b5061028a61061936600461312b565b611c9b565b34801561062a57600080fd5b5061028a611cca565b34801561063f57600080fd5b5061035b611d33565b34801561065457600080fd5b506104cc611d39565b34801561066957600080fd5b5061028a610678366004612f77565b611d49565b34801561068957600080fd5b506104cc610698366004612f77565b611dbb565b3480156106a957600080fd5b506106bd6106b83660046131b1565b611dd0565b6040516102b99190613693565b61028a6106d836600461312b565b611f48565b3480156106e957600080fd5b506102d76106f83660046131b1565b61204b565b34801561070957600080fd5b5061071d6107183660046131b1565b6120d5565b6040516102b99493929190613f39565b34801561073957600080fd5b5061035b61074836600461312b565b61211b565b34801561075957600080fd5b506102d7612128565b34801561076e57600080fd5b5061078261077d36600461312b565b61217e565b6040516102b9999897969594939291906138f0565b3480156107a357600080fd5b5061035b61225e565b3480156107b857600080fd5b506107cc6107c736600461312b565b612264565b6040516102b9919061335d565b3480156107e557600080fd5b5061035b61228b565b3480156107fa57600080fd5b506104cc61080936600461312b565b612291565b34801561081a57600080fd5b5061082e6108293660046131b1565b6122b8565b6040516102b995949392919061384f565b34801561084b57600080fd5b5061085f61085a36600461312b565b6122fa565b6040516102b99998979695949392919061387d565b34801561088057600080fd5b5061028a61088f36600461315b565b61234b565b3480156108a057600080fd5b506108b46108af36600461312b565b61249c565b6040516102b991906134fb565b3480156108cd57600080fd5b5061035b612681565b3480156108e257600080fd5b5061028a6108f1366004612f93565b612687565b34801561090257600080fd5b5061035b612942565b34801561091757600080fd5b506107cc612947565b34801561092c57600080fd5b5061035b612956565b6033546001600160a01b031633146109685760405162461bcd60e51b815260040161095f90613a00565b60405180910390fd5b607755565b60608282036001600160401b038111801561098757600080fd5b506040519080825280602002602001820160405280156109c157816020015b6109ae612bfd565b8152602001906001900390816109a65790505b509050825b82811015610b1557607d6000607883815481106109df57fe5b90600052602060002001548152602001908152602001600020604051806101400160405290816000820160009054906101000a900460ff161515151581526020016001820154815260200160028201548152602001600382015481526020016004820160009054906101000a900460ff166002811115610a5b57fe5b6002811115610a6657fe5b81526020016005820154815260200160068201548152602001600782015481526020016008820154815260200160098201805480602002602001604051908101604052809291908181526020018280548015610aeb57602002820191906000526020600020905b81546001600160a01b03168152600190910190602001808311610acd575b5050505050815250508285830381518110610b0257fe5b60209081029190910101526001016109c6565b5092915050565b60606035805480602002602001604051908101604052809291908181526020018280548015610b6a57602002820191906000526020600020905b815481526020019060010190808311610b56575b5050505050905090565b6033546001600160a01b03163314610b9e5760405162461bcd60e51b815260040161095f90613a00565b607655565b603454600160a01b900460ff1615610bcd5760405162461bcd60e51b815260040161095f90613d38565b6075544210610bee5760405162461bcd60e51b815260040161095f90613944565b6000828152607d602052604090205460ff161515600114610c215760405162461bcd60e51b815260040161095f906139cd565b610c2a82611346565b6000828152607c60205260409020546001600160a01b03163314610c605760405162461bcd60e51b815260040161095f90613ade565b610c6a82826115b0565b610c865760405162461bcd60e51b815260040161095f90613d92565b60005b6000838152607d6020526040902060090154811015610ddf576000838152607d60205260409020600901805482908110610cbf57fe5b6000918252602090912001546001600160a01b0383811691161415610dd7576000838152607d6020526040902060090180546000198101908110610cff57fe5b6000918252602080832090910154858352607d909152604090912060090180546001600160a01b039092169183908110610d3557fe5b600091825260208083209190910180546001600160a01b0319166001600160a01b039490941693909317909255848152607d90915260409020600901805480610d7a57fe5b600082815260209020810160001990810180546001600160a01b03191690550190556040517f28c5d715b75d0b08d684e1ae26b95d8ff180d05ae50321619ee116e9b88164ed90610dce9085908590613ee3565b60405180910390a15b600101610c89565b505050565b60355460609081906001600160401b0381118015610e0157600080fd5b50604051908082528060200260200182016040528015610e3b57816020015b610e28612c5d565b815260200190600190039081610e205790505b50905060005b603554811015610f755760388181548110610e5857fe5b600091825260209182902060408051600993909302909101805460026001821615610100026000190190911604601f81018590049094028301610140908101909252610120830184815292939092849290918491840182828015610efd5780601f10610ed257610100808354040283529160200191610efd565b820191906000526020600020905b815481529060010190602001808311610ee057829003601f168201915b5050505050815260200160018201548152602001600282015481526020016003820154815260200160048201548152602001600582015481526020016006820154815260200160078201548152602001600882015481525050828281518110610f6257fe5b6020908102919091010152600101610e41565b50905090565b600881565b603454600090600160a01b900460ff1615610fad5760405162461bcd60e51b815260040161095f90613d38565b6075544210610fce5760405162461bcd60e51b815260040161095f90613944565b8151602083015160408401516060850151608086015160a087015160c0880151603454600160a81b900460ff166110db57611007612ca9565b6040518060a0016040528089815260200188815260200187815260200186815260200185815250905073__Verifier______________________________63275abc628e8e8e856040518563ffffffff1660e01b815260040161106d94939291906137ba565b60206040518083038186803b15801561108557600080fd5b505af4158015611099573d6000803e3d6000fd5b505050506040513d601f19601f820116820180604052508101906110bd919061310f565b6110d95760405162461bcd60e51b815260040161095f90613c84565b505b607a548411156110fd5760405162461bcd60e51b815260040161095f90613e26565b6000868152607d602052604090205460ff166111245761111f8686600061295b565b61115b565b61112d86611346565b6000868152607f602052604090205460071161115b5760405162461bcd60e51b815260040161095f9061399d565b61116487611346565b607b546040516306e5297d60e31b815273__DarkForestPlanet______________________916337294be8916111b2918b918b91899189918991607c90607d90607f90608090600401613f9b565b60006040518083038186803b1580156111ca57600080fd5b505af41580156111de573d6000803e3d6000fd5b5050607b80546001019055506111f49050612b5b565b7f73589d8f04c4286010ba8cbf687f804de4f668cb96b2d8c73f310ceb90a48fc06001607b540360405161122891906134f2565b60405180910390a15050607b54600019019a9950505050505050505050565b6036818154811061125457fe5b600091825260209091200154905081565b6037818154811061125457fe5b6035818154811061125457fe5b607c60205260009081526040902080546001820154600283015460038401546004850154600586015460068701546007880154600889015460098a0154600a8b0154600b909b01546001600160a01b03909a169a98999798969795969495939460ff90931693919290918c565b6033546001600160a01b031633146113165760405162461bcd60e51b815260040161095f90613a00565b6040513390303180156108fc02916000818181858888f19350505050158015611343573d6000803e3d6000fd5b50565b603454604051633af32abf60e01b81526001600160a01b0390911690633af32abf9061137690339060040161335d565b60206040518083038186803b15801561138e57600080fd5b505afa1580156113a2573d6000803e3d6000fd5b505050506040513d601f19601f820116820180604052508101906113c6919061310f565b6113e25760405162461bcd60e51b815260040161095f90613b15565b603454600160a01b900460ff161561140c5760405162461bcd60e51b815260040161095f90613d38565b607554421061142d5760405162461bcd60e51b815260040161095f90613944565b60405163180287b760e01b815273__DarkForestPlanet______________________9063180287b790611470908490607c90607d90607f9060809060040161384f565b60006040518083038186803b15801561148857600080fd5b505af415801561149c573d6000803e3d6000fd5b5050505050565b6033546001600160a01b031633146114cd5760405162461bcd60e51b815260040161095f90613a00565b603454600160a01b900460ff166114f65760405162461bcd60e51b815260040161095f90613df4565b6034805460ff60a01b19169055565b6060808383036001600160401b038111801561152057600080fd5b5060405190808252806020026020018201604052801561155457816020015b606081526020019060019003908161153f5790505b509050835b838110156115a2576115816078828154811061157157fe5b906000526020600020015461249c565b828683038151811061158f57fe5b6020908102919091010152600101611559565b509392505050565b607a5481565b604051631f57103160e21b815260009073__DarkForestUtils_______________________90637d5c40c4906115ef90607d90879087906004016138d1565b60206040518083038186803b15801561160757600080fd5b505af415801561161b573d6000803e3d6000fd5b505050506040513d601f19601f8201168201806040525081019061163f919061310f565b9392505050565b603454600160a01b900460ff1681565b61165e612cc7565b6040805160608101909152603960036000835b828210156116fd57604080516080810190915260148302850160046000835b828210156116ea578382600502016040518060a00160405290816000820154815260200160018201548152602001600282015481526020016003820154815260200160048201548152505081526020019060010190611690565b5050505081526020019060010190611671565b50505050905090565b60608282036001600160401b038111801561172057600080fd5b5060405190808252806020026020018201604052801561174a578160200160208202803683370190505b509050825b82811015610b15576079818154811061176457fe5b9060005260206000200160009054906101000a90046001600160a01b0316828583038151811061179057fe5b6001600160a01b039092166020928302919091019091015260010161174f565b601181565b6034546000908190600160a01b900460ff16156117e45760405162461bcd60e51b815260040161095f90613d38565b60755442106118055760405162461bcd60e51b815260040161095f90613944565b61180e84611346565b604051633097022560e21b815273__DarkForestPlanet______________________9063c25c0894906118539087908790607c90607d90603890603990600401613f73565b60006040518083038186803b15801561186b57600080fd5b505af415801561187f573d6000803e3d6000fd5b505050507f1c3559377dd1e586346f593aa9785e8eea8298f2d2ce1c2ef50428563d8ba84c846040516118b291906134f2565b60405180910390a1509192909150565b600481565b6080602052600090815260409020805460018201546002830154600384015460048501546005860154600687015460079097015495966001600160a01b0390951695939492939192909188565b60606036805480602002602001604051908101604052809291908181526020018280548015610b6a5760200282019190600052602060002090815481526020019060010190808311610b56575050505050905090565b603454604051633af32abf60e01b81526000916001600160a01b031690633af32abf9061199b90339060040161335d565b60206040518083038186803b1580156119b357600080fd5b505afa1580156119c7573d6000803e3d6000fd5b505050506040513d601f19601f820116820180604052508101906119eb919061310f565b611a075760405162461bcd60e51b815260040161095f90613b15565b603454600160a01b900460ff1615611a315760405162461bcd60e51b815260040161095f90613d38565b6075544210611a525760405162461bcd60e51b815260040161095f90613944565b603454600160a81b900460ff16611b0c576040516323bfe25560e21b815273__Verifier______________________________90638eff895490611aa090889088908890889060040161375d565b60206040518083038186803b158015611ab857600080fd5b505af4158015611acc573d6000803e3d6000fd5b505050506040513d601f19601f82011682018060405250810190611af0919061310f565b611b0c5760405162461bcd60e51b815260040161095f90613aad565b8151602080840151604080860151336000908152607e90945292205490919060ff1615611b4b5760405162461bcd60e51b815260040161095f90613a35565b6000838152607d602052604090205460ff1615611b7a5760405162461bcd60e51b815260040161095f90613c08565b607a54811115611b9c5760405162461bcd60e51b815260040161095f90613bb5565b600f8210611bbc5760405162461bcd60e51b815260040161095f90613b48565b336000818152607e60205260408120805460ff1916600190811790915560798054808301825592527f957bbdc7fad0dec56e7c96af4a3ab63aa9daf934a52ffce891945b7fb622d79190910180546001600160a01b031916909217909155611c27908490849061295b565b6000838152607c6020526040902080546001600160a01b0319163317815561c350600490910155611c56612b5b565b7f5765df5ce7cf4175ef997923b4936159dcf3cea059434dab4643214d690a2b953384604051611c87929190613371565b60405180910390a150909695505050505050565b6033546001600160a01b03163314611cc55760405162461bcd60e51b815260040161095f90613a00565b607555565b6033546001600160a01b03163314611cf45760405162461bcd60e51b815260040161095f90613a00565b603454600160a01b900460ff1615611d1e5760405162461bcd60e51b815260040161095f90613e5b565b6034805460ff60a01b1916600160a01b179055565b60795490565b603454600160a81b900460ff1681565b6033546001600160a01b03163314611d735760405162461bcd60e51b815260040161095f90613a00565b6001600160a01b038116611d995760405162461bcd60e51b815260040161095f9061396d565b603380546001600160a01b0319166001600160a01b0392909216919091179055565b607e6020526000908152604090205460ff1681565b60608282036001600160401b0381118015611dea57600080fd5b50604051908082528060200260200182016040528015611e2457816020015b611e11612cf4565b815260200190600190039081611e095790505b509050825b82811015610b1557607c600060788381548110611e4257fe5b90600052602060002001548152602001908152602001600020604051806101800160405290816000820160009054906101000a90046001600160a01b03166001600160a01b03166001600160a01b031681526020016001820154815260200160028201548152602001600382015481526020016004820154815260200160058201548152602001600682015481526020016007820160009054906101000a900460ff166001811115611ef057fe5b6001811115611efb57fe5b81526020016008820154815260200160098201548152602001600a8201548152602001600b820154815250508285830381518110611f3557fe5b6020908102919091010152600101611e29565b6000818152607d602052604090205460ff161515600114611f7b5760405162461bcd60e51b815260040161095f906139cd565b611f8481611346565b6000818152607c60205260409020546001600160a01b03163314611fba5760405162461bcd60e51b815260040161095f90613a6c565b6000818152607d6020526040902060080154670de0b6b3a7640000901b34811115611ff75760405162461bcd60e51b815260040161095f90613dc3565b6000828152607d60205260409081902060080180546001019055517f444d0a208ac492e147b2e0e5ffeeb6e6be2c122d95f3da8f45e26868785c84eb9061203f9084906134f2565b60405180910390a15050565b60608282036001600160401b038111801561206557600080fd5b5060405190808252806020026020018201604052801561208f578160200160208202803683370190505b509050825b82811015610b1557607881815481106120a957fe5b906000526020600020015482858303815181106120c257fe5b6020908102919091010152600101612094565b607f60205281600052604060002081815481106120ee57fe5b6000918252602090912060049091020180546001820154600283015460039093015491945060ff16925084565b6078818154811061125457fe5b60606037805480602002602001604051908101604052809291908181526020018280548015610b6a5760200282019190600052602060002090815481526020019060010190808311610b56575050505050905090565b6038818154811061218b57fe5b60009182526020918290206009919091020180546040805160026001841615610100026000190190931692909204601f8101859004850283018501909152808252919350918391908301828280156122245780601f106121f957610100808354040283529160200191612224565b820191906000526020600020905b81548152906001019060200180831161220757829003601f168201915b5050505050908060010154908060020154908060030154908060040154908060050154908060060154908060070154908060080154905089565b607b5481565b6079818154811061227157fe5b6000918252602090912001546001600160a01b0316905081565b60785490565b7dc19139cb84c680a6e14116da06056174a0cfa121e6e5c2450f87d64fc00081105b919050565b603982600381106122c557fe5b6014020181600481106122d457fe5b600502018054600182015460028301546003840154600490940154929550909350919085565b607d6020526000908152604090208054600182015460028301546003840154600485015460058601546006870154600788015460089098015460ff9788169896979596949590931693919290919089565b603454600160a01b900460ff16156123755760405162461bcd60e51b815260040161095f90613d38565b60755442106123965760405162461bcd60e51b815260040161095f90613944565b6000828152607d602052604090205460ff1615156001146123c95760405162461bcd60e51b815260040161095f906139cd565b6123d282611346565b6000828152607c60205260409020546001600160a01b031633146124085760405162461bcd60e51b815260040161095f90613ade565b61241282826115b0565b1561242f5760405162461bcd60e51b815260040161095f90613d60565b6000828152607d602090815260408083206009018054600181018255908452919092200180546001600160a01b0319166001600160a01b038416179055517f843a291790c6bf4cb530efd7a7338dbef8bb1c23d50f1fbf31e0e784a45315d39061203f9084908490613ee3565b60606000805b6000848152607f6020526040902054811015612506576000848152607f602052604081208054839081106124d257fe5b600091825260209091206001600490920201015460ff1680156124f157fe5b14156124fe576001820191505b6001016124a2565b50806001600160401b038111801561251d57600080fd5b5060405190808252806020026020018201604052801561255757816020015b612544612d69565b81526020019060019003908161253c5790505b5091506000805b6000858152607f6020526040902054811015612679576000858152607f6020526040812080548390811061258e57fe5b600091825260209091206001600490920201015460ff1680156125ad57fe5b1415612671576000858152607f6020526040812080546080929190849081106125d257fe5b600091825260208083206004928302015484528381019490945260409283019091208251610100810184528154815260018201546001600160a01b031694810194909452600281015492840192909252600382015460608401528101546080830152600581015460a0830152600681015460c08301526007015460e0820152845185908490811061265f57fe5b60209081029190910101526001909101905b60010161255e565b505050919050565b61400081565b600054610100900460ff16806126a057506126a0612bf7565b806126ae575060005460ff16155b6126ca5760405162461bcd60e51b815260040161095f90613cb5565b600054610100900460ff161580156126f5576000805460ff1961ff0019909116610100171660011790555b603380546001600160a01b038087166001600160a01b03199283161790925560348054851515600160a81b0261ffff60a01b1994881691909316179290921617905563652d3ec06075556032607655600c607755604080516101008101825263010000008152623fffd06020820152620fffc4918101919091526203ffc1606082015261ffc06080820152613fc060a0820152610fc060c08201526103c060e08201526127a6906035906008612db7565b50604051635dfd086d60e01b815273__DarkForestInitialize__________________90635dfd086d906127df906038906004016134f2565b60006040518083038186803b1580156127f757600080fd5b505af415801561280b573d6000803e3d6000fd5b505060405163e771ed6b60e01b815273__DarkForestInitialize__________________925063e771ed6b9150612847906039906004016134f2565b60006040518083038186803b15801561285f57600080fd5b505af4158015612873573d6000803e3d6000fd5b50506040805161010081018252600080825260208201819052918101829052606081018290526080810182905260a0810182905260c0810182905260e08101919091526128c69250603791506008612e0a565b5060005b603554811015612921576036614000603583815481106128e657fe5b90600052602060002001546301000000816128fd57fe5b835460018181018655600095865260209095209290910492909202910155016128ca565b5061292a612b5b565b801561293c576000805461ff00191690555b50505050565b606481565b6033546001600160a01b031681565b600f81565b61296483612291565b6129805760405162461bcd60e51b815260040161095f90613d03565b60008073__DarkForestUtils_______________________6339818ecc8686600f60116008806004603560386040518a63ffffffff1660e01b81526004016129d099989796959493929190613fe0565b604080518083038186803b1580156129e757600080fd5b505af41580156129fb573d6000803e3d6000fd5b505050506040513d601f19601f82011682018060405250810190612a1f919061318a565b915091508215612a47578115612a475760405162461bcd60e51b815260040161095f90613c3f565b6000858152607c60209081526040808320607d9092529091206038805473__DarkForestPlanet______________________93639414ee04939092909187908110612a8e57fe5b9060005260206000209060090201886064600f6011898b8f6040518b63ffffffff1660e01b8152600401612acb9a99989796959493929190613e8b565b60006040518083038186803b158015612ae357600080fd5b505af4158015612af7573d6000803e3d6000fd5b505060788054600181810183556000929092527f8dc6fb69531d98d70dc0420e638d2dfd04e09e1ec783ede9aac77da9c5a0dac40188905560378054919350915084908110612b4257fe5b6000918252602090912001805490910190555050505050565b60795460765460775460405163c30403df60e01b815273__DarkForestUtils_______________________9363c30403df93612ba29360379360369392919060040161384f565b60206040518083038186803b158015612bba57600080fd5b505af4158015612bce573d6000803e3d6000fd5b505050506040513d601f19601f82011682018060405250810190612bf29190613143565b607a55565b303b1590565b60405180610140016040528060001515815260200160008152602001600081526020016000815260200160006002811115612c3457fe5b815260200160008152602001600081526020016000815260200160008152602001606081525090565b6040518061012001604052806060815260200160008152602001600081526020016000815260200160008152602001600081526020016000815260200160008152602001600081525090565b6040518060a001604052806005906020820280368337509192915050565b60405180606001604052806003905b612cde612e4a565b815260200190600190039081612cd65790505090565b60405180610180016040528060006001600160a01b0316815260200160008152602001600081526020016000815260200160008152602001600081526020016000815260200160006001811115612d4757fe5b8152602001600081526020016000815260200160008152602001600081525090565b6040518061010001604052806000815260200160006001600160a01b031681526020016000815260200160008152602001600081526020016000815260200160008152602001600081525090565b828054828255906000526020600020908101928215612dfa579160200282015b82811115612dfa578251829063ffffffff16905591602001919060010190612dd7565b50612e06929150612e77565b5090565b828054828255906000526020600020908101928215612dfa579160200282015b82811115612dfa578251829060ff16905591602001919060010190612e2a565b60405180608001604052806004905b612e61612e8c565b815260200190600190039081612e595790505090565b5b80821115612e065760008155600101612e78565b6040518060a0016040528060008152602001600081526020016000815260200160008152602001600081525090565b600082601f830112612ecb578081fd5b6040612ed68161401f565b9150818385608086011115612eea57600080fd5b60005b6002811015612f1457612f008783612f1e565b835260209092019190830190600101612eed565b5050505092915050565b600082601f830112612f2e578081fd5b612f38604061401f565b9050808284604085011115612f4c57600080fd5b60005b6002811015612f6e578135835260209283019290910190600101612f4f565b50505092915050565b600060208284031215612f88578081fd5b813561163f81614050565b600080600060608486031215612fa7578182fd5b8335612fb281614050565b92506020840135612fc281614050565b91506040840135612fd281614065565b809150509250925092565b600080600080610160808688031215612ff4578182fd5b612ffe8787612f1e565b945061300d8760408801612ebb565b935061301c8760c08801612f1e565b92508661011f87011261302d578182fd5b613037606061401f565b80610100880189848a01111561304b578485fd5b8493505b600384101561306f5780358352600193909301926020928301920161304f565b509598949750929550505050565b6000806000806101e0808688031215613094578485fd5b61309e8787612f1e565b94506130ad8760408801612ebb565b93506130bc8760c08801612f1e565b92508661011f8701126130cd578182fd5b6130d760e061401f565b80610100880189848a0111156130eb578485fd5b8493505b600784101561306f578035835260019390930192602092830192016130ef565b600060208284031215613120578081fd5b815161163f81614065565b60006020828403121561313c578081fd5b5035919050565b600060208284031215613154578081fd5b5051919050565b6000806040838503121561316d578182fd5b82359150602083013561317f81614050565b809150509250929050565b6000806040838503121561319c578182fd5b8251915060208301516002811061317f578182fd5b600080604083850312156131c3578182fd5b50508035926020909101359150565b6001600160a01b03169052565b6000815180845260208085019450808401835b838110156132175781516001600160a01b0316875295820195908201906001016131f2565b509495945050505050565b8060005b600281101561293c5761323a8483516132d1565b6040939093019260209190910190600101613226565b6000815180845260208085019450808401835b8381101561321757815180518852838101516001600160a01b03168489015260408082015190890152606080820151908901526080808201519089015260a0808201519089015260c0808201519089015260e090810151908801526101009096019590820190600101613263565b8060005b600281101561293c5781518452602093840193909101906001016132d5565b15159052565b6002811061330457fe5b9052565b6003811061330457fe5b60008151808452815b818110156133375760208185018101518683018201520161331b565b818111156133485782602083870101525b50601f01601f19169290920160200192915050565b6001600160a01b0391909116815260200190565b6001600160a01b03929092168252602082015260400190565b6001600160a01b038d168152602081018c9052604081018b9052606081018a90526080810189905260a0810188905260c0810187905261018081016133ce87614045565b60e0830152856101008301528461012083015283610140830152826101608301529d9c50505050505050505050505050565b60006020825261163f60208301846131df565b6000602080830181845280855180835260408601915060408482028701019250838701855b8281101561346657603f19888603018452613454858351613250565b94509285019290850190600101613438565b5092979650505050505050565b610780810181836000805b6003811015612f1457825184835b60048110156134d857825180518352602080820151818501526040808301519085015260608083015190850152608091820151918401919091529092019160a09091019060010161348c565b50505061028093909301926020929092019160010161347e565b90815260200190565b60006020825261163f6020830184613250565b60208082528251828201819052600091906040908185019080840286018301878501865b838110156135bc57603f198984030185528151610120815181865261355982870182613312565b838b0151878c0152898401518a880152606080850151908801526080808501519088015260a0808501519088015260c0808501519088015260e0808501519088015261010093840151939096019290925250509386019390860190600101613532565b509098975050505050505050565b60208082528251828201819052600091906040908185019080840286018301878501865b838110156135bc57603f19898403018552815161014061360f8583516132f4565b81890151858a015287820151888601526060808301519086015260808083015161363b82880182613308565b505060a0828101519086015260c0808301519086015260e0808301519086015261010080830151908601526101209182015191850181905261367f818601836131df565b9689019694505050908601906001016135ee565b602080825282518282018190526000919060409081850190868401855b828110156137505781516136c58582516131d2565b80870151858801528581015186860152606080820151908601526080808201519086015260a0808201519086015260c0808201519086015260e08082015161370f828801826132fa565b5050610100818101519086015261012080820151908601526101408082015190860152610160908101519085015261018090930192908501906001016136b0565b5091979650505050505050565b610160810161376c82876132d1565b6137796040830186613222565b61378660c08301856132d1565b61010082018360005b60038110156137ae57815183526020928301929091019060010161378f565b50505095945050505050565b6101a081016137c982876132d1565b6137d66040830186613222565b6137e360c08301856132d1565b61010082018360005b60058110156137ae5781518352602092830192909101906001016137ec565b6020808252825182820181905260009190848201906040850190845b8181101561384357835183529284019291840191600101613827565b50909695505050505050565b948552602085019390935260408401919091526060830152608082015260a00190565b901515815260200190565b6000610120820190508a151582528960208301528860408301528760608301526138aa6080830188613308565b8560a08301528460c08301528360e0830152826101008301529a9950505050505050505050565b92835260208301919091526001600160a01b0316604082015260600190565b60006101208083526139048184018d613312565b602084019b909b52505060408101979097526060870195909552608086019390935260a085019190915260c084015260e083015261010090910152919050565b6020808252600f908201526e11d85b59481a185d9948195b991959608a1b604082015260600190565b60208082526016908201527506e65774f776e65722063616e6e6f74206265203078360541b604082015260600190565b602080825260169082015275141b185b995d081a5cc81c985d194b5b1a5b5a5d195960521b604082015260600190565b602080825260199082015278141b185b995d081a5cc81b9bdd081a5b9a5d1a585b1a5e9959603a1b604082015260600190565b6020808252601b908201527a29b2b73232b91034b9903737ba10309033b0b6b29036b0b9ba32b960291b604082015260600190565b6020808252601d908201527f506c6179657220697320616c726561647920696e697469616c697a6564000000604082015260600190565b60208082526021908201527f4f6e6c79206f776e65722063616e206275792068617420666f7220706c616e656040820152601d60fa1b606082015260800190565b6020808252601790820152764661696c656420696e69742070726f6f6620636865636b60481b604082015260600190565b6020808252601e908201527f4f6e6c79206f776e65722063616e2064656c656761746520706c616e65740000604082015260600190565b602080825260199082015278141b185e595c881a5cc81b9bdd081dda1a5d195b1a5cdd1959603a1b604082015260600190565b60208082526047908201527f496e6974206e6f7420616c6c6f77656420696e207065726c696e2076616c756560408201527f2067726561746572207468616e206f7220657175616c20746f207468652074686060820152661c995cda1bdb1960ca1b608082015260a00190565b60208082526033908201527f496e69742072616469757320697320626967676572207468616e207468652063604082015272757272656e7420776f726c642072616469757360681b606082015260800190565b6020808252601d908201527f506c616e657420697320616c726561647920696e697469616c697a6564000000604082015260600190565b60208082526025908201527f43616e206f6e6c7920696e697469616c697a65206f6e20706c616e6574206c65604082015264076656c20360dc1b606082015260800190565b6020808252601790820152764661696c6564206d6f76652070726f6f6620636865636b60481b604082015260600190565b6020808252602e908201527f436f6e747261637420696e7374616e63652068617320616c726561647920626560408201526d195b881a5b9a5d1a585b1a5e995960921b606082015260800190565b6020808252601b908201527a2737ba1030903b30b634b210383630b732ba103637b1b0ba34b7b760291b604082015260600190565b6020808252600e908201526d11d85b59481a5cc81c185d5cd95960921b604082015260600190565b602080825260189082015277141b185b995d08185b1c9958591e4819195b1959d85d195960421b604082015260600190565b602080825260179082015276141b185b995d081a5cc81b9bdd0819195b1959d85d1959604a1b604082015260600190565b602080825260179082015276125b9cdd59999a58da595b9d081d985b1d59481cd95b9d604a1b604082015260600190565b60208082526018908201527711d85b59481a5cc8185b1c9958591e481d5b9c185d5cd95960421b604082015260600190565b6020808252818101527f417474656d7074696e6720746f206d6f7665206f7574206f6620626f756e6473604082015260600190565b60208082526016908201527511d85b59481a5cc8185b1c9958591e481c185d5cd95960521b604082015260600190565b6000610140820190508b82528a60208301528960408301528860608301528760808301528660a08301528560c0830152613ec485614045565b60e0830152610100820193909352610120015298975050505050505050565b9182526001600160a01b0316602082015260400190565b9788526001600160a01b0396909616602088015260408701949094526060860192909252608085015260a084015260c083015260e08201526101000190565b8481526080810160018510613f4a57fe5b84602083015283604083015282606083015295945050505050565b918252602082015260400190565b958652602086019490945260408501929092526060840152608083015260a082015260c00190565b998a5260208a019890985260408901969096526060880194909452608087019290925260a086015260c085015260e08401526101008301526101208201526101400190565b988952602089019790975260408801959095526060870193909352608086019190915260a085015260c084015260e08301526101008201526101200190565b6040518181016001600160401b038111828210171561403d57600080fd5b604052919050565b80600281106122b357fe5b6001600160a01b038116811461134357600080fd5b801515811461134357600080fdfea2646970667358221220c19a03e56cfd920f8137a87cc9cedce9eb5614bfe7d24882af323fcf3d7037a764736f6c634300060c0033",
  "compiler": {
    "name": "solc",
    "version": "0.6.12+commit.27d51765.Emscripten.clang",
    "optimizer": {
      "enabled": true,
      "runs": 1
    },
    "evmVersion": "petersburg"
  }
}