{
  "fileName": "DarkForestCore.sol",
  "contractName": "DarkForestCore",
  "source": "// SPDX-License-Identifier: UNLICENSED\npragma solidity ^0.6.9;\npragma experimental ABIEncoderV2;\n\n// Import base Initializable contract\nimport \"@openzeppelin/contracts-upgradeable/proxy/Initializable.sol\";\nimport \"@openzeppelin/contracts-upgradeable/math/SafeMathUpgradeable.sol\";\nimport \"@openzeppelin/contracts-upgradeable/math/MathUpgradeable.sol\";\nimport \"./Verifier.sol\";\nimport \"./DarkForestStorageV1.sol\";\nimport \"./DarkForestTokens.sol\";\nimport \"./DarkForestUtils.sol\";\nimport \"./DarkForestPlanet.sol\";\nimport \"./DarkForestLazyUpdate.sol\";\nimport \"./DarkForestInitialize.sol\";\n\n// .______       _______     ___       _______  .___  ___.  _______\n// |   _  \\     |   ____|   /   \\     |       \\ |   \\/   | |   ____|\n// |  |_)  |    |  |__     /  ^  \\    |  .--.  ||  \\  /  | |  |__\n// |      /     |   __|   /  /_\\  \\   |  |  |  ||  |\\/|  | |   __|\n// |  |\\  \\----.|  |____ /  _____  \\  |  '--'  ||  |  |  | |  |____\n// | _| `._____||_______/__/     \\__\\ |_______/ |__|  |__| |_______|\n//\n// READ THIS FIRST BEFORE EDITING ANYTHING IN THIS FILE:\n// https://docs.openzeppelin.com/learn/upgrading-smart-contracts#limitations-of-contract-upgrades\n//\n// DO NOT ADD ANY STORAGE VARIABLES IN THIS FILE\n// IT SHOULD BELONG AT STORAGE CONTRACTS\n// ADDING STORAGE VARIABLES HERE WI LL BLOCK ANY STORAGE CONTRACTS FROM EVER\n// ADDING THEIR OWN VARIABLES EVER AGAIN.\n\ncontract DarkForestCore is Initializable, DarkForestStorageV1 {\n    using ABDKMath64x64 for *;\n    using SafeMathUpgradeable for *;\n    using MathUpgradeable for uint256;\n\n    event PlayerInitialized(address player, uint256 loc);\n    event ArrivalQueued(uint256 arrivalId);\n    event PlanetUpgraded(uint256 loc);\n    event BoughtHat(uint256 loc);\n    event PlanetTransferred(uint256 loc, address player);\n    event FoundArtifact(uint256 loc, address player, uint256 artifactId);\n    event DepositedArtifact(uint256 loc, address player, uint256 artifactId);\n    event WithdrewArtifact(uint256 loc, address player, uint256 artifactId);\n\n    function initialize(\n        address _adminAddress,\n        address payable _whitelistAddress,\n        address payable _tokensAddress,\n        bool _disableZKCheck\n    ) public initializer {\n        adminAddress = _adminAddress;\n        whitelist = Whitelist(_whitelistAddress);\n        tokens = DarkForestTokens(_tokensAddress);\n\n        paused = false;\n\n        DISABLE_ZK_CHECK = _disableZKCheck;\n\n        tokenMintEndTimestamp = 1611584314; // a month from contract deploy - 01/25/21 2:18:34 GMT\n        target4RadiusConstant = 800;\n\n        planetLevelThresholds = [\n            16777216,\n            4194256,\n            1048516,\n            262081,\n            65472,\n            16320,\n            4032,\n            960\n        ];\n\n        DarkForestInitialize.initializeDefaults(planetDefaultStats);\n        DarkForestInitialize.initializeUpgrades(upgrades);\n\n        initializedPlanetCountByLevel = [0, 0, 0, 0, 0, 0, 0, 0];\n        for (uint256 i = 0; i < planetLevelThresholds.length; i += 1) {\n            cumulativeRarities.push(\n                (2**24 / planetLevelThresholds[i]) * PLANET_RARITY\n            );\n        }\n\n        _updateWorldRadius();\n    }\n\n    //////////////////////\n    /// ACCESS CONTROL ///\n    //////////////////////\n    modifier onlyAdmin() {\n        require(msg.sender == adminAddress, \"Sender is not a game master\");\n        _;\n    }\n\n    modifier onlyWhitelisted() {\n        require(\n            whitelist.isWhitelisted(msg.sender),\n            \"Player is not whitelisted\"\n        );\n        _;\n    }\n\n    modifier notPaused() {\n        require(!paused, \"Game is paused\");\n        _;\n    }\n\n    modifier notTokenEnded() {\n        require(\n            block.timestamp < tokenMintEndTimestamp,\n            \"Token mint period has ended\"\n        );\n        _;\n    }\n\n    function changeAdmin(address _newAdmin) public onlyAdmin {\n        require(_newAdmin != address(0), \"newOwner cannot be 0x0\");\n        adminAddress = _newAdmin;\n    }\n\n    /////////////////////////////\n    /// Administrative Engine ///\n    /////////////////////////////\n\n    function pause() public onlyAdmin {\n        require(!paused, \"Game is already paused\");\n        paused = true;\n    }\n\n    function unpause() public onlyAdmin {\n        require(paused, \"Game is already unpaused\");\n        paused = false;\n    }\n\n    function changeTokenMintEndTime(uint256 _newEnd) public onlyAdmin {\n        tokenMintEndTimestamp = _newEnd;\n    }\n\n    function changeTarget4RadiusConstant(uint256 _newConstant)\n        public\n        onlyAdmin\n    {\n        target4RadiusConstant = _newConstant;\n        _updateWorldRadius();\n    }\n\n    function withdraw() public onlyAdmin {\n        msg.sender.transfer(address(this).balance);\n    }\n\n    //////////////\n    /// Helper ///\n    //////////////\n\n    // Public helper getters\n    function getNPlanets() public view returns (uint256) {\n        return planetIds.length;\n    }\n\n    function bulkGetPlanetIds(uint256 startIdx, uint256 endIdx)\n        public\n        view\n        returns (uint256[] memory ret)\n    {\n        // return slice of planetIds array from startIdx through endIdx - 1\n        ret = new uint256[](endIdx - startIdx);\n        for (uint256 i = startIdx; i < endIdx; i++) {\n            ret[i - startIdx] = planetIds[i];\n        }\n    }\n\n    function bulkGetPlanetsByIds(uint256[] calldata ids)\n        public\n        view\n        returns (DarkForestTypes.Planet[] memory ret)\n    {\n        ret = new DarkForestTypes.Planet[](ids.length);\n\n        for (uint256 i = 0; i < ids.length; i++) {\n            ret[i] = planets[ids[i]];\n        }\n    }\n\n    function bulkGetPlanetArrivalsByIds(uint256[] calldata ids)\n        public\n        view\n        returns (DarkForestTypes.ArrivalData[][] memory)\n    {\n\n            DarkForestTypes.ArrivalData[][] memory ret\n         = new DarkForestTypes.ArrivalData[][](ids.length);\n\n        for (uint256 i = 0; i < ids.length; i++) {\n            ret[i] = getPlanetArrivals(ids[i]);\n        }\n\n        return ret;\n    }\n\n    // this is meant to be called by a subgraph indexer at the exact timestamp\n    // that a newly-initiated arrival occurs.\n    // without it, in order to retrieve the most recent state of the from- and to-planets\n    // we have to make five contract calls per new arrival id: arrival data by id, and\n    // both planets and planetsExtendedInfo for both from- and to-planets\n    // with this we just have to make one call, since only owner/pop/silver would be modified\n    function bulkGetCompactArrivalsByIds(uint256[] calldata ids)\n        public\n        view\n        returns (DarkForestTypes.CompactArrival[] memory ret)\n    {\n        ret = new DarkForestTypes.CompactArrival[](ids.length);\n\n        for (uint256 i = 0; i < ids.length; i++) {\n            DarkForestTypes.ArrivalData memory arrival = planetArrivals[ids[i]];\n            DarkForestTypes.Planet memory from = planets[arrival.fromPlanet];\n            DarkForestTypes.Planet memory to = planets[arrival.toPlanet];\n            ret[i] = DarkForestTypes.CompactArrival({\n                popArriving: arrival.popArriving,\n                silverMoved: arrival.silverMoved,\n                departureTime: arrival.departureTime,\n                arrivalTime: arrival.arrivalTime,\n                fromPlanet: arrival.fromPlanet,\n                fromPlanetOwner: from.owner,\n                fromPlanetPopulation: from.population,\n                fromPlanetSilver: from.silver,\n                toPlanet: arrival.toPlanet,\n                toPlanetOwner: to.owner,\n                toPlanetPopulation: to.population,\n                toPlanetSilver: to.silver\n            });\n        }\n    }\n\n    function bulkGetPlanetsExtendedInfoByIds(uint256[] calldata ids)\n        public\n        view\n        returns (DarkForestTypes.PlanetExtendedInfo[] memory ret)\n    {\n        ret = new DarkForestTypes.PlanetExtendedInfo[](ids.length);\n\n        for (uint256 i = 0; i < ids.length; i++) {\n            ret[i] = planetsExtendedInfo[ids[i]];\n        }\n    }\n\n    function bulkGetPlanets(uint256 startIdx, uint256 endIdx)\n        public\n        view\n        returns (DarkForestTypes.Planet[] memory ret)\n    {\n        // return array of planets corresponding to planetIds[startIdx] through planetIds[endIdx - 1]\n        ret = new DarkForestTypes.Planet[](endIdx - startIdx);\n        for (uint256 i = startIdx; i < endIdx; i++) {\n            ret[i - startIdx] = planets[planetIds[i]];\n        }\n    }\n\n    function bulkGetPlanetsExtendedInfo(uint256 startIdx, uint256 endIdx)\n        public\n        view\n        returns (DarkForestTypes.PlanetExtendedInfo[] memory ret)\n    {\n        // return array of planets corresponding to planetIds[startIdx] through planetIds[endIdx - 1]\n        ret = new DarkForestTypes.PlanetExtendedInfo[](endIdx - startIdx);\n        for (uint256 i = startIdx; i < endIdx; i++) {\n            ret[i - startIdx] = planetsExtendedInfo[planetIds[i]];\n        }\n    }\n\n    function getNPlayers() public view returns (uint256) {\n        return playerIds.length;\n    }\n\n    function bulkGetPlayers(uint256 startIdx, uint256 endIdx)\n        public\n        view\n        returns (address[] memory ret)\n    {\n        // return slice of players array from startIdx through endIdx - 1\n        ret = new address[](endIdx - startIdx);\n        for (uint256 i = startIdx; i < endIdx; i++) {\n            ret[i - startIdx] = playerIds[i];\n        }\n    }\n\n    function getPlanetLevelThresholds() public view returns (uint256[] memory) {\n        return planetLevelThresholds;\n    }\n\n    function getPlanetCumulativeRarities()\n        public\n        view\n        returns (uint256[] memory)\n    {\n        return cumulativeRarities;\n    }\n\n    function getPlanetArrivals(uint256 _location)\n        public\n        view\n        returns (DarkForestTypes.ArrivalData[] memory ret)\n    {\n        uint256 arrivalCount = 0;\n        for (uint256 i = 0; i < planetEvents[_location].length; i += 1) {\n            if (\n                planetEvents[_location][i].eventType ==\n                DarkForestTypes.PlanetEventType.ARRIVAL\n            ) {\n                arrivalCount += 1;\n            }\n        }\n        ret = new DarkForestTypes.ArrivalData[](arrivalCount);\n        uint256 count = 0;\n        for (uint256 i = 0; i < planetEvents[_location].length; i += 1) {\n            if (\n                planetEvents[_location][i].eventType ==\n                DarkForestTypes.PlanetEventType.ARRIVAL\n            ) {\n                ret[count] = planetArrivals[planetEvents[_location][i].id];\n                count++;\n            }\n        }\n    }\n\n    function bulkGetPlanetArrivals(uint256 startIdx, uint256 endIdx)\n        public\n        view\n        returns (DarkForestTypes.ArrivalData[][] memory)\n    {\n        // return array of planets corresponding to planetIds[startIdx] through planetIds[endIdx - 1]\n\n\n            DarkForestTypes.ArrivalData[][] memory ret\n         = new DarkForestTypes.ArrivalData[][](endIdx - startIdx);\n        for (uint256 i = startIdx; i < endIdx; i++) {\n            ret[i - startIdx] = getPlanetArrivals(planetIds[i]);\n        }\n        return ret;\n    }\n\n    function getDefaultStats()\n        public\n        view\n        returns (DarkForestTypes.PlanetDefaultStats[] memory)\n    {\n\n            DarkForestTypes.PlanetDefaultStats[] memory ret\n         = new DarkForestTypes.PlanetDefaultStats[](\n            planetLevelThresholds.length\n        );\n        for (uint256 i = 0; i < planetLevelThresholds.length; i += 1) {\n            ret[i] = planetDefaultStats[i];\n        }\n        return ret;\n    }\n\n    function getUpgrades()\n        public\n        view\n        returns (DarkForestTypes.Upgrade[4][3] memory)\n    {\n        return upgrades;\n    }\n\n    function getPlayerArtifactIds(address playerId)\n        public\n        view\n        returns (uint256[] memory)\n    {\n        return tokens.getPlayerArtifactIds(playerId);\n    }\n\n    function doesArtifactExist(uint256 tokenId) public view returns (bool) {\n        return tokens.doesArtifactExist(tokenId);\n    }\n\n    function getArtifactById(uint256 artifactId)\n        public\n        view\n        returns (DarkForestTypes.ArtifactWithMetadata memory ret)\n    {\n        DarkForestTypes.Artifact memory artifact = tokens.getArtifact(\n            artifactId\n        );\n        DarkForestTypes.Upgrade memory upgrade = DarkForestUtils\n            ._getUpgradeForArtifact(artifact);\n        ret = DarkForestTypes.ArtifactWithMetadata({\n            artifact: artifact,\n            upgrade: upgrade,\n            owner: tokens.ownerOf(artifact.id),\n            locationId: contractOwnedArtifactLocations[artifact.id]\n        });\n    }\n\n    function bulkGetArtifactsByIds(uint256[] calldata ids)\n        public\n        view\n        returns (DarkForestTypes.ArtifactWithMetadata[] memory ret)\n    {\n        ret = new DarkForestTypes.ArtifactWithMetadata[](ids.length);\n\n        for (uint256 i = 0; i < ids.length; i++) {\n            DarkForestTypes.Artifact memory artifact = tokens.getArtifact(\n                ids[i]\n            );\n            DarkForestTypes.Upgrade memory upgrade = DarkForestUtils\n                ._getUpgradeForArtifact(artifact);\n            ret[i] = DarkForestTypes.ArtifactWithMetadata({\n                artifact: artifact,\n                upgrade: upgrade,\n                owner: tokens.ownerOf(artifact.id),\n                locationId: contractOwnedArtifactLocations[artifact.id]\n            });\n        }\n    }\n\n    // private utilities\n\n    function _locationIdValid(uint256 _loc) public pure returns (bool) {\n        return (_loc <\n            (21888242871839275222246405745257275088548364400416034343698204186575808495617 /\n                PLANET_RARITY));\n    }\n\n    // Private helpers that modify state\n    function _updateWorldRadius() private {\n        worldRadius = DarkForestUtils._getRadius(\n            initializedPlanetCountByLevel,\n            cumulativeRarities,\n            playerIds.length,\n            target4RadiusConstant\n        );\n    }\n\n    function _initializePlanet(\n        uint256 _location,\n        uint256 _perlin,\n        bool _isHomePlanet\n    ) private {\n        require(_locationIdValid(_location), \"Not a valid planet location\");\n\n        (\n            uint256 _level,\n            DarkForestTypes.PlanetResource _resource\n        ) = DarkForestUtils._getPlanetLevelAndResource(\n            _location,\n            _perlin,\n            PERLIN_THRESHOLD_1,\n            PERLIN_THRESHOLD_2,\n            SILVER_RARITY_1,\n            SILVER_RARITY_2,\n            SILVER_RARITY_3,\n            planetLevelThresholds,\n            planetDefaultStats\n        );\n\n        if (_isHomePlanet) {\n            require(_level == 0, \"Can only initialize on planet level 0\");\n        }\n\n        DarkForestPlanet.initializePlanet(\n            planets[_location],\n            planetsExtendedInfo[_location],\n            planetDefaultStats[_level],\n            _perlin,\n            TIME_FACTOR_HUNDREDTHS,\n            PERLIN_THRESHOLD_1,\n            PERLIN_THRESHOLD_2,\n            _resource,\n            _level,\n            _location\n        );\n        planetIds.push(_location);\n        initializedPlanetCountByLevel[_level] += 1;\n    }\n\n    //////////////////////\n    /// Game Mechanics ///\n    //////////////////////\n\n    function refreshPlanet(uint256 _location) public onlyWhitelisted notPaused {\n        DarkForestPlanet.refreshPlanet(\n            _location,\n            planets,\n            planetsExtendedInfo,\n            planetEvents,\n            planetArrivals\n        );\n    }\n\n    function initializePlayer(\n        uint256[2] memory _a,\n        uint256[2][2] memory _b,\n        uint256[2] memory _c,\n        uint256[3] memory _input\n    ) public onlyWhitelisted notPaused returns (uint256) {\n        if (!DISABLE_ZK_CHECK) {\n            require(\n                Verifier.verifyInitProof(_a, _b, _c, _input),\n                \"Failed init proof check\"\n            );\n        }\n\n        uint256 _location = _input[0];\n        uint256 _perlin = _input[1];\n        uint256 _radius = _input[2];\n\n        require(\n            DarkForestPlanet.checkInit(\n                _location,\n                _perlin,\n                _radius,\n                isPlayerInitialized,\n                planetsExtendedInfo,\n                worldRadius,\n                PERLIN_THRESHOLD_1\n            )\n        );\n\n        // Initialize player data\n        isPlayerInitialized[msg.sender] = true;\n        playerIds.push(msg.sender);\n\n        // Initialize planet information\n        _initializePlanet(_location, _perlin, true);\n        planets[_location].owner = msg.sender;\n        planets[_location].population = 50000;\n        _updateWorldRadius();\n        emit PlayerInitialized(msg.sender, _location);\n        return _location;\n    }\n\n    function move(\n        uint256[2] memory _a,\n        uint256[2][2] memory _b,\n        uint256[2] memory _c,\n        uint256[7] memory _input\n    ) public notPaused returns (uint256) {\n        uint256 _oldLoc = _input[0];\n        uint256 _newLoc = _input[1];\n        uint256 _newPerlin = _input[2];\n        uint256 _newRadius = _input[3];\n        uint256 _maxDist = _input[4];\n        uint256 _popMoved = _input[5];\n        uint256 _silverMoved = _input[6];\n\n        if (!DISABLE_ZK_CHECK) {\n            uint256[5] memory _proofInput = [\n                _oldLoc,\n                _newLoc,\n                _newPerlin,\n                _newRadius,\n                _maxDist\n            ];\n            require(\n                Verifier.verifyMoveProof(_a, _b, _c, _proofInput),\n                \"Failed move proof check\"\n            );\n        }\n\n        // check radius\n        require(_newRadius <= worldRadius, \"Attempting to move out of bounds\");\n\n        // Only perform if the toPlanet have never initialized previously\n        if (!planetsExtendedInfo[_newLoc].isInitialized) {\n            _initializePlanet(_newLoc, _newPerlin, false);\n        } else {\n            // need to do this so people can't deny service to planets with gas limit\n            refreshPlanet(_newLoc);\n            uint8 arrivalsFromOwner = 0;\n            uint8 arrivalsFromOthers = 0;\n            for (uint8 i = 0; i < planetEvents[_newLoc].length; i++) {\n                if (\n                    planetEvents[_newLoc][i].eventType ==\n                    DarkForestTypes.PlanetEventType.ARRIVAL\n                ) {\n                    if (\n                        planetArrivals[planetEvents[_newLoc][i].id].player ==\n                        planets[_newLoc].owner\n                    ) {\n                        arrivalsFromOwner++;\n                    } else {\n                        arrivalsFromOthers++;\n                    }\n                }\n            }\n            if (msg.sender == planets[_newLoc].owner) {\n                require(arrivalsFromOwner < 6, \"Planet is rate-limited\");\n            } else {\n                require(arrivalsFromOthers < 6, \"Planet is rate-limited\");\n            }\n        }\n\n        // Refresh fromPlanet first before doing any action on it\n        refreshPlanet(_oldLoc);\n        DarkForestPlanet.move(\n            _oldLoc,\n            _newLoc,\n            _maxDist,\n            _popMoved,\n            _silverMoved,\n            planetEventsCount,\n            planets,\n            planetsExtendedInfo,\n            planetEvents,\n            planetArrivals\n        );\n\n        planetEventsCount++;\n\n        _updateWorldRadius();\n        emit ArrivalQueued(planetEventsCount - 1);\n        return (planetEventsCount - 1);\n    }\n\n    function upgradePlanet(uint256 _location, uint256 _branch)\n        public\n        notPaused\n        returns (uint256, uint256)\n    {\n        // _branch specifies which of the three upgrade branches player is leveling up\n        // 0 improves silver production and capacity\n        // 1 improves population\n        // 2 improves range\n        refreshPlanet(_location);\n        DarkForestPlanet.upgradePlanet(\n            _location,\n            _branch,\n            planets,\n            planetsExtendedInfo,\n            planetDefaultStats,\n            upgrades\n        );\n        emit PlanetUpgraded(_location);\n        return (_location, _branch);\n    }\n\n    function transferOwnership(uint256 _location, address _player)\n        public\n        notPaused\n    {\n        require(\n            planetsExtendedInfo[_location].isInitialized == true,\n            \"Planet is not initialized\"\n        );\n\n        refreshPlanet(_location);\n\n        require(\n            planets[_location].owner == msg.sender,\n            \"Only owner can transfer planet\"\n        );\n\n        require(_player != msg.sender, \"Cannot transfer planet to self\");\n\n        require(\n            isPlayerInitialized[_player],\n            \"Can only transfer ownership to initialized players\"\n        );\n\n        planets[_location].owner = _player;\n\n        emit PlanetTransferred(_location, _player);\n    }\n\n    function buyHat(uint256 _location) public payable {\n        require(\n            planetsExtendedInfo[_location].isInitialized == true,\n            \"Planet is not initialized\"\n        );\n\n        refreshPlanet(_location);\n\n        require(\n            planets[_location].owner == msg.sender,\n            \"Only owner can buy hat for planet\"\n        );\n\n        uint256 cost = (1 << planetsExtendedInfo[_location].hatLevel) * 1 ether;\n\n        require(msg.value >= cost, \"Insufficient value sent\");\n\n        planetsExtendedInfo[_location].hatLevel += 1;\n        emit BoughtHat(_location);\n    }\n\n    function findArtifact(\n        uint256[2] memory _a,\n        uint256[2][2] memory _b,\n        uint256[2] memory _c,\n        uint256[2] memory _input\n    ) public notPaused notTokenEnded {\n        uint256 planetId = _input[0];\n        uint256 biomebase = _input[1];\n\n        refreshPlanet(planetId);\n        DarkForestTypes.Planet storage planet = planets[planetId];\n\n\n            DarkForestTypes.PlanetExtendedInfo storage info\n         = planetsExtendedInfo[planetId];\n        DarkForestTypes.Biome biome = DarkForestUtils._getBiome(\n            info.spaceType,\n            biomebase,\n            BIOME_THRESHOLD_1,\n            BIOME_THRESHOLD_2\n        );\n\n        if (!DISABLE_ZK_CHECK) {\n            require(\n                Verifier.verifyBiomebaseProof(_a, _b, _c, _input),\n                \"biome zkSNARK failed doesn't check out\"\n            );\n        }\n\n        require(\n            DarkForestUtils._isPlanetMineable(planetId, planet.planetLevel),\n            \"you can't find an artifact on this planet\"\n        );\n        require(!info.hasTriedFindingArtifact, \"planet already plundered\");\n        require(\n            planet.owner == msg.sender,\n            \"you can only find artifacts on planets you own\"\n        );\n        require(\n            (planet.population * 100) / planet.populationCap > 95,\n            \"you must have 95% of the max energy\"\n        );\n        require(\n            planet.planetResource == DarkForestTypes.PlanetResource.NONE,\n            \"can't mint artifact on silver mine\"\n        );\n\n        info.hasTriedFindingArtifact = true;\n\n        uint256 artifactSeed = DarkForestUtils._artifactSeed(\n            planetId,\n            planetEventsCount,\n            block.timestamp\n        );\n        (\n            DarkForestTypes.ArtifactType artifactType,\n            uint256 levelBonus\n        ) = DarkForestUtils._randomArtifactTypeAndLevelBonus(artifactSeed);\n\n        DarkForestTypes.Artifact memory foundArtifact = tokens.createArtifact(\n            artifactSeed,\n            msg.sender,\n            planetId,\n            planet.planetLevel,\n            levelBonus,\n            biome,\n            artifactType\n        );\n\n        DarkForestPlanet._putArtifactOnPlanet(\n            tokens,\n            foundArtifact.id,\n            planetId,\n            planet,\n            info,\n            contractOwnedArtifactLocations\n        );\n\n        emit FoundArtifact(planetId, msg.sender, foundArtifact.id);\n        return;\n    }\n\n    function depositArtifact(uint256 locationId, uint256 artifactId)\n        public\n        notPaused\n    {\n        // should this be implemented as logic that is triggered when a player sends\n        // an artifact to the contract with locationId in the extra data?\n        // might be better use of the ERC721 standard - can use safeTransfer then\n        refreshPlanet(locationId);\n        DarkForestTypes.Planet storage planet = planets[locationId];\n\n\n            DarkForestTypes.PlanetExtendedInfo storage planetInfo\n         = planetsExtendedInfo[locationId];\n\n        require(\n            tokens.ownerOf(artifactId) == msg.sender,\n            \"you can only deposit artifacts you own\"\n        );\n        require(\n            planet.owner == msg.sender,\n            \"you can only deposit on a planet you own\"\n        );\n        require(\n            planetInfo.heldArtifactId == 0,\n            \"planet already has an artifact\"\n        );\n        require(\n            planet.planetResource == DarkForestTypes.PlanetResource.NONE,\n            \"can't deposit artifact on silver mine\"\n        );\n\n        DarkForestPlanet._putArtifactOnPlanet(\n            tokens,\n            artifactId,\n            locationId,\n            planet,\n            planetInfo,\n            contractOwnedArtifactLocations\n        );\n        emit DepositedArtifact(locationId, msg.sender, artifactId);\n        return;\n    }\n\n    function withdrawArtifact(uint256 locationId) public notPaused {\n        refreshPlanet(locationId);\n        DarkForestTypes.Planet storage planet = planets[locationId];\n\n\n            DarkForestTypes.PlanetExtendedInfo storage planetInfo\n         = planetsExtendedInfo[locationId];\n\n        uint256 artifactId = planetInfo.heldArtifactId;\n\n        require(\n            planet.owner == msg.sender,\n            \"you can only withdraw from a planet you own\"\n        );\n        require(artifactId != 0, \"planet has no artifact to withdraw\");\n        require(\n            block.timestamp >\n                planetInfo.artifactLockedTimestamp +\n                    ARTIFACT_LOCKUP_DURATION_SECONDS,\n            \"planet's artifact is in lockup period\"\n        );\n\n        DarkForestPlanet._takeArtifactOffPlanet(\n            tokens,\n            address(this),\n            planet,\n            planetInfo,\n            contractOwnedArtifactLocations\n        );\n        emit WithdrewArtifact(locationId, msg.sender, artifactId);\n        return;\n    }\n}\n",
  "sourcePath": "contracts/DarkForestCore.sol",
  "abi": [
    {
      "anonymous": false,
      "inputs": [
        {
          "indexed": false,
          "internalType": "uint256",
          "name": "arrivalId",
          "type": "uint256"
        }
      ],
      "name": "ArrivalQueued",
      "type": "event"
    },
    {
      "anonymous": false,
      "inputs": [
        {
          "indexed": false,
          "internalType": "uint256",
          "name": "loc",
          "type": "uint256"
        }
      ],
      "name": "BoughtHat",
      "type": "event"
    },
    {
      "anonymous": false,
      "inputs": [
        {
          "indexed": false,
          "internalType": "uint256",
          "name": "loc",
          "type": "uint256"
        },
        {
          "indexed": false,
          "internalType": "address",
          "name": "player",
          "type": "address"
        },
        {
          "indexed": false,
          "internalType": "uint256",
          "name": "artifactId",
          "type": "uint256"
        }
      ],
      "name": "DepositedArtifact",
      "type": "event"
    },
    {
      "anonymous": false,
      "inputs": [
        {
          "indexed": false,
          "internalType": "uint256",
          "name": "loc",
          "type": "uint256"
        },
        {
          "indexed": false,
          "internalType": "address",
          "name": "player",
          "type": "address"
        },
        {
          "indexed": false,
          "internalType": "uint256",
          "name": "artifactId",
          "type": "uint256"
        }
      ],
      "name": "FoundArtifact",
      "type": "event"
    },
    {
      "anonymous": false,
      "inputs": [
        {
          "indexed": false,
          "internalType": "uint256",
          "name": "loc",
          "type": "uint256"
        },
        {
          "indexed": false,
          "internalType": "address",
          "name": "player",
          "type": "address"
        }
      ],
      "name": "PlanetTransferred",
      "type": "event"
    },
    {
      "anonymous": false,
      "inputs": [
        {
          "indexed": false,
          "internalType": "uint256",
          "name": "loc",
          "type": "uint256"
        }
      ],
      "name": "PlanetUpgraded",
      "type": "event"
    },
    {
      "anonymous": false,
      "inputs": [
        {
          "indexed": false,
          "internalType": "address",
          "name": "player",
          "type": "address"
        },
        {
          "indexed": false,
          "internalType": "uint256",
          "name": "loc",
          "type": "uint256"
        }
      ],
      "name": "PlayerInitialized",
      "type": "event"
    },
    {
      "anonymous": false,
      "inputs": [
        {
          "indexed": false,
          "internalType": "uint256",
          "name": "loc",
          "type": "uint256"
        },
        {
          "indexed": false,
          "internalType": "address",
          "name": "player",
          "type": "address"
        },
        {
          "indexed": false,
          "internalType": "uint256",
          "name": "artifactId",
          "type": "uint256"
        }
      ],
      "name": "WithdrewArtifact",
      "type": "event"
    },
    {
      "inputs": [],
      "name": "ARTIFACT_LOCKUP_DURATION_SECONDS",
      "outputs": [
        {
          "internalType": "uint256",
          "name": "",
          "type": "uint256"
        }
      ],
      "stateMutability": "view",
      "type": "function"
    },
    {
      "inputs": [],
      "name": "BIOME_THRESHOLD_1",
      "outputs": [
        {
          "internalType": "uint256",
          "name": "",
          "type": "uint256"
        }
      ],
      "stateMutability": "view",
      "type": "function"
    },
    {
      "inputs": [],
      "name": "BIOME_THRESHOLD_2",
      "outputs": [
        {
          "internalType": "uint256",
          "name": "",
          "type": "uint256"
        }
      ],
      "stateMutability": "view",
      "type": "function"
    },
    {
      "inputs": [],
      "name": "DISABLE_ZK_CHECK",
      "outputs": [
        {
          "internalType": "bool",
          "name": "",
          "type": "bool"
        }
      ],
      "stateMutability": "view",
      "type": "function"
    },
    {
      "inputs": [],
      "name": "PERLIN_THRESHOLD_1",
      "outputs": [
        {
          "internalType": "uint256",
          "name": "",
          "type": "uint256"
        }
      ],
      "stateMutability": "view",
      "type": "function"
    },
    {
      "inputs": [],
      "name": "PERLIN_THRESHOLD_2",
      "outputs": [
        {
          "internalType": "uint256",
          "name": "",
          "type": "uint256"
        }
      ],
      "stateMutability": "view",
      "type": "function"
    },
    {
      "inputs": [],
      "name": "PLANET_RARITY",
      "outputs": [
        {
          "internalType": "uint256",
          "name": "",
          "type": "uint256"
        }
      ],
      "stateMutability": "view",
      "type": "function"
    },
    {
      "inputs": [],
      "name": "SILVER_RARITY_1",
      "outputs": [
        {
          "internalType": "uint256",
          "name": "",
          "type": "uint256"
        }
      ],
      "stateMutability": "view",
      "type": "function"
    },
    {
      "inputs": [],
      "name": "SILVER_RARITY_2",
      "outputs": [
        {
          "internalType": "uint256",
          "name": "",
          "type": "uint256"
        }
      ],
      "stateMutability": "view",
      "type": "function"
    },
    {
      "inputs": [],
      "name": "SILVER_RARITY_3",
      "outputs": [
        {
          "internalType": "uint256",
          "name": "",
          "type": "uint256"
        }
      ],
      "stateMutability": "view",
      "type": "function"
    },
    {
      "inputs": [],
      "name": "TIME_FACTOR_HUNDREDTHS",
      "outputs": [
        {
          "internalType": "uint256",
          "name": "",
          "type": "uint256"
        }
      ],
      "stateMutability": "view",
      "type": "function"
    },
    {
      "inputs": [
        {
          "internalType": "uint256",
          "name": "_loc",
          "type": "uint256"
        }
      ],
      "name": "_locationIdValid",
      "outputs": [
        {
          "internalType": "bool",
          "name": "",
          "type": "bool"
        }
      ],
      "stateMutability": "pure",
      "type": "function"
    },
    {
      "inputs": [],
      "name": "adminAddress",
      "outputs": [
        {
          "internalType": "address",
          "name": "",
          "type": "address"
        }
      ],
      "stateMutability": "view",
      "type": "function"
    },
    {
      "inputs": [
        {
          "internalType": "uint256[]",
          "name": "ids",
          "type": "uint256[]"
        }
      ],
      "name": "bulkGetArtifactsByIds",
      "outputs": [
        {
          "components": [
            {
              "components": [
                {
                  "internalType": "uint256",
                  "name": "id",
                  "type": "uint256"
                },
                {
                  "internalType": "uint256",
                  "name": "planetDiscoveredOn",
                  "type": "uint256"
                },
                {
                  "internalType": "uint256",
                  "name": "planetLevel",
                  "type": "uint256"
                },
                {
                  "internalType": "enum DarkForestTypes.Biome",
                  "name": "planetBiome",
                  "type": "uint8"
                },
                {
                  "internalType": "uint256",
                  "name": "mintedAtTimestamp",
                  "type": "uint256"
                },
                {
                  "internalType": "address",
                  "name": "discoverer",
                  "type": "address"
                },
                {
                  "internalType": "enum DarkForestTypes.ArtifactType",
                  "name": "artifactType",
                  "type": "uint8"
                }
              ],
              "internalType": "struct DarkForestTypes.Artifact",
              "name": "artifact",
              "type": "tuple"
            },
            {
              "components": [
                {
                  "internalType": "uint256",
                  "name": "popCapMultiplier",
                  "type": "uint256"
                },
                {
                  "internalType": "uint256",
                  "name": "popGroMultiplier",
                  "type": "uint256"
                },
                {
                  "internalType": "uint256",
                  "name": "rangeMultiplier",
                  "type": "uint256"
                },
                {
                  "internalType": "uint256",
                  "name": "speedMultiplier",
                  "type": "uint256"
                },
                {
                  "internalType": "uint256",
                  "name": "defMultiplier",
                  "type": "uint256"
                }
              ],
              "internalType": "struct DarkForestTypes.Upgrade",
              "name": "upgrade",
              "type": "tuple"
            },
            {
              "internalType": "address",
              "name": "owner",
              "type": "address"
            },
            {
              "internalType": "uint256",
              "name": "locationId",
              "type": "uint256"
            }
          ],
          "internalType": "struct DarkForestTypes.ArtifactWithMetadata[]",
          "name": "ret",
          "type": "tuple[]"
        }
      ],
      "stateMutability": "view",
      "type": "function"
    },
    {
      "inputs": [
        {
          "internalType": "uint256[]",
          "name": "ids",
          "type": "uint256[]"
        }
      ],
      "name": "bulkGetCompactArrivalsByIds",
      "outputs": [
        {
          "components": [
            {
              "internalType": "uint256",
              "name": "popArriving",
              "type": "uint256"
            },
            {
              "internalType": "uint256",
              "name": "silverMoved",
              "type": "uint256"
            },
            {
              "internalType": "uint256",
              "name": "departureTime",
              "type": "uint256"
            },
            {
              "internalType": "uint256",
              "name": "arrivalTime",
              "type": "uint256"
            },
            {
              "internalType": "uint256",
              "name": "fromPlanet",
              "type": "uint256"
            },
            {
              "internalType": "address",
              "name": "fromPlanetOwner",
              "type": "address"
            },
            {
              "internalType": "uint256",
              "name": "fromPlanetPopulation",
              "type": "uint256"
            },
            {
              "internalType": "uint256",
              "name": "fromPlanetSilver",
              "type": "uint256"
            },
            {
              "internalType": "uint256",
              "name": "toPlanet",
              "type": "uint256"
            },
            {
              "internalType": "address",
              "name": "toPlanetOwner",
              "type": "address"
            },
            {
              "internalType": "uint256",
              "name": "toPlanetPopulation",
              "type": "uint256"
            },
            {
              "internalType": "uint256",
              "name": "toPlanetSilver",
              "type": "uint256"
            }
          ],
          "internalType": "struct DarkForestTypes.CompactArrival[]",
          "name": "ret",
          "type": "tuple[]"
        }
      ],
      "stateMutability": "view",
      "type": "function"
    },
    {
      "inputs": [
        {
          "internalType": "uint256",
          "name": "startIdx",
          "type": "uint256"
        },
        {
          "internalType": "uint256",
          "name": "endIdx",
          "type": "uint256"
        }
      ],
      "name": "bulkGetPlanetArrivals",
      "outputs": [
        {
          "components": [
            {
              "internalType": "uint256",
              "name": "id",
              "type": "uint256"
            },
            {
              "internalType": "address",
              "name": "player",
              "type": "address"
            },
            {
              "internalType": "uint256",
              "name": "fromPlanet",
              "type": "uint256"
            },
            {
              "internalType": "uint256",
              "name": "toPlanet",
              "type": "uint256"
            },
            {
              "internalType": "uint256",
              "name": "popArriving",
              "type": "uint256"
            },
            {
              "internalType": "uint256",
              "name": "silverMoved",
              "type": "uint256"
            },
            {
              "internalType": "uint256",
              "name": "departureTime",
              "type": "uint256"
            },
            {
              "internalType": "uint256",
              "name": "arrivalTime",
              "type": "uint256"
            }
          ],
          "internalType": "struct DarkForestTypes.ArrivalData[][]",
          "name": "",
          "type": "tuple[][]"
        }
      ],
      "stateMutability": "view",
      "type": "function"
    },
    {
      "inputs": [
        {
          "internalType": "uint256[]",
          "name": "ids",
          "type": "uint256[]"
        }
      ],
      "name": "bulkGetPlanetArrivalsByIds",
      "outputs": [
        {
          "components": [
            {
              "internalType": "uint256",
              "name": "id",
              "type": "uint256"
            },
            {
              "internalType": "address",
              "name": "player",
              "type": "address"
            },
            {
              "internalType": "uint256",
              "name": "fromPlanet",
              "type": "uint256"
            },
            {
              "internalType": "uint256",
              "name": "toPlanet",
              "type": "uint256"
            },
            {
              "internalType": "uint256",
              "name": "popArriving",
              "type": "uint256"
            },
            {
              "internalType": "uint256",
              "name": "silverMoved",
              "type": "uint256"
            },
            {
              "internalType": "uint256",
              "name": "departureTime",
              "type": "uint256"
            },
            {
              "internalType": "uint256",
              "name": "arrivalTime",
              "type": "uint256"
            }
          ],
          "internalType": "struct DarkForestTypes.ArrivalData[][]",
          "name": "",
          "type": "tuple[][]"
        }
      ],
      "stateMutability": "view",
      "type": "function"
    },
    {
      "inputs": [
        {
          "internalType": "uint256",
          "name": "startIdx",
          "type": "uint256"
        },
        {
          "internalType": "uint256",
          "name": "endIdx",
          "type": "uint256"
        }
      ],
      "name": "bulkGetPlanetIds",
      "outputs": [
        {
          "internalType": "uint256[]",
          "name": "ret",
          "type": "uint256[]"
        }
      ],
      "stateMutability": "view",
      "type": "function"
    },
    {
      "inputs": [
        {
          "internalType": "uint256",
          "name": "startIdx",
          "type": "uint256"
        },
        {
          "internalType": "uint256",
          "name": "endIdx",
          "type": "uint256"
        }
      ],
      "name": "bulkGetPlanets",
      "outputs": [
        {
          "components": [
            {
              "internalType": "address",
              "name": "owner",
              "type": "address"
            },
            {
              "internalType": "uint256",
              "name": "range",
              "type": "uint256"
            },
            {
              "internalType": "uint256",
              "name": "speed",
              "type": "uint256"
            },
            {
              "internalType": "uint256",
              "name": "defense",
              "type": "uint256"
            },
            {
              "internalType": "uint256",
              "name": "population",
              "type": "uint256"
            },
            {
              "internalType": "uint256",
              "name": "populationCap",
              "type": "uint256"
            },
            {
              "internalType": "uint256",
              "name": "populationGrowth",
              "type": "uint256"
            },
            {
              "internalType": "enum DarkForestTypes.PlanetResource",
              "name": "planetResource",
              "type": "uint8"
            },
            {
              "internalType": "uint256",
              "name": "silverCap",
              "type": "uint256"
            },
            {
              "internalType": "uint256",
              "name": "silverGrowth",
              "type": "uint256"
            },
            {
              "internalType": "uint256",
              "name": "silver",
              "type": "uint256"
            },
            {
              "internalType": "uint256",
              "name": "planetLevel",
              "type": "uint256"
            }
          ],
          "internalType": "struct DarkForestTypes.Planet[]",
          "name": "ret",
          "type": "tuple[]"
        }
      ],
      "stateMutability": "view",
      "type": "function"
    },
    {
      "inputs": [
        {
          "internalType": "uint256[]",
          "name": "ids",
          "type": "uint256[]"
        }
      ],
      "name": "bulkGetPlanetsByIds",
      "outputs": [
        {
          "components": [
            {
              "internalType": "address",
              "name": "owner",
              "type": "address"
            },
            {
              "internalType": "uint256",
              "name": "range",
              "type": "uint256"
            },
            {
              "internalType": "uint256",
              "name": "speed",
              "type": "uint256"
            },
            {
              "internalType": "uint256",
              "name": "defense",
              "type": "uint256"
            },
            {
              "internalType": "uint256",
              "name": "population",
              "type": "uint256"
            },
            {
              "internalType": "uint256",
              "name": "populationCap",
              "type": "uint256"
            },
            {
              "internalType": "uint256",
              "name": "populationGrowth",
              "type": "uint256"
            },
            {
              "internalType": "enum DarkForestTypes.PlanetResource",
              "name": "planetResource",
              "type": "uint8"
            },
            {
              "internalType": "uint256",
              "name": "silverCap",
              "type": "uint256"
            },
            {
              "internalType": "uint256",
              "name": "silverGrowth",
              "type": "uint256"
            },
            {
              "internalType": "uint256",
              "name": "silver",
              "type": "uint256"
            },
            {
              "internalType": "uint256",
              "name": "planetLevel",
              "type": "uint256"
            }
          ],
          "internalType": "struct DarkForestTypes.Planet[]",
          "name": "ret",
          "type": "tuple[]"
        }
      ],
      "stateMutability": "view",
      "type": "function"
    },
    {
      "inputs": [
        {
          "internalType": "uint256",
          "name": "startIdx",
          "type": "uint256"
        },
        {
          "internalType": "uint256",
          "name": "endIdx",
          "type": "uint256"
        }
      ],
      "name": "bulkGetPlanetsExtendedInfo",
      "outputs": [
        {
          "components": [
            {
              "internalType": "bool",
              "name": "isInitialized",
              "type": "bool"
            },
            {
              "internalType": "uint256",
              "name": "createdAt",
              "type": "uint256"
            },
            {
              "internalType": "uint256",
              "name": "lastUpdated",
              "type": "uint256"
            },
            {
              "internalType": "uint256",
              "name": "perlin",
              "type": "uint256"
            },
            {
              "internalType": "enum DarkForestTypes.SpaceType",
              "name": "spaceType",
              "type": "uint8"
            },
            {
              "internalType": "uint256",
              "name": "upgradeState0",
              "type": "uint256"
            },
            {
              "internalType": "uint256",
              "name": "upgradeState1",
              "type": "uint256"
            },
            {
              "internalType": "uint256",
              "name": "upgradeState2",
              "type": "uint256"
            },
            {
              "internalType": "uint256",
              "name": "hatLevel",
              "type": "uint256"
            },
            {
              "internalType": "bool",
              "name": "hasTriedFindingArtifact",
              "type": "bool"
            },
            {
              "internalType": "uint256",
              "name": "heldArtifactId",
              "type": "uint256"
            },
            {
              "internalType": "uint256",
              "name": "artifactLockedTimestamp",
              "type": "uint256"
            }
          ],
          "internalType": "struct DarkForestTypes.PlanetExtendedInfo[]",
          "name": "ret",
          "type": "tuple[]"
        }
      ],
      "stateMutability": "view",
      "type": "function"
    },
    {
      "inputs": [
        {
          "internalType": "uint256[]",
          "name": "ids",
          "type": "uint256[]"
        }
      ],
      "name": "bulkGetPlanetsExtendedInfoByIds",
      "outputs": [
        {
          "components": [
            {
              "internalType": "bool",
              "name": "isInitialized",
              "type": "bool"
            },
            {
              "internalType": "uint256",
              "name": "createdAt",
              "type": "uint256"
            },
            {
              "internalType": "uint256",
              "name": "lastUpdated",
              "type": "uint256"
            },
            {
              "internalType": "uint256",
              "name": "perlin",
              "type": "uint256"
            },
            {
              "internalType": "enum DarkForestTypes.SpaceType",
              "name": "spaceType",
              "type": "uint8"
            },
            {
              "internalType": "uint256",
              "name": "upgradeState0",
              "type": "uint256"
            },
            {
              "internalType": "uint256",
              "name": "upgradeState1",
              "type": "uint256"
            },
            {
              "internalType": "uint256",
              "name": "upgradeState2",
              "type": "uint256"
            },
            {
              "internalType": "uint256",
              "name": "hatLevel",
              "type": "uint256"
            },
            {
              "internalType": "bool",
              "name": "hasTriedFindingArtifact",
              "type": "bool"
            },
            {
              "internalType": "uint256",
              "name": "heldArtifactId",
              "type": "uint256"
            },
            {
              "internalType": "uint256",
              "name": "artifactLockedTimestamp",
              "type": "uint256"
            }
          ],
          "internalType": "struct DarkForestTypes.PlanetExtendedInfo[]",
          "name": "ret",
          "type": "tuple[]"
        }
      ],
      "stateMutability": "view",
      "type": "function"
    },
    {
      "inputs": [
        {
          "internalType": "uint256",
          "name": "startIdx",
          "type": "uint256"
        },
        {
          "internalType": "uint256",
          "name": "endIdx",
          "type": "uint256"
        }
      ],
      "name": "bulkGetPlayers",
      "outputs": [
        {
          "internalType": "address[]",
          "name": "ret",
          "type": "address[]"
        }
      ],
      "stateMutability": "view",
      "type": "function"
    },
    {
      "inputs": [
        {
          "internalType": "uint256",
          "name": "_location",
          "type": "uint256"
        }
      ],
      "name": "buyHat",
      "outputs": [],
      "stateMutability": "payable",
      "type": "function"
    },
    {
      "inputs": [
        {
          "internalType": "address",
          "name": "_newAdmin",
          "type": "address"
        }
      ],
      "name": "changeAdmin",
      "outputs": [],
      "stateMutability": "nonpayable",
      "type": "function"
    },
    {
      "inputs": [
        {
          "internalType": "uint256",
          "name": "_newConstant",
          "type": "uint256"
        }
      ],
      "name": "changeTarget4RadiusConstant",
      "outputs": [],
      "stateMutability": "nonpayable",
      "type": "function"
    },
    {
      "inputs": [
        {
          "internalType": "uint256",
          "name": "_newEnd",
          "type": "uint256"
        }
      ],
      "name": "changeTokenMintEndTime",
      "outputs": [],
      "stateMutability": "nonpayable",
      "type": "function"
    },
    {
      "inputs": [
        {
          "internalType": "uint256",
          "name": "",
          "type": "uint256"
        }
      ],
      "name": "contractOwnedArtifactLocations",
      "outputs": [
        {
          "internalType": "uint256",
          "name": "",
          "type": "uint256"
        }
      ],
      "stateMutability": "view",
      "type": "function"
    },
    {
      "inputs": [
        {
          "internalType": "uint256",
          "name": "",
          "type": "uint256"
        }
      ],
      "name": "cumulativeRarities",
      "outputs": [
        {
          "internalType": "uint256",
          "name": "",
          "type": "uint256"
        }
      ],
      "stateMutability": "view",
      "type": "function"
    },
    {
      "inputs": [
        {
          "internalType": "uint256",
          "name": "locationId",
          "type": "uint256"
        },
        {
          "internalType": "uint256",
          "name": "artifactId",
          "type": "uint256"
        }
      ],
      "name": "depositArtifact",
      "outputs": [],
      "stateMutability": "nonpayable",
      "type": "function"
    },
    {
      "inputs": [
        {
          "internalType": "uint256",
          "name": "tokenId",
          "type": "uint256"
        }
      ],
      "name": "doesArtifactExist",
      "outputs": [
        {
          "internalType": "bool",
          "name": "",
          "type": "bool"
        }
      ],
      "stateMutability": "view",
      "type": "function"
    },
    {
      "inputs": [
        {
          "internalType": "uint256[2]",
          "name": "_a",
          "type": "uint256[2]"
        },
        {
          "internalType": "uint256[2][2]",
          "name": "_b",
          "type": "uint256[2][2]"
        },
        {
          "internalType": "uint256[2]",
          "name": "_c",
          "type": "uint256[2]"
        },
        {
          "internalType": "uint256[2]",
          "name": "_input",
          "type": "uint256[2]"
        }
      ],
      "name": "findArtifact",
      "outputs": [],
      "stateMutability": "nonpayable",
      "type": "function"
    },
    {
      "inputs": [
        {
          "internalType": "uint256",
          "name": "artifactId",
          "type": "uint256"
        }
      ],
      "name": "getArtifactById",
      "outputs": [
        {
          "components": [
            {
              "components": [
                {
                  "internalType": "uint256",
                  "name": "id",
                  "type": "uint256"
                },
                {
                  "internalType": "uint256",
                  "name": "planetDiscoveredOn",
                  "type": "uint256"
                },
                {
                  "internalType": "uint256",
                  "name": "planetLevel",
                  "type": "uint256"
                },
                {
                  "internalType": "enum DarkForestTypes.Biome",
                  "name": "planetBiome",
                  "type": "uint8"
                },
                {
                  "internalType": "uint256",
                  "name": "mintedAtTimestamp",
                  "type": "uint256"
                },
                {
                  "internalType": "address",
                  "name": "discoverer",
                  "type": "address"
                },
                {
                  "internalType": "enum DarkForestTypes.ArtifactType",
                  "name": "artifactType",
                  "type": "uint8"
                }
              ],
              "internalType": "struct DarkForestTypes.Artifact",
              "name": "artifact",
              "type": "tuple"
            },
            {
              "components": [
                {
                  "internalType": "uint256",
                  "name": "popCapMultiplier",
                  "type": "uint256"
                },
                {
                  "internalType": "uint256",
                  "name": "popGroMultiplier",
                  "type": "uint256"
                },
                {
                  "internalType": "uint256",
                  "name": "rangeMultiplier",
                  "type": "uint256"
                },
                {
                  "internalType": "uint256",
                  "name": "speedMultiplier",
                  "type": "uint256"
                },
                {
                  "internalType": "uint256",
                  "name": "defMultiplier",
                  "type": "uint256"
                }
              ],
              "internalType": "struct DarkForestTypes.Upgrade",
              "name": "upgrade",
              "type": "tuple"
            },
            {
              "internalType": "address",
              "name": "owner",
              "type": "address"
            },
            {
              "internalType": "uint256",
              "name": "locationId",
              "type": "uint256"
            }
          ],
          "internalType": "struct DarkForestTypes.ArtifactWithMetadata",
          "name": "ret",
          "type": "tuple"
        }
      ],
      "stateMutability": "view",
      "type": "function"
    },
    {
      "inputs": [],
      "name": "getDefaultStats",
      "outputs": [
        {
          "components": [
            {
              "internalType": "string",
              "name": "label",
              "type": "string"
            },
            {
              "internalType": "uint256",
              "name": "populationCap",
              "type": "uint256"
            },
            {
              "internalType": "uint256",
              "name": "populationGrowth",
              "type": "uint256"
            },
            {
              "internalType": "uint256",
              "name": "range",
              "type": "uint256"
            },
            {
              "internalType": "uint256",
              "name": "speed",
              "type": "uint256"
            },
            {
              "internalType": "uint256",
              "name": "defense",
              "type": "uint256"
            },
            {
              "internalType": "uint256",
              "name": "silverGrowth",
              "type": "uint256"
            },
            {
              "internalType": "uint256",
              "name": "silverCap",
              "type": "uint256"
            },
            {
              "internalType": "uint256",
              "name": "barbarianPercentage",
              "type": "uint256"
            }
          ],
          "internalType": "struct DarkForestTypes.PlanetDefaultStats[]",
          "name": "",
          "type": "tuple[]"
        }
      ],
      "stateMutability": "view",
      "type": "function"
    },
    {
      "inputs": [],
      "name": "getNPlanets",
      "outputs": [
        {
          "internalType": "uint256",
          "name": "",
          "type": "uint256"
        }
      ],
      "stateMutability": "view",
      "type": "function"
    },
    {
      "inputs": [],
      "name": "getNPlayers",
      "outputs": [
        {
          "internalType": "uint256",
          "name": "",
          "type": "uint256"
        }
      ],
      "stateMutability": "view",
      "type": "function"
    },
    {
      "inputs": [
        {
          "internalType": "uint256",
          "name": "_location",
          "type": "uint256"
        }
      ],
      "name": "getPlanetArrivals",
      "outputs": [
        {
          "components": [
            {
              "internalType": "uint256",
              "name": "id",
              "type": "uint256"
            },
            {
              "internalType": "address",
              "name": "player",
              "type": "address"
            },
            {
              "internalType": "uint256",
              "name": "fromPlanet",
              "type": "uint256"
            },
            {
              "internalType": "uint256",
              "name": "toPlanet",
              "type": "uint256"
            },
            {
              "internalType": "uint256",
              "name": "popArriving",
              "type": "uint256"
            },
            {
              "internalType": "uint256",
              "name": "silverMoved",
              "type": "uint256"
            },
            {
              "internalType": "uint256",
              "name": "departureTime",
              "type": "uint256"
            },
            {
              "internalType": "uint256",
              "name": "arrivalTime",
              "type": "uint256"
            }
          ],
          "internalType": "struct DarkForestTypes.ArrivalData[]",
          "name": "ret",
          "type": "tuple[]"
        }
      ],
      "stateMutability": "view",
      "type": "function"
    },
    {
      "inputs": [],
      "name": "getPlanetCumulativeRarities",
      "outputs": [
        {
          "internalType": "uint256[]",
          "name": "",
          "type": "uint256[]"
        }
      ],
      "stateMutability": "view",
      "type": "function"
    },
    {
      "inputs": [],
      "name": "getPlanetLevelThresholds",
      "outputs": [
        {
          "internalType": "uint256[]",
          "name": "",
          "type": "uint256[]"
        }
      ],
      "stateMutability": "view",
      "type": "function"
    },
    {
      "inputs": [
        {
          "internalType": "address",
          "name": "playerId",
          "type": "address"
        }
      ],
      "name": "getPlayerArtifactIds",
      "outputs": [
        {
          "internalType": "uint256[]",
          "name": "",
          "type": "uint256[]"
        }
      ],
      "stateMutability": "view",
      "type": "function"
    },
    {
      "inputs": [],
      "name": "getUpgrades",
      "outputs": [
        {
          "components": [
            {
              "internalType": "uint256",
              "name": "popCapMultiplier",
              "type": "uint256"
            },
            {
              "internalType": "uint256",
              "name": "popGroMultiplier",
              "type": "uint256"
            },
            {
              "internalType": "uint256",
              "name": "rangeMultiplier",
              "type": "uint256"
            },
            {
              "internalType": "uint256",
              "name": "speedMultiplier",
              "type": "uint256"
            },
            {
              "internalType": "uint256",
              "name": "defMultiplier",
              "type": "uint256"
            }
          ],
          "internalType": "struct DarkForestTypes.Upgrade[4][3]",
          "name": "",
          "type": "tuple[4][3]"
        }
      ],
      "stateMutability": "view",
      "type": "function"
    },
    {
      "inputs": [
        {
          "internalType": "address",
          "name": "_adminAddress",
          "type": "address"
        },
        {
          "internalType": "address payable",
          "name": "_whitelistAddress",
          "type": "address"
        },
        {
          "internalType": "address payable",
          "name": "_tokensAddress",
          "type": "address"
        },
        {
          "internalType": "bool",
          "name": "_disableZKCheck",
          "type": "bool"
        }
      ],
      "name": "initialize",
      "outputs": [],
      "stateMutability": "nonpayable",
      "type": "function"
    },
    {
      "inputs": [
        {
          "internalType": "uint256[2]",
          "name": "_a",
          "type": "uint256[2]"
        },
        {
          "internalType": "uint256[2][2]",
          "name": "_b",
          "type": "uint256[2][2]"
        },
        {
          "internalType": "uint256[2]",
          "name": "_c",
          "type": "uint256[2]"
        },
        {
          "internalType": "uint256[3]",
          "name": "_input",
          "type": "uint256[3]"
        }
      ],
      "name": "initializePlayer",
      "outputs": [
        {
          "internalType": "uint256",
          "name": "",
          "type": "uint256"
        }
      ],
      "stateMutability": "nonpayable",
      "type": "function"
    },
    {
      "inputs": [
        {
          "internalType": "uint256",
          "name": "",
          "type": "uint256"
        }
      ],
      "name": "initializedPlanetCountByLevel",
      "outputs": [
        {
          "internalType": "uint256",
          "name": "",
          "type": "uint256"
        }
      ],
      "stateMutability": "view",
      "type": "function"
    },
    {
      "inputs": [
        {
          "internalType": "address",
          "name": "",
          "type": "address"
        }
      ],
      "name": "isPlayerInitialized",
      "outputs": [
        {
          "internalType": "bool",
          "name": "",
          "type": "bool"
        }
      ],
      "stateMutability": "view",
      "type": "function"
    },
    {
      "inputs": [
        {
          "internalType": "uint256[2]",
          "name": "_a",
          "type": "uint256[2]"
        },
        {
          "internalType": "uint256[2][2]",
          "name": "_b",
          "type": "uint256[2][2]"
        },
        {
          "internalType": "uint256[2]",
          "name": "_c",
          "type": "uint256[2]"
        },
        {
          "internalType": "uint256[7]",
          "name": "_input",
          "type": "uint256[7]"
        }
      ],
      "name": "move",
      "outputs": [
        {
          "internalType": "uint256",
          "name": "",
          "type": "uint256"
        }
      ],
      "stateMutability": "nonpayable",
      "type": "function"
    },
    {
      "inputs": [],
      "name": "pause",
      "outputs": [],
      "stateMutability": "nonpayable",
      "type": "function"
    },
    {
      "inputs": [],
      "name": "paused",
      "outputs": [
        {
          "internalType": "bool",
          "name": "",
          "type": "bool"
        }
      ],
      "stateMutability": "view",
      "type": "function"
    },
    {
      "inputs": [
        {
          "internalType": "uint256",
          "name": "",
          "type": "uint256"
        }
      ],
      "name": "planetArrivals",
      "outputs": [
        {
          "internalType": "uint256",
          "name": "id",
          "type": "uint256"
        },
        {
          "internalType": "address",
          "name": "player",
          "type": "address"
        },
        {
          "internalType": "uint256",
          "name": "fromPlanet",
          "type": "uint256"
        },
        {
          "internalType": "uint256",
          "name": "toPlanet",
          "type": "uint256"
        },
        {
          "internalType": "uint256",
          "name": "popArriving",
          "type": "uint256"
        },
        {
          "internalType": "uint256",
          "name": "silverMoved",
          "type": "uint256"
        },
        {
          "internalType": "uint256",
          "name": "departureTime",
          "type": "uint256"
        },
        {
          "internalType": "uint256",
          "name": "arrivalTime",
          "type": "uint256"
        }
      ],
      "stateMutability": "view",
      "type": "function"
    },
    {
      "inputs": [
        {
          "internalType": "uint256",
          "name": "",
          "type": "uint256"
        }
      ],
      "name": "planetDefaultStats",
      "outputs": [
        {
          "internalType": "string",
          "name": "label",
          "type": "string"
        },
        {
          "internalType": "uint256",
          "name": "populationCap",
          "type": "uint256"
        },
        {
          "internalType": "uint256",
          "name": "populationGrowth",
          "type": "uint256"
        },
        {
          "internalType": "uint256",
          "name": "range",
          "type": "uint256"
        },
        {
          "internalType": "uint256",
          "name": "speed",
          "type": "uint256"
        },
        {
          "internalType": "uint256",
          "name": "defense",
          "type": "uint256"
        },
        {
          "internalType": "uint256",
          "name": "silverGrowth",
          "type": "uint256"
        },
        {
          "internalType": "uint256",
          "name": "silverCap",
          "type": "uint256"
        },
        {
          "internalType": "uint256",
          "name": "barbarianPercentage",
          "type": "uint256"
        }
      ],
      "stateMutability": "view",
      "type": "function"
    },
    {
      "inputs": [
        {
          "internalType": "uint256",
          "name": "",
          "type": "uint256"
        },
        {
          "internalType": "uint256",
          "name": "",
          "type": "uint256"
        }
      ],
      "name": "planetEvents",
      "outputs": [
        {
          "internalType": "uint256",
          "name": "id",
          "type": "uint256"
        },
        {
          "internalType": "enum DarkForestTypes.PlanetEventType",
          "name": "eventType",
          "type": "uint8"
        },
        {
          "internalType": "uint256",
          "name": "timeTrigger",
          "type": "uint256"
        },
        {
          "internalType": "uint256",
          "name": "timeAdded",
          "type": "uint256"
        }
      ],
      "stateMutability": "view",
      "type": "function"
    },
    {
      "inputs": [],
      "name": "planetEventsCount",
      "outputs": [
        {
          "internalType": "uint256",
          "name": "",
          "type": "uint256"
        }
      ],
      "stateMutability": "view",
      "type": "function"
    },
    {
      "inputs": [
        {
          "internalType": "uint256",
          "name": "",
          "type": "uint256"
        }
      ],
      "name": "planetIds",
      "outputs": [
        {
          "internalType": "uint256",
          "name": "",
          "type": "uint256"
        }
      ],
      "stateMutability": "view",
      "type": "function"
    },
    {
      "inputs": [
        {
          "internalType": "uint256",
          "name": "",
          "type": "uint256"
        }
      ],
      "name": "planetLevelThresholds",
      "outputs": [
        {
          "internalType": "uint256",
          "name": "",
          "type": "uint256"
        }
      ],
      "stateMutability": "view",
      "type": "function"
    },
    {
      "inputs": [
        {
          "internalType": "uint256",
          "name": "",
          "type": "uint256"
        }
      ],
      "name": "planets",
      "outputs": [
        {
          "internalType": "address",
          "name": "owner",
          "type": "address"
        },
        {
          "internalType": "uint256",
          "name": "range",
          "type": "uint256"
        },
        {
          "internalType": "uint256",
          "name": "speed",
          "type": "uint256"
        },
        {
          "internalType": "uint256",
          "name": "defense",
          "type": "uint256"
        },
        {
          "internalType": "uint256",
          "name": "population",
          "type": "uint256"
        },
        {
          "internalType": "uint256",
          "name": "populationCap",
          "type": "uint256"
        },
        {
          "internalType": "uint256",
          "name": "populationGrowth",
          "type": "uint256"
        },
        {
          "internalType": "enum DarkForestTypes.PlanetResource",
          "name": "planetResource",
          "type": "uint8"
        },
        {
          "internalType": "uint256",
          "name": "silverCap",
          "type": "uint256"
        },
        {
          "internalType": "uint256",
          "name": "silverGrowth",
          "type": "uint256"
        },
        {
          "internalType": "uint256",
          "name": "silver",
          "type": "uint256"
        },
        {
          "internalType": "uint256",
          "name": "planetLevel",
          "type": "uint256"
        }
      ],
      "stateMutability": "view",
      "type": "function"
    },
    {
      "inputs": [
        {
          "internalType": "uint256",
          "name": "",
          "type": "uint256"
        }
      ],
      "name": "planetsExtendedInfo",
      "outputs": [
        {
          "internalType": "bool",
          "name": "isInitialized",
          "type": "bool"
        },
        {
          "internalType": "uint256",
          "name": "createdAt",
          "type": "uint256"
        },
        {
          "internalType": "uint256",
          "name": "lastUpdated",
          "type": "uint256"
        },
        {
          "internalType": "uint256",
          "name": "perlin",
          "type": "uint256"
        },
        {
          "internalType": "enum DarkForestTypes.SpaceType",
          "name": "spaceType",
          "type": "uint8"
        },
        {
          "internalType": "uint256",
          "name": "upgradeState0",
          "type": "uint256"
        },
        {
          "internalType": "uint256",
          "name": "upgradeState1",
          "type": "uint256"
        },
        {
          "internalType": "uint256",
          "name": "upgradeState2",
          "type": "uint256"
        },
        {
          "internalType": "uint256",
          "name": "hatLevel",
          "type": "uint256"
        },
        {
          "internalType": "bool",
          "name": "hasTriedFindingArtifact",
          "type": "bool"
        },
        {
          "internalType": "uint256",
          "name": "heldArtifactId",
          "type": "uint256"
        },
        {
          "internalType": "uint256",
          "name": "artifactLockedTimestamp",
          "type": "uint256"
        }
      ],
      "stateMutability": "view",
      "type": "function"
    },
    {
      "inputs": [
        {
          "internalType": "uint256",
          "name": "",
          "type": "uint256"
        }
      ],
      "name": "playerIds",
      "outputs": [
        {
          "internalType": "address",
          "name": "",
          "type": "address"
        }
      ],
      "stateMutability": "view",
      "type": "function"
    },
    {
      "inputs": [
        {
          "internalType": "uint256",
          "name": "_location",
          "type": "uint256"
        }
      ],
      "name": "refreshPlanet",
      "outputs": [],
      "stateMutability": "nonpayable",
      "type": "function"
    },
    {
      "inputs": [
        {
          "internalType": "uint256",
          "name": "_location",
          "type": "uint256"
        },
        {
          "internalType": "address",
          "name": "_player",
          "type": "address"
        }
      ],
      "name": "transferOwnership",
      "outputs": [],
      "stateMutability": "nonpayable",
      "type": "function"
    },
    {
      "inputs": [],
      "name": "unpause",
      "outputs": [],
      "stateMutability": "nonpayable",
      "type": "function"
    },
    {
      "inputs": [
        {
          "internalType": "uint256",
          "name": "_location",
          "type": "uint256"
        },
        {
          "internalType": "uint256",
          "name": "_branch",
          "type": "uint256"
        }
      ],
      "name": "upgradePlanet",
      "outputs": [
        {
          "internalType": "uint256",
          "name": "",
          "type": "uint256"
        },
        {
          "internalType": "uint256",
          "name": "",
          "type": "uint256"
        }
      ],
      "stateMutability": "nonpayable",
      "type": "function"
    },
    {
      "inputs": [
        {
          "internalType": "uint256",
          "name": "",
          "type": "uint256"
        },
        {
          "internalType": "uint256",
          "name": "",
          "type": "uint256"
        }
      ],
      "name": "upgrades",
      "outputs": [
        {
          "internalType": "uint256",
          "name": "popCapMultiplier",
          "type": "uint256"
        },
        {
          "internalType": "uint256",
          "name": "popGroMultiplier",
          "type": "uint256"
        },
        {
          "internalType": "uint256",
          "name": "rangeMultiplier",
          "type": "uint256"
        },
        {
          "internalType": "uint256",
          "name": "speedMultiplier",
          "type": "uint256"
        },
        {
          "internalType": "uint256",
          "name": "defMultiplier",
          "type": "uint256"
        }
      ],
      "stateMutability": "view",
      "type": "function"
    },
    {
      "inputs": [],
      "name": "withdraw",
      "outputs": [],
      "stateMutability": "nonpayable",
      "type": "function"
    },
    {
      "inputs": [
        {
          "internalType": "uint256",
          "name": "locationId",
          "type": "uint256"
        }
      ],
      "name": "withdrawArtifact",
      "outputs": [],
      "stateMutability": "nonpayable",
      "type": "function"
    },
    {
      "inputs": [],
      "name": "worldRadius",
      "outputs": [
        {
          "internalType": "uint256",
          "name": "",
          "type": "uint256"
        }
      ],
      "stateMutability": "view",
      "type": "function"
    }
  ],
  "bytecode": "0x608060405234801561001057600080fd5b50615fd680620000216000396000f3fe6080604052600436106103ce5760003560e01c806378d4ce95116101fd578063bb4908f211610118578063d3acb0c3116100ab578063f6e46b601161007a578063f6e46b6014610b71578063f9231d9214610b86578063fc6f946814610bb3578063fe80bb1214610bc8578063fecf973414610bdd576103ce565b8063d3acb0c314610aed578063dacb613514610b02578063de2edb9114610b2f578063e654848a14610b44576103ce565b8063c8d503ea116100e7578063c8d503ea14610a44578063c935949114610a64578063ccf738e914610a95578063ce02f43b14610acd576103ce565b8063bb4908f2146109cd578063c012b112146109e2578063c4c3cfaa14610a0f578063c68b812614610a2f576103ce565b8063975de61311610190578063aaca42e91161015f578063aaca42e914610928578063ab23032114610948578063ad48909114610978578063b5549e6414610998576103ce565b8063975de613146108c857806397dbb6fa1461072857806398f94a8e146108f55780639fd4d4d414610915576103ce565b80638f283970116101cc5780638f283970146108485780639184f0b61461086857806392d93a12146108885780639759d15f146108a8576103ce565b806378d4ce95146107e95780638456cb59146108095780638a05b3291461081e5780638af9d56214610833576103ce565b80633f324cf3116102ed5780636b2f112c1161028057806374b991061161024f57806374b991061461076b57806376af38b41461078057806378622ae6146107b457806378d1742b146107d4576103ce565b80636b2f112c146106e65780636c7ffeec146106fb5780636df0a9061461072857806373a853811461073d576103ce565b80634eb0e959116102bc5780634eb0e9591461066d5780635c975abb146106825780636306a12214610697578063695bd00c146106c4576103ce565b80633f324cf3146105eb5780633f4ba83a1461060b5780633f9d7c491461062057806340a727881461064d576103ce565b80631e4abc3a1161036557806326c1e7501161033457806326c1e7501461055e57806329507f7314610596578063314d1ff7146105b65780633ccfd60b146105d6576103ce565b80631e4abc3a1461048f5780631f2836b7146104f15780631f94f54014610511578063221f77641461053e576103ce565b806308d2e95a116103a157806308d2e95a1461046d5780630ad98d411461048f5780630af80778146104b157806310d4abf2146104d1576103ce565b806304d74a39146103d357806305b86be51461040957806306fa84c61461042b5780630767751a1461044d575b600080fd5b3480156103df57600080fd5b506103f36103ee366004614ac0565b610bfd565b60405161040091906150bf565b60405180910390f35b34801561041557600080fd5b5061041e610d6f565b6040516104009190615328565b34801561043757600080fd5b5061044b610446366004614a3a565b610dc7565b005b34801561045957600080fd5b5061044b610468366004614a3a565b610f4a565b34801561047957600080fd5b50610482610f87565b6040516104009190615003565b34801561049b57600080fd5b506104a461111e565b6040516104009190614d15565b3480156104bd57600080fd5b506104a46104cc36600461479f565b611123565b3480156104dd57600080fd5b506104a46104ec366004614a3a565b6114f1565b3480156104fd57600080fd5b506104a461050c366004614a3a565b61150f565b34801561051d57600080fd5b5061053161052c366004614a3a565b61151c565b604051610400919061537b565b34801561054a57600080fd5b506104a4610559366004614a3a565b6115a4565b34801561056a57600080fd5b5061057e610579366004614a3a565b6115b1565b6040516104009c9b9a99989796959493929190614d61565b3480156105a257600080fd5b5061044b6105b1366004614a6a565b61161e565b3480156105c257600080fd5b5061041e6105d136600461460c565b611780565b3480156105e257600080fd5b5061044b611805565b3480156105f757600080fd5b5061044b610606366004614a3a565b611862565b34801561061757600080fd5b5061044b61199e565b34801561062c57600080fd5b5061064061063b366004614831565b611a06565b6040516104009190614e23565b34801561065957600080fd5b50610640610668366004614ac0565b611aa5565b34801561067957600080fd5b506104a4611b42565b34801561068e57600080fd5b50610531611b48565b3480156106a357600080fd5b506106b76106b2366004614831565b611b58565b6040516104009190614f36565b3480156106d057600080fd5b506106d9611e9a565b6040516104009190614e83565b3480156106f257600080fd5b506104a4611f4a565b34801561070757600080fd5b5061071b610716366004614ac0565b611f50565b6040516104009190614dd6565b34801561073457600080fd5b506104a4611ffa565b34801561074957600080fd5b5061075d610758366004614ac0565b611fff565b604051610400929190615e43565b34801561077757600080fd5b506104a46120eb565b34801561078c57600080fd5b506107a061079b366004614a3a565b6120f0565b604051610400989796959493929190615db5565b3480156107c057600080fd5b506103f36107cf366004614831565b61213d565b3480156107e057600080fd5b5061041e6122a0565b3480156107f557600080fd5b506104a46108043660046146ff565b6122f6565b34801561081557600080fd5b5061044b612605565b34801561082a57600080fd5b506104a4612674565b34801561083f57600080fd5b5061053161267a565b34801561085457600080fd5b5061044b61086336600461460c565b61268a565b34801561087457600080fd5b5061053161088336600461460c565b61270a565b34801561089457600080fd5b5061044b6108a3366004614ac0565b61271f565b3480156108b457600080fd5b5061044b6108c33660046146a6565b612942565b3480156108d457600080fd5b506108e86108e3366004614ac0565b612d86565b6040516104009190615186565b34801561090157600080fd5b506108e8610910366004614831565b612efe565b61044b610923366004614a3a565b61306e565b34801561093457600080fd5b5061041e610943366004614ac0565b613165565b34801561095457600080fd5b50610968610963366004614ac0565b6131ef565b6040516104009493929190615df4565b34801561098457600080fd5b506104a4610993366004614a3a565b613235565b3480156109a457600080fd5b506109b86109b3366004614a3a565b613242565b60405161040099989796959493929190615481565b3480156109d957600080fd5b506104a4613322565b3480156109ee57600080fd5b50610a026109fd366004614a3a565b613328565b6040516104009190614d34565b348015610a1b57600080fd5b506104a4610a2a366004614a3a565b61334f565b348015610a3b57600080fd5b506104a4613361565b348015610a5057600080fd5b50610531610a5f366004614a3a565b613367565b348015610a7057600080fd5b50610a84610a7f366004614ac0565b61338a565b604051610400959493929190615e20565b348015610aa157600080fd5b50610ab5610ab0366004614a3a565b6133cc565b6040516104009c9b9a99989796959493929190615386565b348015610ad957600080fd5b5061044b610ae8366004614a3a565b613434565b348015610af957600080fd5b506104a4613469565b348015610b0e57600080fd5b50610b22610b1d366004614a3a565b61346e565b6040516104009190614ee0565b348015610b3b57600080fd5b506104a4613653565b348015610b5057600080fd5b50610b64610b5f366004614831565b613659565b6040516104009190614ef3565b348015610b7d57600080fd5b506104a46138c4565b348015610b9257600080fd5b50610ba6610ba1366004614a3a565b6138c9565b6040516104009190615cba565b348015610bbf57600080fd5b50610a02613ab3565b348015610bd457600080fd5b506104a4613ac8565b348015610be957600080fd5b5061044b610bf836600461464b565b613acd565b60608282036001600160401b0381118015610c1757600080fd5b50604051908082528060200260200182016040528015610c5157816020015b610c3e614184565b815260200190600190039081610c365790505b509050825b82811015610d6857604a600060458381548110610c6f57fe5b90600052602060002001548152602001908152602001600020604051806101800160405290816000820160009054906101000a900460ff161515151581526020016001820154815260200160028201548152602001600382015481526020016004820160009054906101000a900460ff166002811115610ceb57fe5b6002811115610cf657fe5b815260058201546020820152600682015460408201526007820154606082015260088201546080820152600982015460ff16151560a0820152600a82015460c0820152600b9091015460e09091015282518390868403908110610d5557fe5b6020908102919091010152600101610c56565b5092915050565b60606003805480602002602001604051908101604052809291908181526020018280548015610dbd57602002820191906000526020600020905b815481526020019060010190808311610da9575b5050505050905090565b600254600160a01b900460ff1615610dfa5760405162461bcd60e51b8152600401610df190615b46565b60405180910390fd5b610e0381611862565b6000818152604960209081526040808320604a909252909120600a81015482546001600160a01b03163314610e4a5760405162461bcd60e51b8152600401610df190615801565b80610e675760405162461bcd60e51b8152600401610df190615a85565b61a8c082600b0154014211610e8e5760405162461bcd60e51b8152600401610df19061553c565b6002546040516291d47560e31b815273__DarkForestPlanet______________________9163048ea3a891610ed8916001600160a01b031690309088908890604c906004016153f3565b60006040518083038186803b158015610ef057600080fd5b505af4158015610f04573d6000803e3d6000fd5b505050507fddc1c4f50c95d59676181cc235531a664d4d990a0d585408c1fb89bacca2fbc4843383604051610f3b93929190615d45565b60405180910390a15050505b50565b6000546201000090046001600160a01b03163314610f7a5760405162461bcd60e51b8152600401610df1906157ca565b6044819055610f47613da5565b60035460609081906001600160401b0381118015610fa457600080fd5b50604051908082528060200260200182016040528015610fde57816020015b610fcb6141f4565b815260200190600190039081610fc35790505b50905060005b6003548110156111185760068181548110610ffb57fe5b600091825260209182902060408051600993909302909101805460026001821615610100026000190190911604601f810185900490940283016101409081019092526101208301848152929390928492909184918401828280156110a05780601f10611075576101008083540402835291602001916110a0565b820191906000526020600020905b81548152906001019060200180831161108357829003601f168201915b505050505081526020016001820154815260200160028201548152602001600382015481526020016004820154815260200160058201548152602001600682015481526020016007820154815260200160088201548152505082828151811061110557fe5b6020908102919091010152600101610fe4565b50905090565b600881565b600254600090600160a01b900460ff16156111505760405162461bcd60e51b8152600401610df190615b46565b8151602083015160408401516060850151608086015160a087015160c0880151600254600160a81b900460ff1661125d57611189614240565b6040518060a0016040528089815260200188815260200187815260200186815260200185815250905073__Verifier______________________________63275abc628e8e8e856040518563ffffffff1660e01b81526004016111ef94939291906152d7565b60206040518083038186803b15801561120757600080fd5b505af415801561121b573d6000803e3d6000fd5b505050506040513d601f19601f8201168201806040525081019061123f9190614933565b61125b5760405162461bcd60e51b8152600401610df1906159c5565b505b60475484111561127f5760405162461bcd60e51b8152600401610df190615c55565b6000868152604a602052604090205460ff166112a6576112a186866000613e3c565b611405565b6112af86611862565b60008060005b6000898152604d602052604090205460ff82161015611397576000898152604d60205260408120805460ff84169081106112eb57fe5b600091825260209091206001600490920201015460ff16801561130a57fe5b141561138f57600089815260496020908152604080832054604d909252822080546001600160a01b0390921692604e9290919060ff861690811061134a57fe5b6000918252602080832060049092029091015483528201929092526040019020600101546001600160a01b031614156113885760019092019161138f565b6001909101905b6001016112b5565b506000888152604960205260409020546001600160a01b03163314156113df5760068260ff16106113da5760405162461bcd60e51b8152600401610df1906155cf565b611402565b60068160ff16106114025760405162461bcd60e51b8152600401610df1906155cf565b50505b61140e87611862565b6048546040516306e5297d60e31b815273__DarkForestPlanet______________________916337294be89161145c918b918b91899189918991604990604a90604d90604e90600401615ea9565b60006040518083038186803b15801561147457600080fd5b505af4158015611488573d6000803e3d6000fd5b50506048805460010190555061149e9050613da5565b7f73589d8f04c4286010ba8cbf687f804de4f668cb96b2d8c73f310ceb90a48fc06001604854036040516114d29190614d15565b60405180910390a15050604854600019019a9950505050505050505050565b600481815481106114fe57fe5b600091825260209091200154905081565b600581815481106114fe57fe5b600254604051627e53d560e61b81526000916001600160a01b031690631f94f5409061154c908590600401614d15565b60206040518083038186803b15801561156457600080fd5b505afa158015611578573d6000803e3d6000fd5b505050506040513d601f19601f8201168201806040525081019061159c9190614933565b90505b919050565b600381815481106114fe57fe5b604960205260009081526040902080546001820154600283015460038401546004850154600586015460068701546007880154600889015460098a0154600a8b0154600b909b01546001600160a01b03909a169a98999798969795969495939460ff90931693919290918c565b600254600160a01b900460ff16156116485760405162461bcd60e51b8152600401610df190615b46565b6000828152604a602052604090205460ff16151560011461167b5760405162461bcd60e51b8152600401610df190615793565b61168482611862565b6000828152604960205260409020546001600160a01b031633146116ba5760405162461bcd60e51b8152600401610df190615713565b6001600160a01b0381163314156116e35760405162461bcd60e51b8152600401610df19061598e565b6001600160a01b0381166000908152604b602052604090205460ff1661171b5760405162461bcd60e51b8152600401610df1906159fc565b6000828152604960205260409081902080546001600160a01b0319166001600160a01b038416179055517f0d6a4b16d4e1aee360d85f68ad11dd1fce957650322a72303f9d3f709aedc65f906117749084908490615d2e565b60405180910390a15050565b60025460405163314d1ff760e01b81526060916001600160a01b03169063314d1ff7906117b1908590600401614d34565b60006040518083038186803b1580156117c957600080fd5b505afa1580156117dd573d6000803e3d6000fd5b505050506040513d6000823e601f3d908101601f1916820160405261159c919081019061489f565b6000546201000090046001600160a01b031633146118355760405162461bcd60e51b8152600401610df1906157ca565b6040513390303180156108fc02916000818181858888f19350505050158015610f47573d6000803e3d6000fd5b600154604051633af32abf60e01b81526001600160a01b0390911690633af32abf90611892903390600401614d34565b60206040518083038186803b1580156118aa57600080fd5b505afa1580156118be573d6000803e3d6000fd5b505050506040513d601f19601f820116820180604052508101906118e29190614933565b6118fe5760405162461bcd60e51b8152600401610df190615912565b600254600160a01b900460ff16156119285760405162461bcd60e51b8152600401610df190615b46565b60405163180287b760e01b815273__DarkForestPlanet______________________9063180287b79061196b908490604990604a90604d90604e90600401615e20565b60006040518083038186803b15801561198357600080fd5b505af4158015611997573d6000803e3d6000fd5b5050505050565b6000546201000090046001600160a01b031633146119ce5760405162461bcd60e51b8152600401610df1906157ca565b600254600160a01b900460ff166119f75760405162461bcd60e51b8152600401610df190615c1e565b6002805460ff60a01b19169055565b606080826001600160401b0381118015611a1f57600080fd5b50604051908082528060200260200182016040528015611a5357816020015b6060815260200190600190039081611a3e5790505b50905060005b83811015611a9b57611a7c858583818110611a7057fe5b9050602002013561346e565b828281518110611a8857fe5b6020908102919091010152600101611a59565b5090505b92915050565b6060808383036001600160401b0381118015611ac057600080fd5b50604051908082528060200260200182016040528015611af457816020015b6060815260200190600190039081611adf5790505b509050835b83811015611a9b57611b2160458281548110611b1157fe5b906000526020600020015461346e565b8286830381518110611b2f57fe5b6020908102919091010152600101611af9565b60475481565b600254600160a01b900460ff1681565b6060816001600160401b0381118015611b7057600080fd5b50604051908082528060200260200182016040528015611baa57816020015b611b9761425e565b815260200190600190039081611b8f5790505b50905060005b82811015610d6857611bc06142d1565b604e6000868685818110611bd057fe5b602090810292909201358352508181019290925260409081016000208151610100810183528154815260018201546001600160a01b0316938101939093526002810154918301919091526003810154606083015260048101546080830152600581015460a0830152600681015460c08301526007015460e08201529050611c5561431f565b6040808301516000908152604960209081529082902082516101808101845281546001600160a01b03168152600180830154938201939093526002820154938101939093526003810154606084015260048101546080840152600581015460a0840152600681015460c08401526007810154909160e084019160ff1690811115611cdb57fe5b6001811115611ce657fe5b81526020016008820154815260200160098201548152602001600a8201548152602001600b820154815250509050611d1c61431f565b60608084015160009081526049602090815260409182902082516101808101845281546001600160a01b031681526001808301549382019390935260028201549381019390935260038101549383019390935260048301546080830152600583015460a0830152600683015460c0830152600783015491929160e084019160ff90911690811115611da957fe5b6001811115611db457fe5b81526020016008820154815260200160098201548152602001600a8201548152602001600b820154815250509050604051806101800160405280846080015181526020018460a0015181526020018460c0015181526020018460e0015181526020018460400151815260200183600001516001600160a01b031681526020018360800151815260200183610140015181526020018460600151815260200182600001516001600160a01b0316815260200182608001518152602001826101400151815250858581518110611e8457fe5b6020908102919091010152505050600101611bb0565b611ea2614394565b6040805160608101909152600760036000835b82821015611f4157604080516080810190915260148302850160046000835b82821015611f2e578382600502016040518060a00160405290816000820154815260200160018201548152602001600282015481526020016003820154815260200160048201548152505081526020019060010190611ed4565b5050505081526020019060010190611eb5565b50505050905090565b61a8c081565b60608282036001600160401b0381118015611f6a57600080fd5b50604051908082528060200260200182016040528015611f94578160200160208202803683370190505b509050825b82811015610d685760468181548110611fae57fe5b9060005260206000200160009054906101000a90046001600160a01b03168285830381518110611fda57fe5b6001600160a01b0390921660209283029190910190910152600101611f99565b601181565b6002546000908190600160a01b900460ff161561202e5760405162461bcd60e51b8152600401610df190615b46565b61203784611862565b604051633097022560e21b815273__DarkForestPlanet______________________9063c25c08949061207c9087908790604990604a90600690600790600401615e51565b60006040518083038186803b15801561209457600080fd5b505af41580156120a8573d6000803e3d6000fd5b505050507f1c3559377dd1e586346f593aa9785e8eea8298f2d2ce1c2ef50428563d8ba84c846040516120db9190614d15565b60405180910390a1509192909150565b600481565b604e602052600090815260409020805460018201546002830154600384015460048501546005860154600687015460079097015495966001600160a01b0390951695939492939192909188565b6060816001600160401b038111801561215557600080fd5b5060405190808252806020026020018201604052801561218f57816020015b61217c614184565b8152602001906001900390816121745790505b50905060005b82811015610d6857604a60008585848181106121ad57fe5b905060200201358152602001908152602001600020604051806101800160405290816000820160009054906101000a900460ff161515151581526020016001820154815260200160028201548152602001600382015481526020016004820160009054906101000a900460ff16600281111561222557fe5b600281111561223057fe5b815260058201546020820152600682015460408201526007820154606082015260088201546080820152600982015460ff16151560a0820152600a82015460c0820152600b9091015460e090910152825183908390811061228d57fe5b6020908102919091010152600101612195565b60606004805480602002602001604051908101604052809291908181526020018280548015610dbd5760200282019190600052602060002090815481526020019060010190808311610da9575050505050905090565b600154604051633af32abf60e01b81526000916001600160a01b031690633af32abf90612327903390600401614d34565b60206040518083038186803b15801561233f57600080fd5b505afa158015612353573d6000803e3d6000fd5b505050506040513d601f19601f820116820180604052508101906123779190614933565b6123935760405162461bcd60e51b8152600401610df190615912565b600254600160a01b900460ff16156123bd5760405162461bcd60e51b8152600401610df190615b46565b600254600160a81b900460ff16612477576040516323bfe25560e21b815273__Verifier______________________________90638eff89549061240b90889088908890889060040161527a565b60206040518083038186803b15801561242357600080fd5b505af4158015612437573d6000803e3d6000fd5b505050506040513d601f19601f8201168201806040525081019061245b9190614933565b6124775760405162461bcd60e51b8152600401610df19061588d565b81516020830151604080850151604754915163c519ebff60e01b8152909173__DarkForestPlanet______________________9163c519ebff916124cd91879187918791604b91604a9190600e90600401615e79565b60206040518083038186803b1580156124e557600080fd5b505af41580156124f9573d6000803e3d6000fd5b505050506040513d601f19601f8201168201806040525081019061251d9190614933565b61252657600080fd5b336000818152604b60205260408120805460ff1916600190811790915560468054808301825592527f128667f541fed74a8429f9d592c26c2c6a4beb9ae5ead9912c98b2595c84231090910180546001600160a01b0319169092179091556125919084908490613e3c565b600083815260496020526040902080546001600160a01b0319163317815561c3506004909101556125c0613da5565b7f5765df5ce7cf4175ef997923b4936159dcf3cea059434dab4643214d690a2b9533846040516125f1929190614d48565b60405180910390a150909695505050505050565b6000546201000090046001600160a01b031633146126355760405162461bcd60e51b8152600401610df1906157ca565b600254600160a01b900460ff161561265f5760405162461bcd60e51b8152600401610df190615c8a565b6002805460ff60a01b1916600160a01b179055565b60465490565b600254600160a81b900460ff1681565b6000546201000090046001600160a01b031633146126ba5760405162461bcd60e51b8152600401610df1906157ca565b6001600160a01b0381166126e05760405162461bcd60e51b8152600401610df19061550c565b600080546001600160a01b03909216620100000262010000600160b01b0319909216919091179055565b604b6020526000908152604090205460ff1681565b600254600160a01b900460ff16156127495760405162461bcd60e51b8152600401610df190615b46565b61275282611862565b6000828152604960209081526040808320604a9092529182902060025492516331a9108f60e11b81529192909133916001600160a01b031690636352211e9061279f908790600401614d15565b60206040518083038186803b1580156127b757600080fd5b505afa1580156127cb573d6000803e3d6000fd5b505050506040513d601f19601f820116820180604052508101906127ef919061462f565b6001600160a01b0316146128155760405162461bcd60e51b8152600401610df190615642565b81546001600160a01b0316331461283e5760405162461bcd60e51b8152600401610df190615ac7565b600a810154156128605760405162461bcd60e51b8152600401610df1906154d5565b6000600783015460ff16600181111561287557fe5b146128925760405162461bcd60e51b8152600401610df1906156ce565b60025460405163911617cf60e01b815273__DarkForestPlanet______________________9163911617cf916128df916001600160a01b0316908790899088908890604c90600401615424565b60006040518083038186803b1580156128f757600080fd5b505af415801561290b573d6000803e3d6000fd5b505050507ff508c790301e4d7e4823721c6d7ad5d6cdfd3f3e84d27ad5c2793ec9fe4951e3843385604051610f3b93929190615d45565b600254600160a01b900460ff161561296c5760405162461bcd60e51b8152600401610df190615b46565b604354421061298d5760405162461bcd60e51b8152600401610df190615a4e565b8051602082015161299d82611862565b6000828152604960209081526040808320604a909252808320600480820154925163953e393760e01b815293949193919273__DarkForestUtils_______________________9263953e393792612a009260ff16918991600f9160119101615457565b60206040518083038186803b158015612a1857600080fd5b505af4158015612a2c573d6000803e3d6000fd5b505050506040513d601f19601f82011682018060405250810190612a50919061494f565b600254909150600160a81b900460ff16612b0d57604051631b210ed160e31b815273__Verifier______________________________9063d908768890612aa1908c908c908c908c90600401615243565b60206040518083038186803b158015612ab957600080fd5b505af4158015612acd573d6000803e3d6000fd5b505050506040513d601f19601f82011682018060405250810190612af19190614933565b612b0d5760405162461bcd60e51b8152600401610df190615688565b612b1b8584600b015461403c565b612b375760405162461bcd60e51b8152600401610df19061574a565b600982015460ff1615612b5c5760405162461bcd60e51b8152600401610df190615be7565b82546001600160a01b03163314612b855760405162461bcd60e51b8152600401610df190615581565b605f8360050154846004015460640281612b9b57fe5b0411612bb95760405162461bcd60e51b8152600401610df1906155ff565b6000600784015460ff166001811115612bce57fe5b14612beb5760405162461bcd60e51b8152600401610df190615b6e565b60098201805460ff19166001179055604854600090612c0c9087904261408c565b9050600080612c1a836140c3565b91509150612c266143c1565b600254600b880154604051631401ad8960e01b81526001600160a01b0390921691631401ad8991612c6691889133918f919089908d908c90600401615d64565b60e060405180830381600087803b158015612c8057600080fd5b505af1158015612c94573d6000803e3d6000fd5b505050506040513d601f19601f82011682018060405250810190612cb8919061496a565b600254815160405163911617cf60e01b815292935073__DarkForestPlanet______________________9263911617cf92612d0a926001600160a01b03909116918e908d908d90604c90600401615424565b60006040518083038186803b158015612d2257600080fd5b505af4158015612d36573d6000803e3d6000fd5b505082516040517fb882fef472efbe5eeca4c6dd514ead8a562083960308e38711de10161c66cad49350612d6e92508c913391615d45565b60405180910390a15050505050505050505b50505050565b60608282036001600160401b0381118015612da057600080fd5b50604051908082528060200260200182016040528015612dda57816020015b612dc761431f565b815260200190600190039081612dbf5790505b509050825b82811015610d68576049600060458381548110612df857fe5b90600052602060002001548152602001908152602001600020604051806101800160405290816000820160009054906101000a90046001600160a01b03166001600160a01b03166001600160a01b031681526020016001820154815260200160028201548152602001600382015481526020016004820154815260200160058201548152602001600682015481526020016007820160009054906101000a900460ff166001811115612ea657fe5b6001811115612eb157fe5b81526020016008820154815260200160098201548152602001600a8201548152602001600b820154815250508285830381518110612eeb57fe5b6020908102919091010152600101612ddf565b6060816001600160401b0381118015612f1657600080fd5b50604051908082528060200260200182016040528015612f5057816020015b612f3d61431f565b815260200190600190039081612f355790505b50905060005b82811015610d685760496000858584818110612f6e57fe5b905060200201358152602001908152602001600020604051806101800160405290816000820160009054906101000a90046001600160a01b03166001600160a01b03166001600160a01b031681526020016001820154815260200160028201548152602001600382015481526020016004820154815260200160058201548152602001600682015481526020016007820160009054906101000a900460ff16600181111561301857fe5b600181111561302357fe5b81526020016008820154815260200160098201548152602001600a8201548152602001600b8201548152505082828151811061305b57fe5b6020908102919091010152600101612f56565b6000818152604a602052604090205460ff1615156001146130a15760405162461bcd60e51b8152600401610df190615793565b6130aa81611862565b6000818152604960205260409020546001600160a01b031633146130e05760405162461bcd60e51b8152600401610df19061584c565b6000818152604a6020526040902060080154670de0b6b3a7640000901b3481111561311d5760405162461bcd60e51b8152600401610df190615bb0565b6000828152604a60205260409081902060080180546001019055517f444d0a208ac492e147b2e0e5ffeeb6e6be2c122d95f3da8f45e26868785c84eb90611774908490614d15565b60608282036001600160401b038111801561317f57600080fd5b506040519080825280602002602001820160405280156131a9578160200160208202803683370190505b509050825b82811015610d6857604581815481106131c357fe5b906000526020600020015482858303815181106131dc57fe5b60209081029190910101526001016131ae565b604d602052816000526040600020818154811061320857fe5b6000918252602090912060049091020180546001820154600283015460039093015491945060ff16925084565b604581815481106114fe57fe5b6006818154811061324f57fe5b60009182526020918290206009919091020180546040805160026001841615610100026000190190931692909204601f8101859004850283018501909152808252919350918391908301828280156132e85780601f106132bd576101008083540402835291602001916132e8565b820191906000526020600020905b8154815290600101906020018083116132cb57829003601f168201915b5050505050908060010154908060020154908060030154908060040154908060050154908060060154908060070154908060080154905089565b60485481565b6046818154811061333557fe5b6000918252602090912001546001600160a01b0316905081565b604c6020526000908152604090205481565b60455490565b7dc19139cb84c680a6e14116da06056174a0cfa121e6e5c2450f87d64fc0001190565b6007826003811061339757fe5b6014020181600481106133a657fe5b600502018054600182015460028301546003840154600490940154929550909350919085565b604a60205260009081526040902080546001820154600283015460038401546004850154600586015460068701546007880154600889015460098a0154600a8b0154600b909b015460ff9a8b169b999a9899979896871697959694959394929391909216918c565b6000546201000090046001600160a01b031633146134645760405162461bcd60e51b8152600401610df1906157ca565b604355565b600f81565b60606000805b6000848152604d60205260409020548110156134d8576000848152604d602052604081208054839081106134a457fe5b600091825260209091206001600490920201015460ff1680156134c357fe5b14156134d0576001820191505b600101613474565b50806001600160401b03811180156134ef57600080fd5b5060405190808252806020026020018201604052801561352957816020015b6135166142d1565b81526020019060019003908161350e5790505b5091506000805b6000858152604d602052604090205481101561364b576000858152604d6020526040812080548390811061356057fe5b600091825260209091206001600490920201015460ff16801561357f57fe5b1415613643576000858152604d602052604081208054604e929190849081106135a457fe5b600091825260208083206004928302015484528381019490945260409283019091208251610100810184528154815260018201546001600160a01b031694810194909452600281015492840192909252600382015460608401528101546080830152600581015460a0830152600681015460c08301526007015460e0820152845185908490811061363157fe5b60209081029190910101526001909101905b600101613530565b505050919050565b61400081565b6060816001600160401b038111801561367157600080fd5b506040519080825280602002602001820160405280156136ab57816020015b613698614409565b8152602001906001900390816136905790505b50905060005b82811015610d68576136c16143c1565b6002546001600160a01b0316638465ad448686858181106136de57fe5b905060200201356040518263ffffffff1660e01b81526004016137019190614d15565b60e06040518083038186803b15801561371957600080fd5b505afa15801561372d573d6000803e3d6000fd5b505050506040513d601f19601f82011682018060405250810190613751919061496a565b905061375b61443d565b604051632e3b657160e21b815273__DarkForestUtils_______________________9063b8ed95c490613792908590600401615cc9565b60a06040518083038186803b1580156137aa57600080fd5b505af41580156137be573d6000803e3d6000fd5b505050506040513d601f19601f820116820180604052508101906137e291906149e9565b6040805160808101825284815260208101839052600254855183516331a9108f60e11b81529495509193928401926001600160a01b0390911691636352211e9161382f9190600401614d15565b60206040518083038186803b15801561384757600080fd5b505afa15801561385b573d6000803e3d6000fd5b505050506040513d601f19601f8201168201806040525081019061387f919061462f565b6001600160a01b0316815283516000908152604c602090815260409091205491015284518590859081106138af57fe5b602090810291909101015250506001016136b1565b606481565b6138d1614409565b6138d96143c1565b6002546040516321196b5160e21b81526001600160a01b0390911690638465ad4490613909908690600401614d15565b60e06040518083038186803b15801561392157600080fd5b505afa158015613935573d6000803e3d6000fd5b505050506040513d601f19601f82011682018060405250810190613959919061496a565b905061396361443d565b604051632e3b657160e21b815273__DarkForestUtils_______________________9063b8ed95c49061399a908590600401615cc9565b60a06040518083038186803b1580156139b257600080fd5b505af41580156139c6573d6000803e3d6000fd5b505050506040513d601f19601f820116820180604052508101906139ea91906149e9565b6040805160808101825284815260208101839052600254855183516331a9108f60e11b81529495509193928401926001600160a01b0390911691636352211e91613a379190600401614d15565b60206040518083038186803b158015613a4f57600080fd5b505afa158015613a63573d6000803e3d6000fd5b505050506040513d601f19601f82011682018060405250810190613a87919061462f565b6001600160a01b0316815292516000908152604c60209081526040909120549301929092525092915050565b6000546201000090046001600160a01b031681565b600e81565b600054610100900460ff1680613ae65750613ae6614142565b80613af4575060005460ff16155b613b105760405162461bcd60e51b8152600401610df1906158c4565b600054610100900460ff16158015613b3b576000805460ff1961ff0019909116610100171660011790555b600080546001600160a01b03808816620100000262010000600160b01b031990921691909117909155600180548683166001600160a01b03199182161790915560028054851515600160a81b0261ffff60a01b1994881691909316179290921617905563600ed33a604355610320604455604080516101008101825263010000008152623fffd06020820152620fffc4918101919091526203ffc1606082015261ffc06080820152613fc060a0820152610fc060c08201526103c060e0820152613c0990600390600861446c565b50604051635dfd086d60e01b815273__DarkForestInitialize__________________90635dfd086d90613c4290600690600401614d15565b60006040518083038186803b158015613c5a57600080fd5b505af4158015613c6e573d6000803e3d6000fd5b505060405163e771ed6b60e01b815273__DarkForestInitialize__________________925063e771ed6b9150613caa90600790600401614d15565b60006040518083038186803b158015613cc257600080fd5b505af4158015613cd6573d6000803e3d6000fd5b50506040805161010081018252600080825260208201819052918101829052606081018290526080810182905260a0810182905260c0810182905260e0810191909152613d2992506005915060086144bf565b5060005b600354811015613d8457600461400060038381548110613d4957fe5b9060005260206000200154630100000081613d6057fe5b83546001818101865560009586526020909520929091049290920291015501613d2d565b50613d8d613da5565b8015611997576000805461ff00191690555050505050565b60465460445460405163044424cf60e41b815273__DarkForestUtils_______________________926344424cf092613de79260059260049290918301615360565b60206040518083038186803b158015613dff57600080fd5b505af4158015613e13573d6000803e3d6000fd5b505050506040513d601f19601f82011682018060405250810190613e379190614a52565b604755565b613e4583613367565b613e615760405162461bcd60e51b8152600401610df190615b0f565b60008073__DarkForestUtils_______________________6339818ecc8686600e60116008806004600360066040518a63ffffffff1660e01b8152600401613eb199989796959493929190615eee565b604080518083038186803b158015613ec857600080fd5b505af4158015613edc573d6000803e3d6000fd5b505050506040513d601f19601f82011682018060405250810190613f009190614a99565b915091508215613f28578115613f285760405162461bcd60e51b8152600401610df190615949565b6000858152604960209081526040808320604a9092529091206006805473__DarkForestPlanet______________________93639414ee04939092909187908110613f6f57fe5b9060005260206000209060090201886064600e6011898b8f6040518b63ffffffff1660e01b8152600401613fac9a99989796959493929190615cd7565b60006040518083038186803b158015613fc457600080fd5b505af4158015613fd8573d6000803e3d6000fd5b505060458054600181810183556000929092527fa80a8fcc11760162f08bb091d2c9389d07f2b73d0e996161dfac6f1043b5fc0b018890556005805491935091508490811061402357fe5b6000918252602090912001805490910190555050505050565b60006060836040516020016140519190614d15565b6040516020818303038152906040529050600061407082600e80614148565b9050601081108015614083575060018410155b95945050505050565b60008382846040516020016140a393929190614d1e565b60408051601f198184030181529190528051602090910120949350505050565b60008060ff808406906101008286030406600460408310156140e757506001614105565b60808310156140f857506002614105565b60c0831015614105575060035b6000600483101561411857506003614136565b601083101561412957506002614136565b6040831015614136575060015b90945092505050915091565b303b1590565b6000825b82811161417c578083036101000a85828151811061416657fe5b016020015160f81c02919091019060010161414c565b509392505050565b604051806101800160405280600015158152602001600081526020016000815260200160008152602001600060028111156141bb57fe5b81526020016000815260200160008152602001600081526020016000815260200160001515815260200160008152602001600081525090565b6040518061012001604052806060815260200160008152602001600081526020016000815260200160008152602001600081526020016000815260200160008152602001600081525090565b6040518060a001604052806005906020820280368337509192915050565b604051806101800160405280600081526020016000815260200160008152602001600081526020016000815260200160006001600160a01b0316815260200160008152602001600081526020016000815260200160006001600160a01b0316815260200160008152602001600081525090565b6040518061010001604052806000815260200160006001600160a01b031681526020016000815260200160008152602001600081526020016000815260200160008152602001600081525090565b60405180610180016040528060006001600160a01b031681526020016000815260200160008152602001600081526020016000815260200160008152602001600081526020016000600181111561437257fe5b8152602001600081526020016000815260200160008152602001600081525090565b60405180606001604052806003905b6143ab6144ff565b8152602001906001900390816143a35790505090565b6040518060e00160405280600081526020016000815260200160008152602001600060098111156143ee57fe5b81526000602082018190526040820181905260609091015290565b604051806080016040528061441c6143c1565b815260200161442961443d565b815260006020820181905260409091015290565b6040518060a0016040528060008152602001600081526020016000815260200160008152602001600081525090565b8280548282559060005260206000209081019282156144af579160200282015b828111156144af578251829063ffffffff1690559160200191906001019061448c565b506144bb92915061452c565b5090565b8280548282559060005260206000209081019282156144af579160200282015b828111156144af578251829060ff169055916020019190600101906144df565b60405180608001604052806004905b61451661443d565b81526020019060019003908161450e5790505090565b5b808211156144bb576000815560010161452d565b600082601f830112614551578081fd5b604061455c81615f2d565b915081838560808601111561457057600080fd5b60005b600281101561459a5761458687836145a4565b835260209092019190830190600101614573565b5050505092915050565b600082601f8301126145b4578081fd5b6145be6040615f2d565b90508082846040850111156145d257600080fd5b60005b60028110156145f45781358352602092830192909101906001016145d5565b50505092915050565b8051600a8110611a9f57600080fd5b60006020828403121561461d578081fd5b813561462881615f7d565b9392505050565b600060208284031215614640578081fd5b815161462881615f7d565b60008060008060808587031215614660578283fd5b843561466b81615f7d565b9350602085013561467b81615f7d565b9250604085013561468b81615f7d565b9150606085013561469b81615f92565b939692955090935050565b60008060008061014085870312156146bc578081fd5b6146c686866145a4565b93506146d58660408701614541565b92506146e48660c087016145a4565b91506146f48661010087016145a4565b905092959194509250565b600080600080610160808688031215614716578283fd5b61472087876145a4565b945061472f8760408801614541565b935061473e8760c088016145a4565b92508661011f87011261474f578182fd5b6147596060615f2d565b80610100880189848a01111561476d578485fd5b8493505b600384101561479157803583526001939093019260209283019201614771565b509598949750929550505050565b6000806000806101e08086880312156147b6578283fd5b6147c087876145a4565b94506147cf8760408801614541565b93506147de8760c088016145a4565b92508661011f8701126147ef578182fd5b6147f960e0615f2d565b80610100880189848a01111561480d578485fd5b8493505b600784101561479157803583526001939093019260209283019201614811565b60008060208385031215614843578182fd5b82356001600160401b0380821115614859578384fd5b818501915085601f83011261486c578384fd5b81358181111561487a578485fd5b866020808302850101111561488d578485fd5b60209290920196919550909350505050565b600060208083850312156148b1578182fd5b82516001600160401b038111156148c6578283fd5b8301601f810185136148d6578283fd5b80516148e96148e482615f53565b615f2d565b8181528381019083850185840285018601891015614905578687fd5b8694505b83851015614927578051835260019490940193918501918501614909565b50979650505050505050565b600060208284031215614944578081fd5b815161462881615f92565b600060208284031215614960578081fd5b61462883836145fd565b600060e0828403121561497b578081fd5b61498560e0615f2d565b8251815260208301516020820152604083015160408201526149aa84606085016145fd565b60608201526080830151608082015260a08301516149c781615f7d565b60a082015260c0830151600581106149dd578283fd5b60c08201529392505050565b600060a082840312156149fa578081fd5b614a0460a0615f2d565b82518152602083015160208201526040830151604082015260608301516060820152608083015160808201528091505092915050565b600060208284031215614a4b578081fd5b5035919050565b600060208284031215614a63578081fd5b5051919050565b60008060408385031215614a7c578182fd5b823591506020830135614a8e81615f7d565b809150509250929050565b60008060408385031215614aab578182fd5b82519150602083015160028110614a8e578182fd5b60008060408385031215614ad2578182fd5b50508035926020909101359150565b6001600160a01b03169052565b8060005b6002811015612d8057614b06848351614ba8565b6040939093019260209190910190600101614af2565b6000815180845260208085019450808401835b83811015614b9d57815180518852838101516001600160a01b03168489015260408082015190890152606080820151908901526080808201519089015260a0808201519089015260c0808201519089015260e090810151908801526101009096019590820190600101614b2f565b509495945050505050565b8060005b6002811015612d80578151845260209384019390910190600101614bac565b15159052565b60058110614bdb57fe5b9052565b600a8110614bdb57fe5b60028110614bdb57fe5b60038110614bdb57fe5b60008151808452815b81811015614c2257602081850181015186830182015201614c06565b81811115614c335782602083870101525b50601f01601f19169290920160200192915050565b614c53828251614c87565b6020810151614c6560e0840182614ce5565b5060408101516001600160a01b0316610180830152606001516101a090910152565b8051825260208101516020830152604081015160408301526060810151614cb16060840182614bdf565b506080810151608083015260018060a01b0360a08201511660a083015260c0810151614ce060c0840182614bd1565b505050565b80518252602081015160208301526040810151604083015260608101516060830152608081015160808301525050565b90815260200190565b9283526020830191909152604082015260600190565b6001600160a01b0391909116815260200190565b6001600160a01b03929092168252602082015260400190565b6001600160a01b038d168152602081018c9052604081018b9052606081018a90526080810189905260a0810188905260c081018790526101808101614da960e0830188614be9565b856101008301528461012083015283610140830152826101608301529d9c50505050505050505050505050565b6020808252825182820181905260009190848201906040850190845b81811015614e175783516001600160a01b031683529284019291840191600101614df2565b50909695505050505050565b6000602080830181845280855180835260408601915060408482028701019250838701855b82811015614e7657603f19888603018452614e64858351614b1c565b94509285019290850190600101614e48565b5092979650505050505050565b610780810181836000805b600381101561459a57825184835b6004811015614ec657614eb0828451614ce5565b6020929092019160a09190910190600101614e9c565b505050610280939093019260209290920191600101614e8e565b6000602082526146286020830184614b1c565b6020808252825182820181905260009190848201906040850190845b81811015614e1757614f22838551614c48565b928401926101c09290920191600101614f0f565b602080825282518282018190526000919060409081850190868401855b82811015614ff65781518051855286810151878601528581015186860152606080820151908601526080808201519086015260a080820151614f9782880182614ae1565b505060c0818101519086015260e08082015190860152610100808201519086015261012080820151614fcb82880182614ae1565b5050610140818101519086015261016090810151908501526101809093019290850190600101614f53565b5091979650505050505050565b60208082528251828201819052600091906040908185019080840286018301878501865b838110156150b157603f198984030185528151610120815181865261504e82870182614bfd565b838b0151878c0152898401518a880152606080850151908801526080808501519088015260a0808501519088015260c0808501519088015260e0808501519088015261010093840151939096019290925250509386019390860190600101615027565b509098975050505050505050565b602080825282518282018190526000919060409081850190868401855b82811015614ff65781516150f1858251614bcb565b808701518588015285810151868601526060808201519086015260808082015161511d82880182614bf3565b505060a0818101519086015260c0808201519086015260e0808201519086015261010080820151908601526101208082015161515b82880182614bcb565b50506101408181015190860152610160908101519085015261018090930192908501906001016150dc565b602080825282518282018190526000919060409081850190868401855b82811015614ff65781516151b8858251614ae1565b80870151858801528581015186860152606080820151908601526080808201519086015260a0808201519086015260c0808201519086015260e08082015161520282880182614be9565b5050610100818101519086015261012080820151908601526101408082015190860152610160908101519085015261018090930192908501906001016151a3565b61014081016152528287614ba8565b61525f6040830186614aee565b61526c60c0830185614ba8565b614083610100830184614ba8565b61016081016152898287614ba8565b6152966040830186614aee565b6152a360c0830185614ba8565b61010082018360005b60038110156152cb5781518352602092830192909101906001016152ac565b50505095945050505050565b6101a081016152e68287614ba8565b6152f36040830186614aee565b61530060c0830185614ba8565b61010082018360005b60058110156152cb578151835260209283019290910190600101615309565b6020808252825182820181905260009190848201906040850190845b81811015614e1757835183529284019291840191600101615344565b93845260208401929092526040830152606082015260800190565b901515815260200190565b6000610180820190508d151582528c60208301528b60408301528a60608301526153af8a615f72565b608083015260a082019890985260c081019690965260e086019490945261010085019290925215156101208401526101408301526101609091015295945050505050565b6001600160a01b03958616815293909416602084015260408301919091526060820152608081019190915260a00190565b6001600160a01b03969096168652602086019490945260408501929092526060840152608083015260a082015260c00190565b6080810161546486615f72565b825284602083015283604083015282606083015295945050505050565b60006101208083526154958184018d614bfd565b602084019b909b52505060408101979097526060870195909552608086019390935260a085019190915260c084015260e083015261010090910152919050565b6020808252601e908201527f706c616e657420616c72656164792068617320616e2061727469666163740000604082015260600190565b60208082526016908201527506e65774f776e65722063616e6e6f74206265203078360541b604082015260600190565b60208082526025908201527f706c616e6574277320617274696661637420697320696e206c6f636b75702070604082015264195c9a5bd960da1b606082015260800190565b6020808252602e908201527f796f752063616e206f6e6c792066696e6420617274696661637473206f6e207060408201526d3630b732ba39903cb7ba9037bbb760911b606082015260800190565b602080825260169082015275141b185b995d081a5cc81c985d194b5b1a5b5a5d195960521b604082015260600190565b60208082526023908201527f796f75206d757374206861766520393525206f6620746865206d617820656e6560408201526272677960e81b606082015260800190565b60208082526026908201527f796f752063616e206f6e6c79206465706f73697420617274696661637473207960408201526537ba9037bbb760d11b606082015260800190565b60208082526026908201527f62696f6d65207a6b534e41524b206661696c656420646f65736e27742063686560408201526518dac81bdd5d60d21b606082015260800190565b60208082526025908201527f63616e2774206465706f736974206172746966616374206f6e2073696c766572604082015264206d696e6560d81b606082015260800190565b6020808252601e908201527f4f6e6c79206f776e65722063616e207472616e7366657220706c616e65740000604082015260600190565b60208082526029908201527f796f752063616e27742066696e6420616e206172746966616374206f6e2074686040820152681a5cc81c1b185b995d60ba1b606082015260800190565b60208082526019908201527f506c616e6574206973206e6f7420696e697469616c697a656400000000000000604082015260600190565b6020808252601b908201527f53656e646572206973206e6f7420612067616d65206d61737465720000000000604082015260600190565b6020808252602b908201527f796f752063616e206f6e6c792077697468647261772066726f6d206120706c6160408201526a3732ba103cb7ba9037bbb760a91b606082015260800190565b60208082526021908201527f4f6e6c79206f776e65722063616e206275792068617420666f7220706c616e656040820152601d60fa1b606082015260800190565b60208082526017908201527f4661696c656420696e69742070726f6f6620636865636b000000000000000000604082015260600190565b6020808252602e908201527f496e697469616c697a61626c653a20636f6e747261637420697320616c72656160408201526d191e481a5b9a5d1a585b1a5e995960921b606082015260800190565b60208082526019908201527f506c61796572206973206e6f742077686974656c697374656400000000000000604082015260600190565b60208082526025908201527f43616e206f6e6c7920696e697469616c697a65206f6e20706c616e6574206c65604082015264076656c20360dc1b606082015260800190565b6020808252601e908201527f43616e6e6f74207472616e7366657220706c616e657420746f2073656c660000604082015260600190565b60208082526017908201527f4661696c6564206d6f76652070726f6f6620636865636b000000000000000000604082015260600190565b60208082526032908201527f43616e206f6e6c79207472616e73666572206f776e65727368697020746f20696040820152716e697469616c697a656420706c617965727360701b606082015260800190565b6020808252601b908201527f546f6b656e206d696e7420706572696f642068617320656e6465640000000000604082015260600190565b60208082526022908201527f706c616e657420686173206e6f20617274696661637420746f20776974686472604082015261617760f01b606082015260800190565b60208082526028908201527f796f752063616e206f6e6c79206465706f736974206f6e206120706c616e6574604082015267103cb7ba9037bbb760c11b606082015260800190565b6020808252601b908201527f4e6f7420612076616c696420706c616e6574206c6f636174696f6e0000000000604082015260600190565b6020808252600e908201526d11d85b59481a5cc81c185d5cd95960921b604082015260600190565b60208082526022908201527f63616e2774206d696e74206172746966616374206f6e2073696c766572206d696040820152616e6560f01b606082015260800190565b60208082526017908201527f496e73756666696369656e742076616c75652073656e74000000000000000000604082015260600190565b60208082526018908201527f706c616e657420616c726561647920706c756e64657265640000000000000000604082015260600190565b60208082526018908201527f47616d6520697320616c726561647920756e7061757365640000000000000000604082015260600190565b6020808252818101527f417474656d7074696e6720746f206d6f7665206f7574206f6620626f756e6473604082015260600190565b60208082526016908201527511d85b59481a5cc8185b1c9958591e481c185d5cd95960521b604082015260600190565b6101c08101611a9f8284614c48565b60e08101611a9f8284614c87565b6000610140820190508b82528a60208301528960408301528860608301528760808301528660a08301528560c0830152615d1460e0830186614be9565b610100820193909352610120015298975050505050505050565b9182526001600160a01b0316602082015260400190565b9283526001600160a01b03919091166020830152604082015260600190565b8781526001600160a01b038716602082015260408101869052606081018590526080810184905260e08101615d9c60a0830185614bdf565b615da960c0830184614bd1565b98975050505050505050565b9788526001600160a01b0396909616602088015260408701949094526060860192909252608085015260a084015260c083015260e08201526101000190565b8481526080810160018510615e0557fe5b84602083015283604083015282606083015295945050505050565b948552602085019390935260408401919091526060830152608082015260a00190565b918252602082015260400190565b958652602086019490945260408501929092526060840152608083015260a082015260c00190565b968752602087019590955260408601939093526060850191909152608084015260a083015260c082015260e00190565b998a5260208a019890985260408901969096526060880194909452608087019290925260a086015260c085015260e08401526101008301526101208201526101400190565b988952602089019790975260408801959095526060870193909352608086019190915260a085015260c084015260e08301526101008201526101200190565b6040518181016001600160401b0381118282101715615f4b57600080fd5b604052919050565b60006001600160401b03821115615f68578081fd5b5060209081020190565b806003811061159f57fe5b6001600160a01b0381168114610f4757600080fd5b8015158114610f4757600080fdfea2646970667358221220c3105dfcf351d34b2787e5f5d6b6d9989b4a2f680be1e9fc6a79207aa1678c7f64736f6c634300060c0033",
  "compiler": {
    "name": "solc",
    "version": "0.6.12+commit.27d51765.Emscripten.clang",
    "optimizer": {
      "enabled": true,
      "runs": 200
    },
    "evmVersion": "petersburg"
  }
}