{
  "fileName": "Whitelist.sol",
  "contractName": "Whitelist",
  "source": "// SPDX-License-Identifier: UNLICENSED\npragma solidity ^0.6.0;\npragma experimental ABIEncoderV2;\n\n// Import base Initializable contract\nimport \"@openzeppelin/contracts-upgradeable/proxy/Initializable.sol\";\n\ncontract Whitelist is Initializable {\n    bool whitelistEnabled;\n    uint256 public drip = 0.05 ether;\n    mapping(address => bool) allowedAccounts;\n    mapping(bytes32 => bool) allowedKeyHashes;\n    address[] allowedAccountsArray;\n    address admin;\n\n    // administrative\n    modifier onlyAdmin() {\n        require(\n            msg.sender == admin,\n            \"Only administrator can perform this action\"\n        );\n        _;\n    }\n\n    function changeAdmin(address _newAdmin) public onlyAdmin {\n        admin = _newAdmin;\n    }\n\n    function initialize(address _admin, bool _whitelistEnabled)\n        public\n        initializer\n    {\n        admin = _admin;\n        whitelistEnabled = _whitelistEnabled;\n    }\n\n    // public getters\n    function getNAllowed() public view returns (uint256) {\n        return allowedAccountsArray.length;\n    }\n\n    function isWhitelisted(address _addr) public view returns (bool) {\n        if (!whitelistEnabled) {\n            return true;\n        }\n        return allowedAccounts[_addr];\n    }\n\n    function isKeyValid(string memory key) public view returns (bool) {\n        bytes32 hashed = keccak256(abi.encodePacked(key));\n        return allowedKeyHashes[hashed];\n    }\n\n    // modify whitelist\n    function addKeys(bytes32[] memory hashes) public onlyAdmin {\n        for (uint16 i = 0; i < hashes.length; i++) {\n            allowedKeyHashes[hashes[i]] = true;\n        }\n    }\n\n    function useKey(string memory key, address owner) public onlyAdmin {\n        require(!allowedAccounts[owner], \"player already whitelisted\");\n        bytes32 hashed = keccak256(abi.encodePacked(key));\n        require(allowedKeyHashes[hashed], \"invalid key\");\n        allowedAccounts[owner] = true;\n        allowedAccountsArray.push(owner);\n        allowedKeyHashes[hashed] = false;\n        // xDAI ONLY\n        payable(owner).transfer(drip);\n    }\n\n    function removeFromWhitelist(address toRemove) public onlyAdmin {\n        require(\n            allowedAccounts[toRemove],\n            \"player was not whitelisted to begin with\"\n        );\n        allowedAccounts[toRemove] = false;\n        for (uint256 i = 0; i < allowedAccountsArray.length; i++) {\n            if (allowedAccountsArray[i] == toRemove) {\n                allowedAccountsArray[i] = allowedAccountsArray[allowedAccountsArray\n                    .length - 1];\n                allowedAccountsArray.pop();\n            }\n        }\n    }\n    \n    function changeDrip(uint256 newDrip) public onlyAdmin {\n        drip = newDrip;\n    }\n\n    function receiveEther() external payable {}\n\n    receive() external payable {}\n}\n",
  "sourcePath": "contracts/Whitelist.sol",
  "abi": [
    {
      "inputs": [
        {
          "internalType": "bytes32[]",
          "name": "hashes",
          "type": "bytes32[]"
        }
      ],
      "name": "addKeys",
      "outputs": [],
      "stateMutability": "nonpayable",
      "type": "function"
    },
    {
      "inputs": [
        {
          "internalType": "address",
          "name": "_newAdmin",
          "type": "address"
        }
      ],
      "name": "changeAdmin",
      "outputs": [],
      "stateMutability": "nonpayable",
      "type": "function"
    },
    {
      "inputs": [
        {
          "internalType": "uint256",
          "name": "newDrip",
          "type": "uint256"
        }
      ],
      "name": "changeDrip",
      "outputs": [],
      "stateMutability": "nonpayable",
      "type": "function"
    },
    {
      "inputs": [],
      "name": "drip",
      "outputs": [
        {
          "internalType": "uint256",
          "name": "",
          "type": "uint256"
        }
      ],
      "stateMutability": "view",
      "type": "function"
    },
    {
      "inputs": [],
      "name": "getNAllowed",
      "outputs": [
        {
          "internalType": "uint256",
          "name": "",
          "type": "uint256"
        }
      ],
      "stateMutability": "view",
      "type": "function"
    },
    {
      "inputs": [
        {
          "internalType": "address",
          "name": "_admin",
          "type": "address"
        },
        {
          "internalType": "bool",
          "name": "_whitelistEnabled",
          "type": "bool"
        }
      ],
      "name": "initialize",
      "outputs": [],
      "stateMutability": "nonpayable",
      "type": "function"
    },
    {
      "inputs": [
        {
          "internalType": "string",
          "name": "key",
          "type": "string"
        }
      ],
      "name": "isKeyValid",
      "outputs": [
        {
          "internalType": "bool",
          "name": "",
          "type": "bool"
        }
      ],
      "stateMutability": "view",
      "type": "function"
    },
    {
      "inputs": [
        {
          "internalType": "address",
          "name": "_addr",
          "type": "address"
        }
      ],
      "name": "isWhitelisted",
      "outputs": [
        {
          "internalType": "bool",
          "name": "",
          "type": "bool"
        }
      ],
      "stateMutability": "view",
      "type": "function"
    },
    {
      "inputs": [],
      "name": "receiveEther",
      "outputs": [],
      "stateMutability": "payable",
      "type": "function"
    },
    {
      "inputs": [
        {
          "internalType": "address",
          "name": "toRemove",
          "type": "address"
        }
      ],
      "name": "removeFromWhitelist",
      "outputs": [],
      "stateMutability": "nonpayable",
      "type": "function"
    },
    {
      "inputs": [
        {
          "internalType": "string",
          "name": "key",
          "type": "string"
        },
        {
          "internalType": "address",
          "name": "owner",
          "type": "address"
        }
      ],
      "name": "useKey",
      "outputs": [],
      "stateMutability": "nonpayable",
      "type": "function"
    },
    {
      "stateMutability": "payable",
      "type": "receive"
    }
  ],
  "bytecode": "0x608060405266b1a2bc2ec5000060015534801561001b57600080fd5b50610b318061002b6000396000f3fe6080604052600436106100a05760003560e01c80638f283970116100645780638f283970146101645780639f678cca14610184578063a3912ec8146101a6578063badaad2a146101ae578063c175559b146101ce578063d8d5fc87146101e3576100a7565b8063188caf8a146100ac5780633af32abf146100ce578063400ada75146101045780638ab1d681146101245780638d82b0a414610144576100a7565b366100a757005b600080fd5b3480156100b857600080fd5b506100cc6100c73660046107f6565b610203565b005b3480156100da57600080fd5b506100ee6100e9366004610799565b610291565b6040516100fb9190610964565b60405180910390f35b34801561011057600080fd5b506100cc61011f3660046107bb565b6102cd565b34801561013057600080fd5b506100cc61013f366004610799565b610382565b34801561015057600080fd5b506100cc61015f366004610913565b6104dd565b34801561017057600080fd5b506100cc61017f366004610799565b61050c565b34801561019057600080fd5b50610199610558565b6040516100fb9190610aab565b6100cc61055e565b3480156101ba57600080fd5b506100cc6101c93660046108c6565b610560565b3480156101da57600080fd5b506101996106c4565b3480156101ef57600080fd5b506100ee6101fe36600461088b565b6106ca565b6005546001600160a01b031633146102365760405162461bcd60e51b815260040161022d90610a19565b60405180910390fd5b60005b81518161ffff16101561028d57600160036000848461ffff168151811061025c57fe5b6020908102919091018101518252810191909152604001600020805460ff1916911515919091179055600101610239565b5050565b6000805462010000900460ff166102aa575060016102c8565b506001600160a01b03811660009081526002602052604090205460ff165b919050565b600054610100900460ff16806102e657506102e661070d565b806102f4575060005460ff16155b6103105760405162461bcd60e51b815260040161022d906109a6565b600054610100900460ff1615801561033b576000805460ff1961ff0019909116610100171660011790555b600580546001600160a01b0319166001600160a01b0385161790556000805462ff000019166201000084151502179055801561037d576000805461ff00191690555b505050565b6005546001600160a01b031633146103ac5760405162461bcd60e51b815260040161022d90610a19565b6001600160a01b03811660009081526002602052604090205460ff166103e45760405162461bcd60e51b815260040161022d90610a63565b6001600160a01b0381166000908152600260205260408120805460ff191690555b60045481101561028d57816001600160a01b03166004828154811061042657fe5b6000918252602090912001546001600160a01b031614156104d55760048054600019810190811061045357fe5b600091825260209091200154600480546001600160a01b03909216918390811061047957fe5b9060005260206000200160006101000a8154816001600160a01b0302191690836001600160a01b0316021790555060048054806104b257fe5b600082815260209020810160001990810180546001600160a01b03191690550190555b600101610405565b6005546001600160a01b031633146105075760405162461bcd60e51b815260040161022d90610a19565b600155565b6005546001600160a01b031633146105365760405162461bcd60e51b815260040161022d90610a19565b600580546001600160a01b0319166001600160a01b0392909216919091179055565b60015481565b565b6005546001600160a01b0316331461058a5760405162461bcd60e51b815260040161022d90610a19565b6001600160a01b03811660009081526002602052604090205460ff16156105c35760405162461bcd60e51b815260040161022d9061096f565b6000826040516020016105d6919061092b565b60408051601f1981840301815291815281516020928301206000818152600390935291205490915060ff1661061d5760405162461bcd60e51b815260040161022d906109f4565b6001600160a01b03821660008181526002602090815260408083208054600160ff199182168117909255600480548084019091557f8a35acfbc15ff81a39ae7d344fd709f28e8600b4aa8c65c6b64bfe7fe36bd19b0180546001600160a01b0319168717905586855260039093528184208054909316909255905490516108fc82150292818181858888f193505050501580156106be573d6000803e3d6000fd5b50505050565b60045490565b600080826040516020016106de919061092b565b60408051808303601f1901815291815281516020928301206000908152600390925290205460ff169392505050565b303b1590565b80356001600160a01b038116811461072a57600080fd5b92915050565b600082601f830112610740578081fd5b813567ffffffffffffffff811115610756578182fd5b610769601f8201601f1916602001610ab4565b915080825283602082850101111561078057600080fd5b8060208401602084013760009082016020015292915050565b6000602082840312156107aa578081fd5b6107b48383610713565b9392505050565b600080604083850312156107cd578081fd5b6107d78484610713565b9150602083013580151581146107eb578182fd5b809150509250929050565b60006020808385031215610808578182fd5b823567ffffffffffffffff81111561081e578283fd5b8301601f8101851361082e578283fd5b803561084161083c82610adb565b610ab4565b818152838101908385018584028501860189101561085d578687fd5b8694505b8385101561087f578035835260019490940193918501918501610861565b50979650505050505050565b60006020828403121561089c578081fd5b813567ffffffffffffffff8111156108b2578182fd5b6108be84828501610730565b949350505050565b600080604083850312156108d8578182fd5b823567ffffffffffffffff8111156108ee578283fd5b6108fa85828601610730565b92505061090a8460208501610713565b90509250929050565b600060208284031215610924578081fd5b5035919050565b60008251815b8181101561094b5760208186018101518583015201610931565b818111156109595782828501525b509190910192915050565b901515815260200190565b6020808252601a908201527f706c6179657220616c72656164792077686974656c6973746564000000000000604082015260600190565b6020808252602e908201527f496e697469616c697a61626c653a20636f6e747261637420697320616c72656160408201526d191e481a5b9a5d1a585b1a5e995960921b606082015260800190565b6020808252600b908201526a696e76616c6964206b657960a81b604082015260600190565b6020808252602a908201527f4f6e6c792061646d696e6973747261746f722063616e20706572666f726d20746040820152693434b99030b1ba34b7b760b11b606082015260800190565b60208082526028908201527f706c6179657220776173206e6f742077686974656c697374656420746f2062656040820152670ced2dc40eed2e8d60c31b606082015260800190565b90815260200190565b60405181810167ffffffffffffffff81118282101715610ad357600080fd5b604052919050565b600067ffffffffffffffff821115610af1578081fd5b506020908102019056fea264697066735822122039fc5bca86b3fe086f4d6b0ccc4e28d97421e5cccfbf3ff5d854244fbdd613d964736f6c634300060c0033",
  "compiler": {
    "name": "solc",
    "version": "0.6.12+commit.27d51765.Emscripten.clang",
    "optimizer": {
      "enabled": true,
      "runs": 200
    },
    "evmVersion": "petersburg"
  }
}